S019000043616E5361742050726F626520436F64652E737265631E
S1130000FEC1000022C200000C9462161EC2000051
S11300101CC200001AC2000018C2000016C2000070
S113002014C2000012C2000010C200000EC2000080
S11300300CC20000A2C2000027C700005DC7000078
S113004093C70000C9C700000C9424080C945C08F2
S11300500C9494080C94CC080C9404090C943C095A
S1130060F4C10000F2C10000F0C10000EEC10000C4
S1130070ECC10000EAC10000E8C10000E6C10000D4
S1130080E4C10000E2C10000E0C10000DEC10000E4
S1130090DCC10000DAC10000D8C10000F1C50000D5
S11300A02CC6000067C60000A2C60000CEC1000036
S11300B0CCC10000CAC10000C4C200000C94A40B4F
S11300C00C94DC0B0C94140C0C944C0C0C94840CBD
S11300D00C94BC0C0C94F40C0C942C0D0C94640D2A
S11300E00C949C0DB2C10000B0C10000AEC1000070
S11300F0ACC10000AAC10000A8C10000A6C1000054
S1130100A4C10000A2C10000A0C100009EC1000063
S11301109CC100009AC1000098C10000BDC4000049
S1130120F8C4000033C500006EC500008EC1000095
S113013056C200000C9474090C94AC090C94E409A4
S11301400C941C0A0C94540A0C948C0A0C94C40A43
S11301500C94FC0A0C94340B0C946C0B76C10000C8
S11301600C94FD1972C1000070C10000E2C20000CD
S11301706CC1000051C3000068C1000066C10000EA
S113018064C1000062C1000060C100005EC10000E3
S11301905CC100005AC1000058C1000056C10000F3
S11301A054C1000052C1000050C100007CC20000D4
S11301B00C94D40D0C940C0E0C94440E0C947C0EE4
S11301C00C94B40E0C94EC0E0C94240F0C945C0F51
S11301D00C94940F0C94CC0F38C1000036C100006D
S11301E034C1000032C1000030C100002EC1000043
S11301F02CC100002AC1000028C100002F1A3D1A9A
S11302003D1A3D1A3D1A341A3D1A381A3A1A361A4A
S11302103D1A3D1A3D1A3D1A3D1A3D1A3D1A3D1A22
S11302203D1A3D1A3D1A3D1A3D1A3D1A3D1A3D1A12
S11302303D1A3D1A3D1A3D1A3D1A3D1A3D1A3D1A02
S11302403D1A3D1A3D1A3D1A3D1A3D1A3D1A3D1AF2
S11302503D1A3D1A3D1A3D1A3D1A3D1A3D1A3D1AE2
S11302603D1A3D1A3D1A3D1A3D1A3D1A3D1A3D1AD2
S11302703D1A3D1A3D1A321A3C1A08000000BE927B
S11302802449123EABAAAA2ABECDCCCC4C3E0000D7
S11302900080BEABAAAAAA3E00000000BF00000076
S11302A0803F0000000000084178D3BB4387D1138E
S11302B03D190E3CC3BD4282AD2B3E68EC8276BE36
S11302C0D98FE1A93E4C80EFFFBE01C4FF7F3F0000
S11302D00000000007634236B79BD8A71A39685656
S11302E018AEBAAB558C1D3CB7CC5763BD6DEDFD54
S11302F0753EF6177231BF000000803F6E616E00DC
S1130300696E660000407A10F35A00A0724E180914
S11303100010A5D4E80000E87648170000E40B5468
S1130320020000CA9A3B000000E1F5050000809637
S11303309800000040420F000000A0860100000069
S1130340102700000000E803000000006400000023
S113035000000A00000000000100000000002C76EC
S1130360D888DC674F0823DFC1DFAE59E1B1B79607
S1130370E5E3E453C63AE651997696E8E6C2842664
S1130380EB898C9B62ED407C6FFCEFBC9C9F40F240
S1130390BAA56FA5F490055A2AF75C936B6CF967BC
S11303A06DC11BFCE0E40D47FEF520E6B500D0ED81
S11303B0902E0300943577050080841E08000020E9
S11303C04E0A000000C80C333333330F986E128387
S11303D01141EF8D2114893BE65516CFFEE6DB185B
S11303E0D1844B381BF77C1D901DA4BBE424203220
S11303F084725E228100C9F124ECA1E53D27112419
S11304001FBECFEFCDBFDFE3DEBF00E00CBF18BEE1
S113041019BE1ABE1BBE10E2A0E0B0E2EAEDF0E5A0
S113042000E00BBF02C007900D92A237B107D9F7C5
S11304301BBE23E2A2E7B0E201C01D92A33AB207B9
S1130440E1F70E94BF1B0C946B28DACDCF93DF93A6
S1130450E0917220F0917320848183FF08C088604A
S1130460848383E0838386EF80937C2083C0982FEA
S1130470947131F083E083838FEF80937C207AC082
S113048086FF43C0C2E7D0E2AA81BB818C819D81F3
S113049014962D913C911597821793076CF49C0147
S11304A02F5F3F4F2093762030937720A80FB91FFA
S11304B011968C9187835EC08091782090917920E9
S11304C018962D913C91199782179307C8F420919F
S11304D07A20222321F08681816086834BC0169680
S11304E02D913C911797AC014F5F5F4F409378205B
S11304F050937920D901A80FB91F8C9187833AC0F2
S113050083E0838310927C2035C0882384F5A2E79E
S1130510B0E21296CD91DC91139716968D919C9131
S113052017972885398582179307D8F46E817F81C0
S11305309C012F5F3F4F209378203093792047818F
S1130540DB01A80FB91F4C938885998528173907B3
S113055018F482E083830EC087E0838310927C20AA
S113056009C083E0838389EF80937C2003C08BEFF1
S113057080937C20DF91CF9108951F920F920FB644
S11305800F92112408B60F9218BE09B60F9219BE25
S11305900BB60F921BBE2F933F934F935F936F93B2
S11305A07F938F939F93AF93BF93EF93FF934EDF0C
S11305B0FF91EF91BF91AF919F918F917F916F9137
S11305C05F914F913F912F910F900BBE0F9009BEF9
S11305D00F9008BE0F900FBE0F901F9018951F929A
S11305E00F920FB60F92112408B60F9218BE09B6D7
S11305F00F9219BE0BB60F921BBE2F933F934F93CE
S11306005F936F937F938F939F93AF93BF93EF9376
S1130610FF931CDFFF91EF91BF91AF919F918F9159
S11306207F916F915F914F913F912F910F900BBEEE
S11306300F9009BE0F9008BE0F900FBE0F901F9031
S113064018951F920F920FB60F92112408B60F92AD
S113065018BE09B60F9219BE0BB60F921BBE2F938C
S11306603F934F935F936F937F938F939F93AF9336
S1130670BF93EF93FF93EADEFF91EF91BF91AF91A8
S11306809F918F917F916F915F914F913F912F91A6
S11306900F900BBE0F9009BE0F9008BE0F900FBEB7
S11306A00F901F9018951F920F920FB60F9211245E
S11306B008B60F9218BE09B60F9219BE0BB60F9268
S11306C01BBE2F933F934F935F936F937F938F93AF
S11306D09F93AF93BF93EF93FF93B8DEFF91EF9196
S11306E0BF91AF919F918F917F916F915F914F9146
S11306F03F912F910F900BBE0F9009BE0F9008BE33
S11307000F900FBE0F901F90189563E080E890E063
S1130710ABD3E0E8F0E0828180FDFDCF6BE281E8BD
S113072090E0A2D3E0E8F0E0828180FDFDCFA895BF
S1130730FFCF1F920F920FB60F92112408B60F929B
S113074018BE09B60F9219BE0BB60F921BBE2F939B
S11307503F934F935F936F937F938F939F93AF9345
S1130760BF93CF93EF93FF93C091B0098C2F90E088
S11307700E9496268091DE21813051F490917C2351
S1130780E92FF0E0E95DFC4DC0839F5F90937C23EB
S1130790CA3039F4809387211092DE2110927E2191
S11307A023C0C43211F48823D9F080917E21882398
S11307B0D9F08530B1F4C734A1F481E08093DE210F
S11307C085E0E0E2F0E2A7E2B3E201900D928A95BF
S11307D0E1F785E080937C2386E080937E2104C04A
S11307E081E08F5F80937E21FF91EF91CF91BF9144
S11307F0AF919F918F917F916F915F914F913F91B5
S11308002F910F900BBE0F9009BE0F9008BE0F9052
S11308100FBE0F901F9018951F920F920FB60F9254
S1130820112408B60F9218BE09B60F9219BE0BB662
S11308300F921BBE2F933F934F935F936F937F93BE
S11308408F939F93AF93BF93EF93FF9341E050E057
S113085060EB79E08FE193E22ED061E070E08FE10C
S113086093E279D0FF91EF91BF91AF919F918F91D6
S11308707F916F915F914F913F912F910F900BBE9C
S11308800F9009BE0F9008BE0F900FBE0F901F90DF
S11308901895FC01828193814481558184179507C1
S11308A018F0841B950B089520813181820F931FCA
S11308B0841B950B08958F929F92AF92BF92CF9213
S11308C0DF92EF92FF920F931F93CF93DF938C01EC
S11308D06A01DC011496CD91DC911597E62EF72E72
S11308E0A12CB12C842E9D2C18C0D8011696ED9104
S11308F0FC911797EC0FFD1F8081F70181937F0115
S11309008D919C910197C817D90711F0219602C0C7
S1130910C0E0D0E0FFEFAF1ABF0AC801BADF9C0104
S1130920C816D90610F4282D392DA216B306E8F2FC
S113093021E08C159D0508F020E0822FDF91CF91F6
S11309401F910F91FF90EF90DF90CF90BF90AF90E9
S11309509F908F9008950F931F93CF93DF93EC0193
S11309608B0197DF9C010817190708F498012817D1
S1130970390768F08C819D81820F931F688179818A
S11309800E94DD238C839D838A839B830AC08C8190
S11309909D81820F931F688179810E94DD238C835E
S11309A09D83DF91CF911F910F910895CF93DF9392
S11309B01F921F92CDB7DEB78FEF809370008093A4
S11309C0710080937200809373008093740080930D
S11309D07500809376008FB78A83F8949A81E0E556
S11309E0F0E08081826080839FBF818181FFFDCFA1
S11309F061E080E490E038D28FB78983F8949981DC
S1130A00E0E5F0E080818E7F80839FBF0F900F90A0
S1130A10DF91CF910895CF93DF931F92CDB7DEB7C7
S1130A209FB79983F8949981E82FF0E0E059FF4F3C
S1130A3060958081682360839FBF0F90DF91CF9181
S1130A400895CF93DF931F92CDB7DEB780918223B1
S1130A5090918323E0917E23F0917F23BE016F5F09
S1130A607F4F19958981082E000C990B0F90DF9107
S1130A70CF910895682F8091822390918323E091F0
S1130A808023F0918123199599231CF081E090E053
S1130A9008958FEF9FEF08951F920F920FB60F9254
S1130AA0112408B60F9218BE09B60F9219BE0BB6E0
S1130AB00F921BBE2F933F934F935F936F937F933C
S1130AC08F939F93AF93BF93EF93FF93409124022F
S1130AD050912502E0918623F091872361E080E024
S1130AE092E01995FF91EF91BF91AF919F918F91F2
S1130AF07F916F915F914F913F912F910F900BBE1A
S1130B000F9009BE0F9008BE0F900FBE0F901F905C
S1130B1018951F920F920FB60F92112408B60F92D8
S1130B2018BE09B60F9219BE0BB60F921BBE2F93B7
S1130B303F934F935F936F937F938F939F93AF9361
S1130B40BF93EF93FF9340912C0250912D02E091BB
S1130B508623F091872362E080E092E01995FF916B
S1130B60EF91BF91AF919F918F917F916F915F9121
S1130B704F913F912F910F900BBE0F9009BE0F9094
S1130B8008BE0F900FBE0F901F9018951F920F92E2
S1130B900FB60F92112408B60F9218BE09B60F9221
S1130BA019BE0BB60F921BBE2F933F934F935F93C7
S1130BB06F937F938F939F93AF93BF93EF93FF9321
S1130BC04091340250913502E0918623F0918723BD
S1130BD064E080E092E01995FF91EF91BF91AF91AD
S1130BE09F918F917F916F915F914F913F912F9141
S1130BF00F900BBE0F9009BE0F9008BE0F900FBE52
S1130C000F901F9018951F920F920FB60F921124F8
S1130C1008B60F9218BE09B60F9219BE0BB60F9202
S1130C201BBE2F933F934F935F936F937F938F9349
S1130C309F93AF93BF93EF93FF9340913C025091E6
S1130C403D02E0918623F091872368E080E092E002
S1130C501995FF91EF91BF91AF919F918F917F91E2
S1130C606F915F914F913F912F910F900BBE0F9019
S1130C7009BE0F9008BE0F900FBE0F901F901895DD
S1130C801F920F920FB60F92112408B60F9218BE3E
S1130C9009B60F9219BE0BB60F921BBE2F933F934A
S1130CA04F935F936F937F938F939F93AF93BF9370
S1130CB0EF93FF934091640250916502E091842385
S1130CC0F091852361E080E492E01995FF91EF9122
S1130CD0BF91AF919F918F917F916F915F914F9150
S1130CE03F912F910F900BBE0F9009BE0F9008BE3D
S1130CF00F900FBE0F901F9018951F920F920FB672
S1130D000F92112408B60F9218BE09B60F9219BE9D
S1130D100BB60F921BBE2F933F934F935F936F932A
S1130D207F938F939F93AF93BF93EF93FF934091E0
S1130D306C0250916D02E0918423F091852362E06E
S1130D4080E492E01995FF91EF91BF91AF919F914B
S1130D508F917F916F915F914F913F912F910F9060
S1130D600BBE0F9009BE0F9008BE0F900FBE0F90E0
S1130D701F9018951F920F920FB60F92112408B668
S1130D800F9218BE09B60F9219BE0BB60F921BBE76
S1130D902F933F934F935F936F937F938F939F937F
S1130DA0AF93BF93EF93FF934091740250917502F8
S1130DB0E0918423F091852364E080E492E0199526
S1130DC0FF91EF91BF91AF919F918F917F916F911F
S1130DD05F914F913F912F910F900BBE0F9009BEE1
S1130DE00F9008BE0F900FBE0F901F9018951F9282
S1130DF00F920FB60F92112408B60F9218BE09B6BF
S1130E000F9219BE0BB60F921BBE2F933F934F93B5
S1130E105F936F937F938F939F93AF93BF93EF935E
S1130E20FF9340917C0250917D02E0918423F091E4
S1130E30852368E080E492E01995FF91EF91BF91DA
S1130E40AF919F918F917F916F915F914F913F915E
S1130E502F910F900BBE0F9009BE0F9008BE0F90FC
S1130E600FBE0F901F9018951BBEFC0128ED24BFE8
S1130E70608308954091CA01E62FF72F8093CA0139
S1130E8084914093CA0108951F920F920FB60F9256
S1130E90112408B60F9218BE09B60F9219BE0BB6EC
S1130EA00F921BBE2F933F934F935F936F937F9348
S1130EB08F939F93AF93BF93EF93FF93E091CB20D6
S1130EC0F091CC20309709F01995FF91EF91BF91E3
S1130ED0AF919F918F917F916F915F914F913F91CE
S1130EE02F910F900BBE0F9009BE0F9008BE0F906C
S1130EF00FBE0F901F9018951F920F920FB60F926E
S1130F00112408B60F9218BE09B60F9219BE0BB67B
S1130F100F921BBE2F933F934F935F936F937F93D7
S1130F208F939F93AF93BF93EF93FF93E091C92067
S1130F30F091CA20309709F01995FF91EF91BF9174
S1130F40AF919F918F917F916F915F914F913F915D
S1130F502F910F900BBE0F9009BE0F9008BE0F90FB
S1130F600FBE0F901F9018951F920F920FB60F92FD
S1130F70112408B60F9218BE09B60F9219BE0BB60B
S1130F800F921BBE2F933F934F935F936F937F9367
S1130F908F939F93AF93BF93EF93FF93E091C720F9
S1130FA0F091C820309709F01995FF91EF91BF9106
S1130FB0AF919F918F917F916F915F914F913F91ED
S1130FC02F910F900BBE0F9009BE0F9008BE0F908B
S1130FD00FBE0F901F9018951F920F920FB60F928D
S1130FE0112408B60F9218BE09B60F9219BE0BB69B
S1130FF00F921BBE2F933F934F935F936F937F93F7
S11310008F939F93AF93BF93EF93FF93E091C5208A
S1131010F091C620309709F01995FF91EF91BF9197
S1131020AF919F918F917F916F915F914F913F917C
S11310302F910F900BBE0F9009BE0F9008BE0F901A
S11310400FBE0F901F9018951F920F920FB60F921C
S1131050112408B60F9218BE09B60F9219BE0BB62A
S11310600F921BBE2F933F934F935F936F937F9386
S11310708F939F93AF93BF93EF93FF93E091C3201C
S1131080F091C420309709F01995FF91EF91BF9129
S1131090AF919F918F917F916F915F914F913F910C
S11310A02F910F900BBE0F9009BE0F9008BE0F90AA
S11310B00FBE0F901F9018951F920F920FB60F92AC
S11310C0112408B60F9218BE09B60F9219BE0BB6BA
S11310D00F921BBE2F933F934F935F936F937F9316
S11310E08F939F93AF93BF93EF93FF93E091C120AE
S11310F0F091C220309709F01995FF91EF91BF91BB
S1131100AF919F918F917F916F915F914F913F919B
S11311102F910F900BBE0F9009BE0F9008BE0F9039
S11311200FBE0F901F9018951F920F920FB60F923B
S1131130112408B60F9218BE09B60F9219BE0BB649
S11311400F921BBE2F933F934F935F936F937F93A5
S11311508F939F93AF93BF93EF93FF93E091BF203F
S1131160F091C020309709F01995FF91EF91BF914C
S1131170AF919F918F917F916F915F914F913F912B
S11311802F910F900BBE0F9009BE0F9008BE0F90C9
S11311900FBE0F901F9018951F920F920FB60F92CB
S11311A0112408B60F9218BE09B60F9219BE0BB6D9
S11311B00F921BBE2F933F934F935F936F937F9335
S11311C08F939F93AF93BF93EF93FF93E091BD20D1
S11311D0F091BE20309709F01995FF91EF91BF91DE
S11311E0AF919F918F917F916F915F914F913F91BB
S11311F02F910F900BBE0F9009BE0F9008BE0F9059
S11312000FBE0F901F9018951F920F920FB60F925A
S1131210112408B60F9218BE09B60F9219BE0BB668
S11312200F921BBE2F933F934F935F936F937F93C4
S11312308F939F93AF93BF93EF93FF93E091BB2062
S1131240F091BC20309709F01995FF91EF91BF916F
S1131250AF919F918F917F916F915F914F913F914A
S11312602F910F900BBE0F9009BE0F9008BE0F90E8
S11312700FBE0F901F9018951F920F920FB60F92EA
S1131280112408B60F9218BE09B60F9219BE0BB6F8
S11312900F921BBE2F933F934F935F936F937F9354
S11312A08F939F93AF93BF93EF93FF93E091B920F4
S11312B0F091BA20309709F01995FF91EF91BF9101
S11312C0AF919F918F917F916F915F914F913F91DA
S11312D02F910F900BBE0F9009BE0F9008BE0F9078
S11312E00FBE0F901F9018951F920F920FB60F927A
S11312F0112408B60F9218BE09B60F9219BE0BB688
S11313000F921BBE2F933F934F935F936F937F93E3
S11313108F939F93AF93BF93EF93FF93E091B72085
S1131320F091B820309709F01995FF91EF91BF9192
S1131330AF919F918F917F916F915F914F913F9169
S11313402F910F900BBE0F9009BE0F9008BE0F9007
S11313500FBE0F901F9018951F920F920FB60F9209
S1131360112408B60F9218BE09B60F9219BE0BB617
S11313700F921BBE2F933F934F935F936F937F9373
S11313808F939F93AF93BF93EF93FF93E091B52017
S1131390F091B620309709F01995FF91EF91BF9124
S11313A0AF919F918F917F916F915F914F913F91F9
S11313B02F910F900BBE0F9009BE0F9008BE0F9097
S11313C00FBE0F901F9018951F920F920FB60F9299
S11313D0112408B60F9218BE09B60F9219BE0BB6A7
S11313E00F921BBE2F933F934F935F936F937F9303
S11313F08F939F93AF93BF93EF93FF93E091B320A9
S1131400F091B420309709F01995FF91EF91BF91B5
S1131410AF919F918F917F916F915F914F913F9188
S11314202F910F900BBE0F9009BE0F9008BE0F9026
S11314300FBE0F901F9018951F920F920FB60F9228
S1131440112408B60F9218BE09B60F9219BE0BB636
S11314500F921BBE2F933F934F935F936F937F9392
S11314608F939F93AF93BF93EF93FF93E091B1203A
S1131470F091B220309709F01995FF91EF91BF9147
S1131480AF919F918F917F916F915F914F913F9118
S11314902F910F900BBE0F9009BE0F9008BE0F90B6
S11314A00FBE0F901F9018951F920F920FB60F92B8
S11314B0112408B60F9218BE09B60F9219BE0BB6C6
S11314C00F921BBE2F933F934F935F936F937F9322
S11314D08F939F93AF93BF93EF93FF93E091AF20CC
S11314E0F091B020309709F01995FF91EF91BF91D9
S11314F0AF919F918F917F916F915F914F913F91A8
S11315002F910F900BBE0F9009BE0F9008BE0F9045
S11315100FBE0F901F9018951F920F920FB60F9247
S1131520112408B60F9218BE09B60F9219BE0BB655
S11315300F921BBE2F933F934F935F936F937F93B1
S11315408F939F93AF93BF93EF93FF93E091AD205D
S1131550F091AE20309709F01995FF91EF91BF916A
S1131560AF919F918F917F916F915F914F913F9137
S11315702F910F900BBE0F9009BE0F9008BE0F90D5
S11315800FBE0F901F9018951F920F920FB60F92D7
S1131590112408B60F9218BE09B60F9219BE0BB6E5
S11315A00F921BBE2F933F934F935F936F937F9341
S11315B08F939F93AF93BF93EF93FF93E091AB20EF
S11315C0F091AC20309709F01995FF91EF91BF91FC
S11315D0AF919F918F917F916F915F914F913F91C7
S11315E02F910F900BBE0F9009BE0F9008BE0F9065
S11315F00FBE0F901F9018951F920F920FB60F9267
S1131600112408B60F9218BE09B60F9219BE0BB674
S11316100F921BBE2F933F934F935F936F937F93D0
S11316208F939F93AF93BF93EF93FF93E091A92080
S1131630F091AA20309709F01995FF91EF91BF918D
S1131640AF919F918F917F916F915F914F913F9156
S11316502F910F900BBE0F9009BE0F9008BE0F90F4
S11316600FBE0F901F9018951F920F920FB60F92F6
S1131670112408B60F9218BE09B60F9219BE0BB604
S11316800F921BBE2F933F934F935F936F937F9360
S11316908F939F93AF93BF93EF93FF93E091A72012
S11316A0F091A820309709F01995FF91EF91BF911F
S11316B0AF919F918F917F916F915F914F913F91E6
S11316C02F910F900BBE0F9009BE0F9008BE0F9084
S11316D00FBE0F901F9018951F920F920FB60F9286
S11316E0112408B60F9218BE09B60F9219BE0BB694
S11316F00F921BBE2F933F934F935F936F937F93F0
S11317008F939F93AF93BF93EF93FF93E091A520A3
S1131710F091A620309709F01995FF91EF91BF91B0
S1131720AF919F918F917F916F915F914F913F9175
S11317302F910F900BBE0F9009BE0F9008BE0F9013
S11317400FBE0F901F9018951F920F920FB60F9215
S1131750112408B60F9218BE09B60F9219BE0BB623
S11317600F921BBE2F933F934F935F936F937F937F
S11317708F939F93AF93BF93EF93FF93E091A32035
S1131780F091A420309709F01995FF91EF91BF9142
S1131790AF919F918F917F916F915F914F913F9105
S11317A02F910F900BBE0F9009BE0F9008BE0F90A3
S11317B00FBE0F901F9018951F920F920FB60F92A5
S11317C0112408B60F9218BE09B60F9219BE0BB6B3
S11317D00F921BBE2F933F934F935F936F937F930F
S11317E08F939F93AF93BF93EF93FF93E091A120C7
S11317F0F091A220309709F01995FF91EF91BF91D4
S1131800AF919F918F917F916F915F914F913F9194
S11318102F910F900BBE0F9009BE0F9008BE0F9032
S11318200FBE0F901F9018951F920F920FB60F9234
S1131830112408B60F9218BE09B60F9219BE0BB642
S11318400F921BBE2F933F934F935F936F937F939E
S11318508F939F93AF93BF93EF93FF93E0919F2058
S1131860F091A020309709F01995FF91EF91BF9165
S1131870AF919F918F917F916F915F914F913F9124
S11318802F910F900BBE0F9009BE0F9008BE0F90C2
S11318900FBE0F901F9018951F920F920FB60F92C4
S11318A0112408B60F9218BE09B60F9219BE0BB6D2
S11318B00F921BBE2F933F934F935F936F937F932E
S11318C08F939F93AF93BF93EF93FF93E0919D20EA
S11318D0F0919E20309709F01995FF91EF91BF91F7
S11318E0AF919F918F917F916F915F914F913F91B4
S11318F02F910F900BBE0F9009BE0F9008BE0F9052
S11319000FBE0F901F9018951F920F920FB60F9253
S1131910112408B60F9218BE09B60F9219BE0BB661
S11319200F921BBE2F933F934F935F936F937F93BD
S11319308F939F93AF93BF93EF93FF93E0919B207B
S1131940F0919C20309709F01995FF91EF91BF9188
S1131950AF919F918F917F916F915F914F913F9143
S11319602F910F900BBE0F9009BE0F9008BE0F90E1
S11319700FBE0F901F9018951F920F920FB60F92E3
S1131980112408B60F9218BE09B60F9219BE0BB6F1
S11319900F921BBE2F933F934F935F936F937F934D
S11319A08F939F93AF93BF93EF93FF93E09199200D
S11319B0F0919A20309709F01995FF91EF91BF911A
S11319C0AF919F918F917F916F915F914F913F91D3
S11319D02F910F900BBE0F9009BE0F9008BE0F9071
S11319E00FBE0F901F9018951F920F920FB60F9273
S11319F0112408B60F9218BE09B60F9219BE0BB681
S1131A000F921BBE2F933F934F935F936F937F93DC
S1131A108F939F93AF93BF93EF93FF93E09197209E
S1131A20F0919820309709F01995FF91EF91BF91AB
S1131A30AF919F918F917F916F915F914F913F9162
S1131A402F910F900BBE0F9009BE0F9008BE0F9000
S1131A500FBE0F901F9018951F920F920FB60F9202
S1131A60112408B60F9218BE09B60F9219BE0BB610
S1131A700F921BBE2F933F934F935F936F937F936C
S1131A808F939F93AF93BF93EF93FF93E091952030
S1131A90F0919620309709F01995FF91EF91BF913D
S1131AA0AF919F918F917F916F915F914F913F91F2
S1131AB02F910F900BBE0F9009BE0F9008BE0F9090
S1131AC00FBE0F901F9018951F920F920FB60F9292
S1131AD0112408B60F9218BE09B60F9219BE0BB6A0
S1131AE00F921BBE2F933F934F935F936F937F93FC
S1131AF08F939F93AF93BF93EF93FF93E0919320C2
S1131B00F0919420309709F01995FF91EF91BF91CE
S1131B10AF919F918F917F916F915F914F913F9181
S1131B202F910F900BBE0F9009BE0F9008BE0F901F
S1131B300FBE0F901F9018951F920F920FB60F9221
S1131B40112408B60F9218BE09B60F9219BE0BB62F
S1131B500F921BBE2F933F934F935F936F937F938B
S1131B608F939F93AF93BF93EF93FF93E091912053
S1131B70F0919220309709F01995FF91EF91BF9160
S1131B80AF919F918F917F916F915F914F913F9111
S1131B902F910F900BBE0F9009BE0F9008BE0F90AF
S1131BA00FBE0F901F9018951F920F920FB60F92B1
S1131BB0112408B60F9218BE09B60F9219BE0BB6BF
S1131BC00F921BBE2F933F934F935F936F937F931B
S1131BD08F939F93AF93BF93EF93FF93E0918F20E5
S1131BE0F0919020309709F01995FF91EF91BF91F2
S1131BF0AF919F918F917F916F915F914F913F91A1
S1131C002F910F900BBE0F9009BE0F9008BE0F903E
S1131C100FBE0F901F9018951F920F920FB60F9240
S1131C20112408B60F9218BE09B60F9219BE0BB64E
S1131C300F921BBE2F933F934F935F936F937F93AA
S1131C408F939F93AF93BF93EF93FF93E0918D2076
S1131C50F0918E20309709F01995FF91EF91BF9183
S1131C60AF919F918F917F916F915F914F913F9130
S1131C702F910F900BBE0F9009BE0F9008BE0F90CE
S1131C800FBE0F901F9018951F920F920FB60F92D0
S1131C90112408B60F9218BE09B60F9219BE0BB6DE
S1131CA00F921BBE2F933F934F935F936F937F933A
S1131CB08F939F93AF93BF93EF93FF93E0918B2008
S1131CC0F0918C20309709F01995FF91EF91BF9115
S1131CD0AF919F918F917F916F915F914F913F91C0
S1131CE02F910F900BBE0F9009BE0F9008BE0F905E
S1131CF00FBE0F901F9018951F920F920FB60F9260
S1131D00112408B60F9218BE09B60F9219BE0BB66D
S1131D100F921BBE2F933F934F935F936F937F93C9
S1131D208F939F93AF93BF93EF93FF93E091892099
S1131D30F0918A20309709F01995FF91EF91BF91A6
S1131D40AF919F918F917F916F915F914F913F914F
S1131D502F910F900BBE0F9009BE0F9008BE0F90ED
S1131D600FBE0F901F9018951F920F920FB60F92EF
S1131D70112408B60F9218BE09B60F9219BE0BB6FD
S1131D800F921BBE2F933F934F935F936F937F9359
S1131D908F939F93AF93BF93EF93FF93E09187202B
S1131DA0F0918820309709F01995FF91EF91BF9138
S1131DB0AF919F918F917F916F915F914F913F91DF
S1131DC02F910F900BBE0F9009BE0F9008BE0F907D
S1131DD00FBE0F901F9018951F920F920FB60F927F
S1131DE0112408B60F9218BE09B60F9219BE0BB68D
S1131DF00F921BBE2F933F934F935F936F937F93E9
S1131E008F939F93AF93BF93EF93FF93E0918520BC
S1131E10F0918620309709F01995FF91EF91BF91C9
S1131E20AF919F918F917F916F915F914F913F916E
S1131E302F910F900BBE0F9009BE0F9008BE0F900C
S1131E400FBE0F901F9018951F920F920FB60F920E
S1131E50112408B60F9218BE09B60F9219BE0BB61C
S1131E600F921BBE2F933F934F935F936F937F9378
S1131E708F939F93AF93BF93EF93FF93E09183204E
S1131E80F0918420309709F01995FF91EF91BF915B
S1131E90AF919F918F917F916F915F914F913F91FE
S1131EA02F910F900BBE0F9009BE0F9008BE0F909C
S1131EB00FBE0F901F9018951F920F920FB60F929E
S1131EC0112408B60F9218BE09B60F9219BE0BB6AC
S1131ED00F921BBE2F933F934F935F936F937F9308
S1131EE08F939F93AF93BF93EF93FF93E0918120E0
S1131EF0F0918220309709F01995FF91EF91BF91ED
S1131F00AF919F918F917F916F915F914F913F918D
S1131F102F910F900BBE0F9009BE0F9008BE0F902B
S1131F200FBE0F901F9018951F920F920FB60F922D
S1131F30112408B60F9218BE09B60F9219BE0BB63B
S1131F400F921BBE2F933F934F935F936F937F9397
S1131F508F939F93AF93BF93EF93FF93E0917F2071
S1131F60F0918020309709F01995FF91EF91BF917E
S1131F70AF919F918F917F916F915F914F913F911D
S1131F802F910F900BBE0F9009BE0F9008BE0F90BB
S1131F900FBE0F901F9018951F920F920FB60F92BD
S1131FA0112408B60F9218BE09B60F9219BE0BB6CB
S1131FB00F921BBE2F933F934F935F936F937F9327
S1131FC08F939F93AF93BF93EF93FF93E0917D2003
S1131FD0F0917E20309709F01995FF91EF91BF9110
S1131FE0AF919F918F917F916F915F914F913F91AD
S1131FF02F910F900BBE0F9009BE0F9008BE0F904B
S11320000FBE0F901F901895FC01918195FFFDCF95
S1132010608380E090E00895FC0191819923ECF7BE
S1132020808108954F925F926F927F928F929F92D8
S1132030AF92BF92EF92FF920F931F93CF937C01C5
S11320404A015B0128013901FC01848182FF16C029
S1132050D901C801689412F8B695A7959795879504
S11320601694D1F7B901A801032E36E17695679548
S1132070579547953A95D1F7302D15C0D901C80128
S1132080689413F8B695A795979587951694D1F704
S1132090B901A801032E37E17695679557954795C1
S11320A03A95D1F7302D88159905AA05BB0508F492
S11320B0A6C084169506A606B70608F4A2C0F701C2
S11320C0848182FD04C0880C991CAA1CBB1CC3011A
S11320D0B201A50194010E94F1232F3F310541056E
S11320E0510508F490C08FEF90E0A0E0B0E0C9EF94
S11320F005C0281739074A075B0758F0880F991F4E
S1132100AA1FBB1FCD3F0CF48160CF5FC73089F796
S11321104FC0CC230CF04CC0D501C401880F991FCB
S1132120AA1FBB1F880F991FAA1FBB1F880F991FC7
S1132130AA1FBB1F481A590A6A0A7B0ACE3FF4F445
S11321408DEF9FEF8C1B9109C7FD939504C0440C40
S1132150551C661C771C8A95D2F7D501C401B69527
S1132160A79597958795BC01CD01640D751D861DB6
S1132170971DA50194010E94F12337C083E08C0FC1
S1132180A501940104C0220F331F441F551F8A95D3
S1132190D2F7DA01C901B695A79597958795BC0141
S11321A0CD01640D751D861D971D0E94F1231DC070
S11321B083E08C0FA501940104C0220F331F441F38
S11321C0551F8A95D2F7DA01C901B695A795979557
S11321D08795BC01CD01640D751D861D971D0E9458
S11321E0F1232150310941095109832F8F70C29580
S11321F0C07FC82BF701C783268381E018C080E025
S113220016C080E014C0D501C401880F991FAA1F0D
S1132210BB1F880F991FAA1FBB1F880F991FAA1FD6
S1132220BB1F481A590A6A0A7B0AC9EF89CFCF91A2
S11322301F910F91FF90EF90BF90AF909F908F9060
S11322407F906F905F904F9008950F931F93CF935B
S1132250DF93EC018B01009709F45DC1803C91058B
S113226029F460E180E00E940B0555C1C03484E08C
S1132270D80729F468E080E00E940B054CC1C11521
S1132280E4E0DE0729F464E080E00E940B0543C12A
S1132290C038F1E0DF0729F462E080E00E940B051A
S11322A03AC1C11581E0D80729F461E080E00E94B9
S11322B00B0531C1C038E3E0DE0729F461E081E0B9
S11322C00E940B0528C1C039F3E0DF0729F461E05F
S11322D082E00E940B051FC1C11582E0D80729F4D2
S11322E062E081E00E940B0516C1C034E2E0DE0723
S11322F029F462E082E00E940B050DC1C115F3E0F0
S1132300DF0729F464E081E00E940B0504C1C032B8
S113231083E0D80729F464E082E00E940B05FBC047
S1132320C115E8E0DE0729F461E083E00E940B05B3
S1132330F2C0C115F9E0DF0729F461E084E00E94EE
S11323400B05E9C0C1158AE0D80729F461E085E0EE
S11323500E940B05E0C0C115EBE0DE0729F461E043
S113236086E00E940B05D7C0C034F8E0DF0729F4EB
S113237062E083E00E940B05CEC0C03489E0D80738
S113238029F462E084E00E940B05C5C0C034EAE091
S1132390DE0729F462E085E00E940B05BCC0C0346E
S11323A0FBE0DF0729F462E086E00E940B05B3C07E
S11323B0C03988E0D80729F464E083E00E940B0563
S11323C0AAC0C039E9E0DE0729F464E084E00E9491
S11323D00B05A1C0C039FAE0DF0729F464E085E009
S11323E00E940B0598C0C0398BE0D80729F464E03B
S11323F086E00E940B058FC0C03CE8E0DE0729F4AC
S113240068E083E00E940B0586C0C03CF9E0DF076A
S113241029F468E084E00E940B057DC0C03C8AE09A
S1132420D80729F468E085E00E940B0574C0C03C1D
S1132430EBE0DE0729F468E086E00E940B056BC040
S1132440C03AF8E0DF0729F460E183E00E940B055D
S113245062C0C03A89E0D80729F460E184E00E94B0
S11324600B0559C0C03AEAE0DE0729F460E185E0D3
S11324700E940B0550C0C03AFBE0DF0729F460E17D
S113248086E00E940B0547C0C03B88E0D80729F4CA
S113249060E283E00E940B053EC0C03BE9E0DE073A
S11324A029F460E284E00E940B0535C0C03BFAE0E9
S11324B0DF0729F460E285E00E940B052CC0C03BD5
S11324C08BE0D80729F460E286E00E940B0523C064
S11324D0C038E4E0DE0729F460E483E00E940B05E1
S11324E01AC0C039F4E0DF0729F460E484E00E94F4
S11324F00B0511C0C03A84E0D80729F460E485E0F4
S11325000E940B0508C0C03BE4E0DE0721F460E450
S113251086E00E940B058D818F738D83F801958170
S11325208481892B9681911198E0892B8D83F80100
S1132530408151816281738100E018E428EE31E02A
S1132540CE0170DD9C8198609C839C8190619C830A
S1132550DF91CF911F910F9108954F925F926F92E7
S11325607F928F929F92AF92BF92CF92DF92EF921F
S1132570FF9229013A010F2EF4E6CF2ED12CE12C43
S1132580F12CF02DA70196010E94F12349015A0173
S1132590C301B201A70196010E94F123C501B40150
S11325A00E94F123CA01B9010E94041E24EB39ECF4
S11325B042E45EE30E943A1F4B015C016091882370
S11325C07091892380918A2390918B23A70196018E
S11325D00E941324CA01B9010E94061E23E333E9B1
S11325E048E853E40E94071D6B017C0120E030E0C1
S11325F040E85FE3C501B4010E94061D9B01AC01E4
S1132600C701B6010E94D71E24EF3DEF44ED5BE302
S11326100E946B1DFF90EF90DF90CF90BF90AF9022
S11326209F908F907F906F905F904F900895DC0102
S1132630FB018081882301F1082E000C990B2C9159
S113264030E082179307D1F490E00BC0022E000C07
S1132650330BFD01E40FF51F408150E024173507CB
S113266079F49F5F492F50E0FB01E40FF51F2081AF
S11326702111ECCF81E0089581E0089580E0089570
S113268080E008952F923F924F925F926F927F92D3
S11326908F929F92AF92BF92CF92DF92EF92FF926E
S11326A00F931F93CF93DF93CDB7DEB7A297CDBF20
S11326B0DEBF4C0169837A83242E66E270E289814D
S11326C09A81B5DF882309F445C2312C121413040E
S11326D00CF040C249805A8000E010E0F12CDF2C5D
S11326E048A259A2A8A1B9A18D91A8A3B9A38C32DB
S11326F009F02AC2D394B1E0DB1223C0E8A1F9A106
S11327008081880F8056982F990F990F890F918196
S11327109053890F8D878281880F8056982F990F47
S1132720990F890F93819053890F8E878481880F25
S11327308056A82EAA0CAA0CA80E95819053A90E17
S113274003C2F2E0DF12BBC0A8A1B9A18C918C3204
S113275009F4ECC190E0C0979C01220F331F880F4D
S1132760991F880F991F880F991F820F931F119625
S11327702C91119730E0205331092C01420E531E45
S11327804B865C861296AC91B0E0D09720EA36E88E
S113279041E050E00E943E242B013C01E8A1F9A154
S11327A0A381B0E0D09720E137E20E943824460E9E
S11327B0571E681E791EA581B0E0D09728EE33E03D
S11327C00E943824460E571E681E791EA681B0E06A
S11327D0D09724E630E00E943824AB01BC01440DBC
S11327E0551D661D771D9781892F90E0C097092E8E
S11327F0000CAA0BBB0B880F991FAA1FBB1F2C012F
S11328003D01440C551C661C771C440C551C661C6D
S1132810771C840D951DA61DB71D840F951FA61F3B
S1132820B71F408550E040535109052E000C660B3C
S1132830770B2C013D01440E551E661E771E4F82F8
S1132840588669867A8682858E3451F0B12CC12CE3
S11328506894EE24E7F80F2EFFEBFF2EF02D09C04D
S1132860B12CC12C6894EE24E7F80F2EFFE3FF2E61
S1132870F02D6F81788589859A850E94041E20E059
S11328803CE742E159E40E946B1D2B013C012B857E
S11328903C85B90180E090E00E94041E9B01AC01DC
S11328A0C301B2010E94071D2B2D3C2D4E2D5F2D1F
S11328B00E94D71E6F87788B898B9A8B45C134E031
S11328C0D312C4C0A8A1B9A12C912C3209F433C1EC
S11328D011968C9190E0C097AC01440F551F880F5E
S11328E0991F880F991F880F991F840F951F30E037
S11328F020533109B4E6B29FA001B39F500D1124B7
S1132900840F951FE8A1F9A1228130E020533109F9
S11329102C01420E531E4F8A588EA381B0E0D097EB
S113292020EA36E841E050E00E943E242B013C01BD
S1132930A481B0E0D09720E137E20E943824460E0B
S1132940571E681E791EA681B0E0D09728EE33E0AA
S11329500E943824460E571E681E791EA781B0E0D7
S1132960D09724E630E00E943824AB01BC01440D2A
S1132970551D661D771D9085892F90E0C097092EFF
S1132980000CAA0BBB0B880F991FAA1FBB1F2C019D
S11329903D01440C551C661C771C440C551C661CDC
S11329A0771C840D951DA61DB71D840F951FA61FAA
S11329B0B71F418550E040535109052E000C660BAA
S11329C0770B2C013D01440E551E661E771E4B8A63
S11329D05C8A6D8A7E8A8385853451F0B12CC12C42
S11329E06894EE24E7F80F2EFFEBFF2EF02D09C0BC
S11329F0B12CC12C6894EE24E7F80F2EFFE3FF2ED0
S1132A00F02D6B897C898D899E890E94041E20E0AB
S1132A103CE742E159E40E946B1D2B013C012F89E4
S1132A20388DB90180E090E00E94041E9B01AC0146
S1132A30C301B201ECD72B2D3C2D4E2D5F2D0E94EE
S1132A40D71E698F7A8F8B8F9C8F7EC036E0D3120E
S1132A5006C0A8A1B9A18C9180538D8F75C0B9E02F
S1132A60DB1272C0E8A1F9A1C080FCE2CF1609F420
S1132A7067C0B12C1B821C821D821E82712CE980CE
S1132A80FA80E00EF11E0E8F1F8F1C2D7AA21E32CB
S1132A9009F43FC05AA051101EC020E030E040E2CB
S1132AA051E46B817C818D819E810E94D71E2B0114
S1132AB03C01612F70E060537109072E000C880BF4
S1132AC0990B0E94061EA3019201A1D76B837C83FC
S1132AD08D839E8320C0C12E0E8D1F8D6C2D70E0C2
S1132AE060537109072E000C880B990B0E94061E77
S1132AF020E030E040E251E4EED79B01AC016B8171
S1132B007C818D819E8183D76B837C838D839E831F
S1132B101BC021E02AA3B394F701EB0DF11D118131
S1132B201C3209F0B4CF0E8D1F8D0EC01F86188A7B
S1132B30198A1A8A09C0198E1A8E1B8E1C8E04C01B
S1132B401B821C821D821E820F5F1F4F02151305FC
S1132B5009F0C8CD4B845C84D4014D925C921197EA
S1132B604F80588469847A8412964D925D926D9256
S1132B707C9215978F859889A989BA89F4018783EE
S1132B809087A187B2874F88588C438654864B8898
S1132B905C886D887E88458656866786708A898DAE
S1132BA09A8DAB8DBC8D828B938BA48BB58B8B81D3
S1132BB09C81AD81BE81868B978BA08FB18F4D8414
S1132BC0428E5E84538EA48E6D8C658EC401A29653
S1132BD0CDBFDEBFDF91CF911F910F91FF90EF909A
S1132BE0DF90CF90BF90AF909F908F907F906F9029
S1132BF05F904F903F902F90089504C061507109E9
S1132C00810991096115710581059105B9F7089547
S1132C10CF93DF93C0E6D6E08881826088838C817D
S1132C2082608C8366E575E885E491E0E6DF8C815B
S1132C308D7F8C83DF91CF910895CF93DF93C0E68E
S1132C40D6E08881826088838C8182608C8366E58B
S1132C5075E885E491E0D1DF8C818D7F8C83DF91F1
S1132C60CF910895CF93DF93C0E6D6E08881826048
S1132C7088838C8182608C8366E575E885E491E0C5
S1132C80BCDF8C818D7F8C83DF91CF910895E0E24E
S1132C90F6E08081816080838481816084830895EB
S1132CA0E0E2F6E080818160808384818E7F84838A
S1132CB00895E0E8F6E08081806480838481806404
S1132CC0848308951F920F920FB60F92112408B6B1
S1132CD00F9218BE09B60F9219BE8F939F93AF93AC
S1132CE0BF9381E08093D2208093D1208091CD2026
S1132CF09091CE20A091CF20B091D0200196A11D1B
S1132D00B11D8093CD209093CE20A093CF20B0937B
S1132D10D020BF91AF919F918F910F9009BE0F90DA
S1132D2008BE0F900FBE0F901F90189504C06150FD
S1132D307109810991096115710581059105B9F739
S1132D400895E0E4F6E080EB818390E49283848349
S1132D5083E58093C00882E08093610608958093A0
S1132D60C308E0ECF8E082818823ECF708958FEF44
S1132D70F6DF8091C30808951F93CF93DF9312E089
S1132D8010936606ECDFF3DFC82FD0E0DC2FCC27EE
S1132D90EEDFC80FD11D1093650666ED74E180E087
S1132DA090E0C4DFCE01DF91CF911F910895CF93BE
S1132DB0C2E0C09366068EE1D2DFC093650666E585
S1132DC070ED80E090E0B2DF82EAD6DF80938C235E
S1132DD090938D2384EAD0DF809390239093912362
S1132DE086EACADF80938E2390938F2388EAC4DF18
S1132DF080939623909397238AEABEDF809394234B
S1132E00909395238CEAB8DF809392239093932335
S1132E10CF9108958F929F92AF92BF92CF92DF92FB
S1132E20EF92FF921F93CF93DF930F2EF6E6EF2ED0
S1132E30F6E0FF2EF02D12E0F701108390DFC5E6D7
S1132E40D6E0188366E570ED80E090E06FDFF7016F
S1132E50108380E084DF8BDFC82ED12CE12CF12C91
S1132E6056019924882483DFC82ED12CE12CF12C1F
S1132E70FE2CED2CDC2CCC24C80CD91CEA1CFB1C2D
S1132E8076DF1883A7019601280F311D411D511DBE
S1132E90CA01B901DF91CF911F91FF90EF90DF90AC
S1132EA0CF90BF90AF909F908F9008952F923F92B4
S1132EB04F925F926F927F928F929F92AF92BF9246
S1132EC0CF92DF92EF92FF920F931F93CF93DF93F2
S1132ED0CDB7DEB76497CDBFDEBF88E49BDF2B019F
S1132EE03C0188E597DF2091942330919523890153
S1132EF020E030E0322F212F102F00276B017C01BE
S1132F00C01AD10AE20AF30AC982DA82EB82FC828D
S1132F10FF0CCC08DC2C7601CD82DE82EF82F886B1
S1132F2080918E2390918F237C0100E010E020E0BB
S1132F3030E0A9018D87FE860F87188B298B3A8B89
S1132F404B8B5C8BA980BA80CB80DC80ED80FE2C1F
S1132F500E2D1E2D2D853E8540E050E060E070E092
S1132F6080E090E00E944424B22FF32FE42F952EAA
S1132F70862E372EA82EB92EA0E00E94EA245CF4F7
S1132F80AFE70E94D524B22FF32FE42F952E862E7F
S1132F90372EA82EB92E2B2F3F2F4E2F592D682DAB
S1132FA0732D8A2D9B2D07E00E94AE24822E932E32
S1132FB04A875987B62FA72FF82FE92FA0908C2383
S1132FC0B0908D232A2D3B2D40E050E060E070E06E
S1132FD080E090E000E10E949524A22EB32EC42E3E
S1132FE0D52EE62EF72E082F192F282D392D4A8598
S1132FF059856B2F7A2F8F2F9E2F0E94CC2412017C
S11330002301A22CB32CC42CD52CE12CF12C00E0F0
S113301010E00E944424122F3A874987B52FF62FD7
S1133020E72F782E892EA0E00E94EA2484F4215010
S11330303109404E5F4F6F4F7F4F8F4F9F4F122F7D
S11330403A874987B52FF62FE72F782E892E212F1F
S11330503A8549855B2F6F2F7E2F872D982D05E1AB
S11330600E94AE24622E732E842E952E69877A8751
S11330708B879C8740919623509197236A01E12C7A
S1133080F12C00E010E098014D87DE86EF86F88A87
S1133090098B1A8B2B8B3C8BA980BA80CB80DC806C
S11330A0ED80FE2C0E2D1E2D2D853E8540E050E03A
S11330B060E070E080E090E00E944424B22FF32F9F
S11330C0E42F352E262E7983482E592EA0E00E9417
S11330D0EA245CF4AFE30E94D524B22FF32FE42F4B
S11330E0352E262E7983482E592E2B2F3F2F4E2FE7
S11330F0532D622D7981842D952D06E00E94AE24F6
S1133100222E332E442E552EB62FA72FF82FE92F1B
S1133110209190233091912359013B2D40E050E0C0
S113312060E070E080E090E001E10E949524A22E2E
S1133130B32EC42ED52EE62EF72E082F192F222DAE
S1133140332D442D552D6B2F7A2F8F2F9E2F0E94B8
S1133150CC24A22EB32EC42ED52EE62EF72E082F65
S1133160192F262D372D482D592D69857A858B8564
S11331709C850E94E124122F3D834983B52FF62FAD
S1133180E72F782E892EA0E00E94EA2484F42150AF
S113319030484F4F5F4F6F4F7F4F8F4F9F4F122FCE
S11331A03D834983B52FF62FE72F782E892E212FC3
S11331B03D8149815B2F6F2F7E2F872D982D0FE046
S11331C00E94AE24622F732F842F952F6496CDBF57
S11331D0DEBFDF91CF911F910F91FF90EF90DF90B1
S11331E0CF90BF90AF909F908F907F906F905F90A3
S11331F04F903F902F900895FF920F931F93CF937A
S1133200DF93E0E0F6E080E482838FEB8083C0E02C
S1133210D2E0FF24F394F882198280E18A8385E066
S11332208C8361E270E082E00E943A07082F10E08C
S1133230102F002760E270E082E00E943A07082B1A
S11332400C871D87F8A286E089A3DF91CF911F9197
S11332500F91FF900895CF93DF93E0E0F2E080A117
S1133260806880A383A18823E9F3E0E0F2E013A25D
S1133270C4A1D5A1DF93CF938DE290E29F938F9366
S11332800E948326BE0180E090E0BED422EA3CE6A0
S113329040E05AE38CD525E230E64FEA5DE3B6D34D
S11332A00F900F900F900F90DF91CF9108958F9210
S11332B09F92AF92BF92CF92DF92EF92FF92CBDFB9
S11332C06B017C0120E030E44CE156E470D54B0105
S11332D05C0123E333E343E550E4C701B60196D32D
S11332E09B01AC01C501B401F6D32BE530EF43E8F3
S11332F05CE3F1D31CD59B01AC0160E070E988E785
S113330095E4E9D355D480D4FF90EF90DF90CF902B
S1133310BF90AF909F908F900895CF93DF93EB0170
S11333200E940C108883DF91CF9108950C940410AF
S11333300895CF93DF93CDB7DEB72797CDBFDEBF18
S1133340E0E6F6E088E081838583E0E4F6E08183CB
S1133350858380EA99E0809382239093832386E98E
S113336099E180938023909381238DE899E1809360
S11333707E2390937F23EDE0F0E284818D83858129
S11333808E8386818F8380819181A281B381898399
S11333909A83AB83BC8360E184E00E940B05BE0189
S11333A06F5F7F4F80EA99E00E94251161E275E02A
S11333B08AE395E00E94FD25E6E0F0E284818D83B6
S11333C085818E8386818F8380819181A281B3815F
S11333D089839A83AB83BC8360E183E00E940B05FD
S11333E0BE016F5F7F4F80EA98E00E942511279607
S11333F0CDBFDEBFDF91CF9108951F920F920FB61C
S11334000F92112408B60F9218BE09B60F9219BE76
S11334100BB60F921BBE2F933F934F935F936F9303
S11334207F938F939F93AF93BF93EF93FF9380EA20
S113343099E00E940C1080939823E09198238E2F9A
S1133440EE0F990BAA0BBB0BFC01B197EF33F105FF
S1133450A0F48827E250FF4F8F4F0C942F240E9432
S113346085030BC0D5DB09C0E8DB07C0FBDB05C067
S11334700EDC03C015DC01C01CDCFF91EF91BF9191
S1133480AF919F918F917F916F915F914F913F91F8
S11334902F910F900BBE0F9009BE0F9008BE0F9096
S11334A00FBE0F901F90189504C0615071098109D7
S11334B091096115710581059105B9F70895009782
S11334C009F45CC1803C910529F460E180E00C942E
S11334D00B050895803424E0920729F468E080E025
S11334E00C940B050895811524E0920729F464E0F7
S11334F080E00C940B050895803821E0920729F4AC
S113350062E080E00C940B050895811521E0920798
S113351029F461E080E00C940B050895803823E0E1
S1133520920729F461E081E00C940B050895803939
S113353023E0920729F461E082E00C940B050895DE
S1133540811522E0920729F462E081E00C940B05D6
S11335500895803422E0920729F462E082E00C941A
S11335600B050895811523E0920729F464E081E0B6
S11335700C940B050895803223E0920729F464E04B
S113358082E00C940B050895811528E0920729F434
S113359061E083E00C940B050895811529E09207FE
S11335A029F461E084E00C940B05089581152AE068
S11335B0920729F461E085E00C940B0508958115C8
S11335C02BE0920729F461E086E00C940B05089542
S11335D0803428E0920729F462E083E00C940B0520
S11335E00895803429E0920729F462E084E00C9481
S11335F00B05089580342AE0920729F462E085E0FF
S11336000C940B05089580342BE0920729F462E0B2
S113361086E00C940B050895803928E0920729F47C
S113362064E083E00C940B050895803929E0920747
S113363029F464E084E00C940B05089580392AE0B1
S1133640920729F464E085E00C940B050895803911
S11336502BE0920729F464E086E00C940B050895AE
S1133660803C28E0920729F468E083E00C940B0581
S11336700895803C29E0920729F468E084E00C94E2
S11336800B050895803C2AE0920729F468E085E060
S11336900C940B050895803C2BE0920729F468E014
S11336A086E00C940B050895803A28E0920729F4EB
S11336B060E183E00C940B050895803A29E09207B9
S11336C029F460E184E00C940B050895803A2AE023
S11336D0920729F460E185E00C940B050895803A83
S11336E02BE0920729F460E186E00C940B05089521
S11336F0803B28E0920729F460E283E00C940B05F8
S11337000895803B29E0920729F460E284E00C9458
S11337100B050895803B2AE0920729F460E285E0D6
S11337200C940B050895803B2BE0920729F460E28A
S113373086E00C940B050895803824E0920729F460
S113374060E483E00C940B050895803924E092072B
S113375029F460E484E00C940B050895803A24E095
S1133760920729F460E485E00C940B050895803BEE
S1133770944021F460E486E00C940B050895CF9303
S1133780DF93CDB7DEB7CB57D109CDBFDEBF0E94E3
S1133790D60480E09BE093DE80E099E090DE64E074
S11337A086E00E940B0564E084E00E940B0568E05B
S11337B083E00E940B0580EA98E081DEBADD80ECAC
S11337C098E07DDEBEDAF3DA80E092E078DE14DDA4
S11337D06DDBEC966CAF7DAF8EAF9FAFEC9710E2D4
S11337E0109361060F2EF6E6EF2EF6E0FF2EF02D75
S11337F0F701108366E570ED80E090E055DE1093EC
S1133800650666E573E288E090E04EDEF70110831A
S11338106CEA76EE86E991E047DE10E0C12CD12C0B
S113382076010F2EFFE34F2EF0E25F2EF02DCE0136
S113383001961C010F2EF0E86F2EF6E07F2EF02D7E
S113384005E505C011E003C012E001C012E02EDB63
S11338504B015C012CDDA5019401EC966CAD7DADB2
S11338608EAD9FADEC970E94AD129DD14B015C01D2
S1133870CDD126E636E646E65FE399D2E8966CAF0C
S11338807DAF8EAF9FAFE897C701B601BFD120EDE2
S11338903CEC4CEC5DE38BD29B01AC01E8966CAD47
S11338A07DAD8EAD9FADE897B2D07DD16B017C012B
S11338B080918721882309F44AC05F924F920E9425
S11338C083260F900F9080918721813009F03FC0AB
S11338D08AE490E20E949B269FB7F89485E5E7E28C
S11338E0F3E2D10101900D928A95E1F79FBF89819E
S11338F08A3079F0FE01329681E090E021912A30FD
S113390051F00196811524E09207C1F780E094E01C
S113391002C080E090E0F101E80FF91F1082F1018C
S113392001900020E9F73197AF0142195309B10121
S1133930CE018A5A9F4F0E94421310928721E49627
S11339408FADE497882319F08FB7F8948FBF66E59D
S113395071E681E590E0A8DD11111FC0F301018338
S11339600583F8E0F0930406D701C6018819990984
S1133970AA09BB090AF06BCFD701C6018955924049
S1133980A109B109873C9105A105B10508F05FCFF4
S113399081E0F3018183858302C01130B1F481E5B4
S11339A090E20E949B26FCE2CF16F1E0DF06E104E0
S11339B0F1040CF047CF82E0F30181838583F0E8C2
S11339C0F0930106F093050603C0123009F03FCFCF
S11339D081E690E20E949B26D701C60188199909C5
S11339E0AA09BB09181619061A061B060CF42CCFD3
S11339F024E682169104A104B1040CF027CF88E0D8
S1133A00809301068093050613E021CF5058BB270D
S1133A10AA270ED04DC13ED130F043D120F031F46D
S1133A209F3F11F41EF433C10EF4E095E7FB29C166
S1133A30E92F4FD180F3BA176207730784079507FC
S1133A4018F071F49EF567C10EF4E0950B2EBA2FB1
S1133A50A02D0B01B90190010C01CA01A001112490
S1133A60FF27591B99F0593F50F4503E68F11A163C
S1133A70F040A22F232F342F4427585FF3CF4695CD
S1133A8037952795A795F0405395C9F77EF41F16EF
S1133A90BA0B620B730B840BBAF09150A1F0FF0FB9
S1133AA0BB1F661F771F881FC2F70EC0BA0F621FA5
S1133AB0731F841F48F4879577956795B795F79595
S1133AC09E3F08F0B3CF9395880F08F09927EE0F27
S1133AD09795879508950CD0EBC0E3D040F0DAD0E9
S1133AE030F021F45F3F19F0CCC0511115C1CFC0A3
S1133AF0F0D098F39923C9F35523B1F3951B550BD3
S1133B00BB27AA2762177307840738F09F5F5F4FAC
S1133B10220F331F441FAA1FA9F333D00E2E3AF0ED
S1133B20E0E830D091505040E695001CCAF729D007
S1133B30FE2F27D0660F771F881FBB1F2617370756
S1133B404807AB07B0E809F0BB0B802DBF01FF2786
S1133B5093585F4F2AF09E3F510568F092C0DCC035
S1133B605F3FECF3983EDCF3869577956795B795C0
S1133B70F7959F5FC9F7880F911D9695879597F9DB
S1133B800895E1E0660F771F881FBB1F6217730754
S1133B908407BA0720F0621B730B840BBA0BEE1F69
S1133BA088F7E095089504D06894B111B5C00895DC
S1133BB098D088F09F5790F0B92F9927B751A0F06B
S1133BC0D1F0660F771F881F991F1AF0BA95C9F7AD
S1133BD012C0B13081F09FD0B1E008959CC0672F2E
S1133BE0782F8827B85F39F0B93FCCF3869577955D
S1133BF06795B395D9F73EF4909580957095619546
S1133C007F4F8F4F9F4F0895E89409C097FB3EF470
S1133C1090958095709561957F4F8F4F9F4F992315
S1133C20A9F0F92F96E9BB279395F6958795779593
S1133C306795B795F111F8CFFAF4BB0F11F460FF53
S1133C401BC06F5F7F4F8F4F9F4F16C0882311F0AB
S1133C5096E911C0772321F09EE8872F762F05C0BF
S1133C60662371F096E8862F70E060E02AF09A955A
S1133C70660F771F881FDAF7880F9695879597F94F
S1133C80089597F99F6780E870E060E008959FEFDA
S1133C9080EC089500240A941616170618060906DF
S1133CA0089500240A9412161306140605060895AE
S1133CB0092E0394000C11F4882352F0BB0F40F436
S1133CC0BF2B11F460FF04C06F5F7F4F8F4F9F4F76
S1133CD0089557FD9058440F551F59F05F3F71F0F8
S1133CE04795880F97FB991F61F09F3F79F087955F
S1133CF00895121613061406551FF2CF4695F1DFE8
S1133D0008C0161617061806991FF1CF8695710577
S1133D10610508940895E894BB2766277727CB01AB
S1133D2097F908950EF023C1B2CF6894AACFD9DFD2
S1133D30C8F39923D1F3C6F3DF93CF931F930F9363
S1133D40FF92C92FDD2788232AF02197660F771F5A
S1133D50881FDAF720E030E040E85FEB9FE3883922
S1133D6020F0803E30F021968F7751DEEAE7F2E0D2
S1133D7003C04DDEE7EAF2E008D18B01BE01EC019D
S1133D80FB2E6F5771097595771F880B990B3EDFD2
S1133D9028E132E741E35FE316D0AF2D9801AE018D
S1133DA0FF900F911F91CF91DF9142DE81CF0BD015
S1133DB07FCF70DF28F075DF18F0952309F061CF0D
S1133DC066CF1124A9CF85DFA0F3959FD1F3950F7A
S1133DD050E0551F629FF001729FBB27F00DB11D8B
S1133DE0639FAA27F00DB11DAA1F649F6627B00D1B
S1133DF0A11D661F829F2227B00DA11D621F739F04
S1133E00B00DA11D621F839FA00D611D221F749F11
S1133E103327A00D611D231F849F600D211D822F58
S1133E20762F6A2F11249F5750408AF0E1F088239F
S1133E304AF0EE0FFF1FBB1F661F771F881F9150AC
S1133E405040A9F79E3F510570F01BCF65CF5F3FEF
S1133E50ECF3983EDCF3869577956795B795F795DF
S1133E60E7959F5FC1F7FE2B880F911D9695879567
S1133E7097F90895FA01EE0FFF1F309621053105D9
S1133E8099F16115710561F48038BFE39B0749F12D
S1133E9068949038810561F08038BFEF9B0741F04A
S1133EA0992342F5FF3FE1053105210511F1E8941D
S1133EB00894E795D901AA2329F4AB2FBE2FF85F04
S1133EC0D0F310C0FF5F70F4A695E0F7F73950F017
S1133ED019F0FF3A38F49F779F930CD00F9007FCAA
S1133EE0905808953EF0D3CE60E070E080E89FE300
S1133EF008954FE79F775F934F933F932F9317DF77
S1133F002F913F914F915F9152DF05C019F40EF04C
S1133F10B8CE01CFBCCEE5DEC8F39638C0F707F8BB
S1133F200F92E8942BE33AEA48EB5FE74EDF0F92F7
S1133F300F920F924DB75EB70F9289D0E4EDF2E085
S1133F4024D04F915F91EF91FF91E595EE1FFF1FF4
S1133F5049F0FE57E0684427EE0F441FFA95E1F755
S1133F604195550B40D00F9007FE34C008959F3FF4
S1133F7031F0915020F4879577956795B795880F20
S1133F80911D9695879597F90895DF93CF931F9385
S1133F900F93FF92EF92DF927B018C01689405C02E
S1133FA0DA2EEF0110DFFE01E894A59125913591F9
S1133FB045915591AEF3EF013BDDFE019701A80158
S1133FC0DA9479F7DF90EF90FF900F911F91CF91E2
S1133FD0DF9108959B01AC0160E070E080E89FE30D
S1133FE07ACD4FCEC4CF7DDEE8F39923D9F3940F75
S1133FF0511DBBF39150504094F059F0882332F096
S1134000660F771F881F91505040C1F79E3F51059E
S113401044F7880F911D9695879597F908955F3F0A
S1134020ACF0983E9CF0BB27869577956795B7953D
S113403008F4B1609395C1F7BB0F58F711F460FF12
S1134040E8CF6F5F7F4F8F4F9F4FE3CF65CEFA016D
S1134050DC01AA0FBB1F9B01AC01BF5728F4222728
S11340603327442750781FC0B75188F4AB2F00245E
S1134070469537952795011CA395D2F3002069F046
S1134080220F331F441FB395DAF30DD0BFCC613038
S11340907105A0E88A07B94630F49B01AC01662794
S11340A0772788279078309621F0208331834283C4
S11340B0538308952F923F924F925F926F927F9213
S11340C08F929F92AF92BF92CF92DF92EF92FF9224
S11340D00F931F93CF93DF93CDB7DEB76097CDBF18
S11340E0DEBF7C011B016A01FC01168217828381F9
S11340F081FF2AC39E012F5F3F4F3901F70193814E
S1134100F10193FD859193FF81911F01882309F4A7
S113411017C3853239F493FD859193FF81911F0173
S1134120853231F4B70190E0B2D556016501E6CF8E
S113413010E0512C912CFFE1F915D8F08B3279F075
S113414038F4803279F08332A1F4F92DF0612EC075
S11341508D3261F0803369F4292D21602DC0392D11
S11341603260932E892D8460982E2AC0E92DE86050
S113417015C097FC2DC020ED280F2A3088F496FE38
S113418006C03AE0139F200D1124122F19C08AE0B3
S1134190589E200D1124522EE92DE0629E2E10C04F
S11341A08E3231F496FCCCC2F92DF0649F2E08C0F7
S11341B08C3621F4292D2068922E02C0883641F4D1
S11341C0F10193FD859193FF81911F018111B3CF7B
S11341D09BEB980F933020F4992D9061805E07C07B
S11341E09BE9980F933008F059C1992D9F7E96FF53
S11341F016E09F73992E853619F49064992E08C0A1
S1134200863621F4392F3068932E02C011111150D3
S113421097FE07C01C3350F444244394410E27E016
S11342200BC0183038F027E017E005C027E09CE306
S1134230492E02C0212F412C560184E0A80EB11C46
S1134240F6016081718182819381042DA301E7D3FA
S11342506C01F981FC87F0FF02C0F3FF06C091FCFA
S113426006C092FE06C000E205C00DE203C00BE2E8
S113427001C000E08C858C7019F0011143C280C22A
S113428097FE10C04C0CFC85F4FF04C08A81813376
S113429009F44A94141474F528E0241578F588E098
S11342A0482E2CC096FC2AC0812F90E08C159D05C9
S11342B09CF03CEFC3163FEFD30674F0892D806861
S11342C0982E0AC0E2E0F0E0EC0FFD1FE10FF11DB3
S11342D08081803319F411501111F4CF97FE0EC070
S11342E044244394410E812F90E0C816D9062CF43F
S11342F01C1904C04424439401C010E097FE06C076
S11343001C141D0434F4C601019605C085E090E038
S113431002C081E090E001110196112331F0212FB8
S113432030E02F5F3F4F820F931F252D30E082171F
S1134330930714F4581A01C0512C892D897041F443
S1134340552031F0B70180E290E0A1D45A94F8CF1F
S1134350002321F0B701802F90E099D493FC08C08A
S1134360552031F0B70180E390E091D45A94F8CF0E
S113437097FE4AC04601D7FE02C0812C912CC6018B
S113438088199909F301E80FF91FED87FE87960153
S1134390241931092F87388B012F10E011950195CD
S11343A011093FEF8316930621F4B7018EE290E0E2
S11343B06ED4C814D9044CF08F8598898815990552
S11343C024F4ED85FE85818101C080E3F1E08F1A3C
S11343D091082D853E852F5F3F4F2D873E878016A0
S11343E0910624F0B70190E052D4DBCFC814D9046D
S11343F041F49A81963320F4953319F43C8534FFC3
S113440081E3B70190E048C08A81813319F09C852B
S11344109F7E9C87B70190E03AD4111105C094FCAB
S113442016C085E690E015C0B7018EE290E02FD467
S11344301E5F82E001E0080FF301E80FF11D8081A7
S1134440B70190E024D4802F0113F4CFE8CF85E4A2
S113445090E0B7011CD4D7FC06C0C114D10441F4C8
S1134460EC85E4FF05C0D194C194D1088DE201C06C
S11344708BE2B70190E00BD480E32AE0C216D104AA
S11344802CF08F5FFAE0CF1AD108F7CFB70190E094
S1134490FED3B701C601C096FAD349C1833631F0C1
S11344A0833779F0833509F052C01FC0560132E0DA
S11344B0A30EB11CF6018081898301E010E0630141
S11344C011C05601F2E0AF0EB11CF601C080D180DC
S11344D096FE03C0612F70E002C06FEF7FEFC6014C
S11344E081D38C01F92DFF7713C0560122E0A20E6F
S11344F0B11CF601C080D18096FE03C0612F70E02C
S113450002C06FEF7FEFC60162D38C01F92DF06812
S11345109F2EF3FD18C0852D90E00817190798F415
S1134520B70180E290E0B3D35A94F5CFF60197FC3B
S1134530859197FE81916F01B70190E0A8D3511046
S11345405A94015011090115110581F7F0C0843600
S113455011F0893659F5560197FE09C024E0A20EE0
S1134560B11CF60160817181828193810AC0F2E0FD
S1134570AF0EB11CF60160817181072E000C880B0F
S1134580990BF92DFF769F2E97FF09C09095809582
S1134590709561957F4F8F4F9F4FF0689F2E2AE053
S11345A030E0A301F8D3C82EC6183EC0092D8537C4
S11345B021F40F7E2AE030E01DC0097F8F3691F090
S11345C018F4883559F0BCC0803719F0883711F0D9
S11345D0B7C0006104FF09C0046007C094FE08C0AE
S11345E0066006C028E030E005C020E130E002C0EB
S11345F020E132E0560107FF09C084E0A80EB11C97
S1134600F601608171818281938108C0F2E0AF0E6E
S1134610B11CF6016081718180E090E0A301BBD3FD
S1134620C82EC6180F77902E96FE0BC0092D0E7F4C
S1134630C11650F494FE0AC092FC08C0092D0E7EE7
S113464005C0DC2C092D03C0DC2C01C0D12E04FFD5
S11346500DC0FE01EC0DF11D8081803311F4097E43
S113466009C002FF06C0D394D39404C0802F867877
S113467009F0D39403FD10C000FF06C01C2DD5140F
S113468078F4150D1D190CC0D51450F4B70180E24F
S113469090E0FDD2D394F8CFD51410F45D1801C086
S11346A0512C04FF0FC0B70180E390E0F0D202FF69
S11346B016C001FD03C088E790E002C088E590E0E1
S11346C0B7010CC0802F867851F001FF02C08BE245
S11346D001C080E207FD8DE2B70190E0D8D2C11697
S11346E030F4B70180E390E0D2D21150F8CFCA94ED
S11346F0F301EC0DF11D8081B70190E0C8D2C11027
S1134700F6CF15C0F4E0F51550F584E0581A93FE81
S11347101EC0011125C02C8523FF27C00CEF12E019
S1134720392D3071932EF8018491811121C05520C7
S113473009F4FCCCB70180E290E0A9D25A94F7CFF7
S1134740F7018681978123C08FEF9FEF20C0B701C7
S113475080E290E09CD25A945110F9CFDACF512CD8
S1134760B701802F90E093D2D6CF00E013E0D8CFEA
S113477091108052B70190E08AD20F5F1F4FD3CFC0
S113478023E0251510F483E0C1CF512CC4CF6096EB
S1134790CDBFDEBFDF91CF911F910F91FF90EF90BE
S11347A0DF90CF90BF90AF909F908F907F906F904D
S11347B05F904F903F902F900895AA1BBB1B51E12F
S11347C007C0AA1FBB1FA617B70710F0A61BB70B7D
S11347D0881F991F5A95A9F780959095BC01CD0122
S11347E00895A1E21A2EAA1BBB1BFD010DC0AA1F2E
S11347F0BB1FEE1FFF1FA217B307E407F50720F046
S1134800A21BB30BE40BF50B661F771F881F991FC0
S11348101A9469F760957095809590959B01AC0109
S1134820BD01CF010895052E97FB16F400940FD017
S113483057FD05D0D6DF07FC02D046F408C05095DA
S11348404095309521953F4F4F4F5F4F0895909578
S11348508095709561957F4F8F4F9F4F0895EE0F10
S1134860FF1F881F8BBF0790F691E02D1BBE199484
S1134870BDD0B7FF0895821B930B0895B7FFC5C041
S1134880C4D0821B930B0895DF93CF931F930F9390
S11348909A9DF02D219FF00D8B9DF00D8A9DE02DAA
S11348A0F10D039FF00D029FE00DF11D4E9DE00DF3
S11348B0F11D5E9DF00D4F9DF00D7F936F93BF92A0
S11348C0AF925F934F93D50191D08B01AC01D70187
S11348D08DD0EB01E80FF91FD6011FD02F913F9126
S11348E0D60184D0C60FD71FE81FF91FAF91BF911F
S11348F014D02F913F917AD0C60FD71FE81FF91F0C
S1134900D60174D0E60FF71F9801BE01CF01112420
S11349100F911F91CF91DF91089568D0460F571FD3
S1134920C81FD91F08F4319608950F93083090F0EA
S1134930982F872F762F652F542F432F322F22271E
S11349400850F4CF220F331F441F551F661F771FD3
S1134950881F991F0A95B2F70F91089597FB10F8D5
S1134960169400080F93083098F00850232F342F22
S1134970452F562F672F782F892F902DF4CF05942C
S11349809795879577956795579547953795279583
S11349900A95AAF70F9108952A0D3B1D4C1D5D1D24
S11349A06E1D7F1D801F911F08950024A7FD009494
S11349B02A0F301D401D501D601D701D801D901D4F
S11349C008952A193B094C095D096E097F09800B7A
S11349D0910B08950024A7FD00942A173005400583
S11349E0500560057005800590050895A29FB001EB
S11349F0B39FC001A39F700D811D1124911DB29F0F
S1134A00700D811D1124911D0895F0DFA59F900D57
S1134A10B49F900DA49F800D911D112408952830FA
S1134A2008F027E03327DA01990F311D87FD9160E3
S1134A3000966105710539F432602E5F3D9330E3D1
S1134A402A95E1F708959F3F30F08038710561059C
S1134A5009F03C5F3C5F3D93913008F08068911D04
S1134A60DF93CF931F930F93FF92EF92192F987FA9
S1134A709695E92F96959695E90FFF27E25AFC4FF4
S1134A8099273327EE24FF24A701E7010590089412
S1134A90079428F4360FE71EF81E491F511D660FB0
S1134AA0771F881F991F0694A1F70590079428F48F
S1134AB0E70EF81E491F561FC11D770F881F991F47
S1134AC0661F0694A1F70590079428F4F80E491F71
S1134AD0561FC71FD11D880F991F661F771F069485
S1134AE0A1F70590079420F4490F561FC71FD81F3C
S1134AF0990F661F771F881F0694A9F78491109554
S1134B00177041F0D695C79557954795F794E79454
S1134B101A95C1F7E4E0F3E0689415901591359186
S1134B206591959105907FE27395E118F10A430B25
S1134B30560BC90BD009C0F7E10CF11E431F561FD9
S1134B40C91FD01D7EF4703311F48A95E6CFE89422
S1134B50015030F0080F0AF40027021708F4202F40
S1134B602395022F7A3328F079E37D932A95E9F788
S1134B7010C07D932A9589F6069497956795379585
S1134B8017951794E118F10A430B560BC90BD0097A
S1134B9098F023957E9173957A3308F070E37C93B3
S1134BA02013B8F77E9170617D9330F0839571E3A3
S1134BB07D9370E32A95E1F71124EF90FF900F9114
S1134BC01F91CF91DF91992787FD90950895FC015E
S1134BD00590615070400110D8F7809590958E0F24
S1134BE09F1F0895FC016150704001900110D8F797
S1134BF0809590958E0F9F1F08950F931F93CF93C9
S1134C00DF93009731F46115710519F480E090E0A9
S1134C1039C08B01EC016EE070E081E090E019D1C5
S1134C20FC01892B99F380E883830115110571F048
S1134C300287138781E883838091992390919A2333
S1134C40892B21F4E0939923F0939A232097C9F0B8
S1134C50C087D18783818260838380919B239091D5
S1134C609C23892B71F4E0939B23F0939C238091E4
S1134C709D2390919E23892B21F4E0939D23F0930F
S1134C809E23CF01DF91CF911F910F9108950F9330
S1134C901F93CF93DF93FB01238121FD03C08FEF8B
S1134CA09FEF2CC022FF16C0468157812481358195
S1134CB04217530744F4A081B1819D012F5F3F4FF8
S1134CC0208331838C93268137812F5F3F4F268346
S1134CD0378314C08B01EC01FB010084F185E02DC6
S1134CE01995892BE1F6D80116968D919C91179709
S1134CF0019616968D939C931797CE01DF91CF91D1
S1134D001F910F910895CF93DF93CDB7DEB7AE0116
S1134D104A5F5F4FFA0161917191AF0180919B23CA
S1134D2090919C23C7D9DF91CF91089560919B23E3
S1134D3070919C23ACCF0F931F93CF93DF93E0919B
S1134D409B23F0919C23238121FF1BC08C01D0E085
S1134D50C0E0F80181918F0160919B2370919C23A5
S1134D60DB011896ED91FC911997882331F0199580
S1134D70892B79F3DFEFCFEFECCF8AE01995892BFC
S1134D8019F08FEF9FEF02C08D2F9C2FDF91CF91F1
S1134D901F910F910895FA01AA27283051F120316B
S1134DA081F1E8946F936E7F6E5F7F4F8F4F9F4FBB
S1134DB0AF4FB1E03ED0B4E03CD0670F781F891FFD
S1134DC09A1FA11D680F791F8A1F911DA11D6A0FCB
S1134DD0711D811D911DA11D20D009F468943F917E
S1134DE02AE0269F11243019305D3193DEF6CF017D
S1134DF00895462F4770405D4193B3E00FD0C9F743
S1134E00F6CF462F4F70405D4A3318F0495D31FDAF
S1134E104052419302D0A9F7EACFB4E0A695979502
S1134E20879577956795BA95C9F7009761057105D8
S1134E3008959B01AC010A2E069457954795379522
S1134E402795BA95C9F7620F731F841F951FA01D7C
S1134E5008950F931F93CF93DF93869F8001879FBD
S1134E60100D969F100D1124C8010DD0EC01009770
S1134E7021F0A80160E070E027D1CE01DF91CF914D
S1134E801F910F9108950F931F93CF93DF93823057
S1134E90910510F482E090E0E091A123F091A22327
S1134EA020E030E0A0E0B0E0309719F1408151817A
S1134EB00281138148175907C8F08417950769F4CC
S1134EC0109731F012960C93129713961C9327C0E7
S1134ED00093A1231093A22322C02115310519F0B8
S1134EE04217530718F49A01BD01EF01DF01F801DD
S1134EF0DBCF21153105F9F0281B390B243031059E
S1134F0080F48A819B816115710521F0FB01828304
S1134F10938304C08093A1239093A223FE0132962D
S1134F2044C0FE01E20FF31F819391932250310993
S1134F30288339833AC020919F233091A023232BC7
S1134F4041F4209102203091032020939F23309339
S1134F50A02320910020309101202115310541F436
S1134F602DB73EB74091042050910520241B350BEA
S1134F70E0919F23F091A023E217F307A0F42E1BE6
S1134F803F0B2817390778F0AC014E5F5F4F2417A9
S1134F90350748F04E0F5F1F40939F235093A02383
S1134FA08193919302C0E0E0F0E0CF01DF91CF91D3
S1134FB01F910F910895CF93DF93009709F481C057
S1134FC0FC01329712821382A091A123B091A223F3
S1134FD0109781F420813181820F931F20919F23A8
S1134FE03091A0232817390751F5E0939F23F093BC
S1134FF0A02367C0ED0120E030E0CE17DF0740F4C6
S11350004A815B819E0141155105F1F0EA01F5CF1A
S1135010C283D38340815181840F951FC817D90758
S113502059F488819981840F951F02968083918316
S11350308A819B81828393832115310529F4E0932E
S1135040A123F093A2233DC0E901EA83FB834991A4
S11350505991C40FD51FEC17FD0761F4808191812C
S1135060840F951F0296E901888399838281938135
S11350708A839B83E0E0F0E012968D919C911397D4
S1135080009719F0FD01DC01F7CF8D919C911197E8
S11350909D012E5F3F4F820F931F20919F233091DC
S11350A0A0232817390769F4309729F41092A12313
S11350B01092A22302C012821382A0939F23B09362
S11350C0A023DF91CF910895DC0101C06D9341507D
S10D50D05040E0F70895F894FFCF74
S11350DA0000A3232000802500000300018025008E
S11350EA00030001792075206E6F20776F726B00C0
S11350FA2447504747002447504747410041444307
S113510A2072656164696E67203D2025750A00492D
S113511A7320697420796F753F0047474121212123
S113512A00466C6967687420537461746520312081
S113513A00466C6967687420537461746520322070
S105514A00005F
S9030000FC
