S019000043616E5361742050726F626520436F64652E737265631E
S1130000D4C10000F8C100000C94C222F4C1000065
S1130010F2C10000F0C10000EEC10000ECC100001C
S1130020EAC10000E8C10000E6C10000E4C100002C
S1130030E2C1000078C200000C941B26DCC1000061
S1130040DAC10000D8C10000D6C10000D4C100004C
S1130050D2C10000D0C10000CEC10000CCC100005C
S1130060CAC10000C8C10000C6C10000C4C100006C
S1130070C2C10000C0C10000BEC10000BCC100007C
S1130080BAC10000B8C10000B6C10000B4C100008C
S1130090B2C10000B0C10000AEC100000C94EB1767
S11300A00C9428180C9465180C94A218A4C1000090
S11300B0A2C10000A0C100009AC200009CC10000BF
S11300C09AC1000098C1000096C1000094C10000CC
S11300D092C1000090C100008EC100008CC10000DC
S11300E08AC1000088C1000086C1000084C10000EC
S11300F082C1000080C100007EC100007CC10000FC
S11301007AC1000078C1000076C1000074C100000B
S113011072C1000070C100006EC100000C94F7169B
S11301200C9434170C9471170C94AE1764C100002E
S11301302CC200000C942F265EC100005CC100009C
S11301405AC1000058C1000056C1000054C100004B
S113015052C1000050C100004EC100004CC100005B
S11301600C94B32648C1000046C100004CC30000F3
S113017042C10000ABC300003EC100003CC100000E
S11301803AC1000038C1000036C1000034C100008B
S113019032C1000030C100002EC100002CC100009B
S11301A02AC1000028C1000026C1000052C200007C
S11301B022C1000020C100001EC100001CC10000BB
S11301C01AC1000018C1000016C1000014C10000CB
S11301D012C1000010C100000EC100000CC10000DB
S11301E00AC1000008C1000006C1000004C10000EB
S11301F002C1000000C10000FEC00000E526062781
S1130200EB26EF26F326FA26062700270327FD26EA
S11302100627062706270627062706270627062772
S11302200627062706270627062706270627062762
S113023006270627062706270627E8260627062771
S11302400627062706270627062706270627062742
S11302500627062706270627062706270627062732
S11302600627062706270627062706270627062722
S1130270062706270627F7260527084AD73B3BCE3D
S1130280016E84BCBFFDC12F3D6C74319ABD568391
S11302903DDA3D00C77F11BED9E4BB4C3E916BAA49
S11302A0AABE000000803F006E616E00696E6600A9
S11302B000407A10F35A00A0724E18090010A5D419
S11302C0E80000E87648170000E40B54020000CA76
S11302D09A3B000000E1F5050000809698000000BC
S11302E040420F000000A08601000000102700001B
S11302F00000E803000000006400000000000A00A1
S1130300000000000100000000002C76D888DC67A3
S11303104F0823DFC1DFAE59E1B1B796E5E3E453FB
S1130320C63AE651997696E8E6C28426EB898C9B18
S113033062ED407C6FFCEFBC9C9F40F2BAA56FA5B8
S1130340F490055A2AF75C936B6CF9676DC11BFC3A
S1130350E0E40D47FEF520E6B500D0ED902E030055
S1130360943577050080841E080000204E0A0000A2
S113037000C80C333333330F986E12831141EF8D61
S11303802114893BE65516CFFEE6DB18D1844B38A1
S11303901BF77C1D901DA4BBE424203284725E22D2
S11303A08100C9F124ECA1E53D2711241FBECFEF44
S11303B0CDBFDFE3DEBF00E00CBF18BE19BE1ABE1E
S11303C01BBE11E2A0E0B0E2E0E5FFE600E00BBFF7
S11303D002C007900D92A434B107D9F71BBE25E2E1
S11303E0A4E4B1E201C01D92AF36B207E1F70E9466
S11303F0A1280C94A63704CECF93DF93E091442137
S1130400F0914521848183FF08C08860848383E060
S1130410838386EF80934E2183C0982F947131F0AB
S113042083E083838FEF80934E217AC086FF43C09D
S1130430C4E4D1E2AA81BB818C819D8114962D9163
S11304403C911597821793076CF49C012F5F3F4FE3
S11304502093482130934921A80FB91F11968C91FC
S113046087835EC080914A2190914B2118962D91EB
S11304703C91199782179307C8F420914C212223A9
S113048021F08681816086834BC016962D913C9124
S11304901797AC014F5F5F4F40934A2150934B2114
S11304A0D901A80FB91F8C9187833AC083E0838355
S11304B010924E2135C0882384F5A4E4B1E212964B
S11304C0CD91DC91139716968D919C911797288561
S11304D0398582179307D8F46E817F819C012F5F41
S11304E03F4F20934A2130934B214781DB01A80FD2
S11304F0B91F4C93888599852817390718F482E029
S113050083830EC087E0838310924E2109C083E069
S1130510838389EF80934E2103C08BEF80934E2118
S1130520DF91CF9108951F920F920FB60F9211246D
S113053008B60F9218BE09B60F9219BE0BB60F92E9
S11305401BBE2F933F934F935F936F937F938F9330
S11305509F93AF93BF93EF93FF934EDFFF91EF9180
S1130560BF91AF919F918F917F916F915F914F91C7
S11305703F912F910F900BBE0F9009BE0F9008BEB4
S11305800F900FBE0F901F9018951F920F920FB6E9
S11305900F92112408B60F9218BE09B60F9219BE15
S11305A00BB60F921BBE2F933F934F935F936F93A2
S11305B07F938F939F93AF93BF93EF93FF931CDF2E
S11305C0FF91EF91BF91AF919F918F917F916F9127
S11305D05F914F913F912F910F900BBE0F9009BEE9
S11305E00F9008BE0F900FBE0F901F9018951F928A
S11305F00F920FB60F92112408B60F9218BE09B6C7
S11306000F9219BE0BB60F921BBE2F933F934F93BD
S11306105F936F937F938F939F93AF93BF93EF9366
S1130620FF93EADEFF91EF91BF91AF919F918F917C
S11306307F916F915F914F913F912F910F900BBEDE
S11306400F9009BE0F9008BE0F900FBE0F901F9021
S113065018951F920F920FB60F92112408B60F929D
S113066018BE09B60F9219BE0BB60F921BBE2F937C
S11306703F934F935F936F937F938F939F93AF9326
S1130680BF93EF93FF93B8DEFF91EF91BF91AF91CA
S11306909F918F917F916F915F914F913F912F9196
S11306A00F900BBE0F9009BE0F9008BE0F900FBEA7
S11306B00F901F901895FC01DB0114968C91858393
S11306C088EB818381E08483E4E4F1E2118612867D
S11306D0E0EAF0E0828182608283789480E0089589
S11306E0CF93DF931F92CDB7DEB79C01FB01892B1B
S11306F009F451C0309709F450C0928580914D217E
S1130700882319F09923F1F34AC08FB78983F894A9
S11307108981A4E4B1E291E019969C93199790E839
S11307201A969C931A978FBF2D933C931197129608
S11307306D937C93139714961D921C92159716969D
S11307401D921C92179718964C938081880F648190
S11307507581672B11F4411103C0F901868303C02D
S11307608160F9018683E4E4F1E292859038E9F34B
S1130770F90184818370813049F0A4E4B1E2ED9100
S1130780FC911197848183708130C9F7E4E4F1E22C
S11307908285118605C088EF03C088EF01C086EF0B
S11307A00F90DF91CF91089563E080E890E00E947C
S11307B0DF18E0E8F0E0828180FDFDCF6BE281E8A4
S11307C090E00E94DF18E0E8F0E0828180FDFDCF38
S11307D0A895FFCF84E18093B3091092322510923B
S11307E03D23089540E051E065E973E285E393E237
S11307F00E94EA1540E450E065E974E285ED94E274
S11308000C94EA1508951F920F920FB60F921124BB
S113081008B60F9218BE09B60F9219BE0BB60F9206
S11308201BBE2F938F939F93AF93BF93EF93FF932D
S11308309091B00980919423813051F42091322514
S1130840E22FF0E0E352FB4D90832F5F209332259B
S11308509A3039F480933D231092942310923423D8
S113086023C0943211F48823D9F08091342388234F
S1130870D9F08530B1F49734A1F481E080939423C6
S113088085E0E0E4F0E2ADEDB4E201900D928A95EA
S1130890E1F785E08093322586E08093342304C019
S11308A081E08F5F80933423FF91EF91BF91AF91EB
S11308B09F918F912F910F900BBE0F9009BE0F90B7
S11308C008BE0F900FBE0F901F9018951F920F92A5
S11308D00FB60F92112408B60F9218BE09B60F92E4
S11308E019BE0BB60F921BBE2F933F934F935F938A
S11308F06F937F938F939F93AF93BF93EF93FF93E4
S113090041E050E060EB79E085ED94E20E94061648
S113091061E070E085ED94E20E945616FF91EF913C
S1130920BF91AF919F918F917F916F915F914F9103
S11309303F912F910F900BBE0F9009BE0F9008BEF0
S11309400F900FBE0F901F90189560910620709124
S11309500720809108209091092044E60C94C5203A
S113096008952F923F924F925F926F927F928F924F
S11309709F92AF92BF92CF92DF92EF92FF920F932A
S11309801F93CF93DF93CDB7DEB7EB97CDBFDEBF19
S11309908AA39BA3409106205091072060910820D0
S11309A070910920CE0101960E94FD2085E1FE018F
S11309B03196A4E3B5E201900D928A95E1F70F2EEA
S11309C0F4E32F2EF5E23F2EF02DF10186818F9373
S11309D085818F9384818F9383818F9382818F9379
S11309E081818F9386E490E29F938F930E94F335E5
S11309F0F101018512850B5E1F4F01871287638504
S1130A007485072E000C880B990B0E942D2E2DEC5B
S1130A103CEC4CE850E40E94C72C0E94FA2D2B01B8
S1130A203C01F1016387748765857685072E000C88
S1130A30880B990B0E942D2E20E030E048E351E40E
S1130A400E94C82C0E94FA2D6E8F7F8F88A399A3D1
S1130A50EE8CFF8CF101E586F68661817281072EAA
S1130A60000C880B990B0E942D2E6B017C01609168
S1130A70102070911120072E000C880B990B0E94F6
S1130A802D2E9B01AC01C701B6010E94C82C5B014D
S1130A906C0160914F2170915021072E000C880B3E
S1130AA0990B0E942D2E6A8F7B8F8C8F9D8F2E8D9C
S1130AB03F8DB901330F880B990B0E942D2E9B019A
S1130AC0AC016A8D7B8D8C8D9D8D0E94C82C20E09D
S1130AD030E040E057E40E94C82C20E030E04AE7D0
S1130AE055E40E940D2F20E03FEF4FE757E40E94AA
S1130AF0922D20E030E04AEF54E40E94C72C6E8F20
S1130B007F8F88A399A36091512170915221072E60
S1130B10000C880B990B0E942D2E6A8F7B8F8C8F73
S1130B209D8FB201550C880B990B0E942D2E9B01B1
S1130B30AC016A8D7B8D8C8D9D8D0E94C82C20E02C
S1130B4030E040E057E40E94C82C20E030E04AE75F
S1130B5055E40E940D2F20E03FEF4FE757E40E9439
S1130B60922D20E030E04AEF54E40E94C72C6A8FB3
S1130B707B8F8C8F9D8F60910A2070910B20072EA4
S1130B80000C880B990B0E942D2E2B013C01B801FF
S1130B90110F880B990B0E942D2E9B01AC01C301F0
S1130BA0B2010E94C82C20E030E040E057E40E94EB
S1130BB0C82C20E030E04AE755E40E940D2F20E0E5
S1130BC03FEF4FE757E40E94922D20E030E04AEFD8
S1130BD054E40E94C72C2B013C01F1016389748900
S1130BE0072E000C880B990B0E942D2E6E8B7F8B89
S1130BF0888F998F6091122070911320072E000C1A
S1130C00880B990B0E942D2E9B01AC016E897F8964
S1130C10888D998D0E94C82CDC01CB01B058BF93FC
S1130C20AF939F938F93F10167857089072E000C12
S1130C30880B990B0E942D2E6E8B7F8B888F998F3A
S1130C406091162070911720072E000C880B990BC9
S1130C500E942D2E9B01AC016E897F89888D998D10
S1130C600E94C82C9F938F937F936F93F1016189A6
S1130C707289072E000C880B990B0E942D2E6E8B07
S1130C807F8B888F998F6091142070911520072E87
S1130C90000C880B990B0E942D2E9B01AC016E89D0
S1130CA07F89888D998D0E94C82C9F938F937F9301
S1130CB06F93F10165817681072E000C880B990BE7
S1130CC00E942D2E6E8B7F8B888F998F60910C20C4
S1130CD070910D20072E000C880B990B0E942D2E6D
S1130CE09B01AC016E897F89888D998D0E94C82CE7
S1130CF09F938F937F936F93F10163817481072E88
S1130D00000C880B990B0E942D2E6E8B7F8B888F85
S1130D10998F60910E2070910F20072E000C880B84
S1130D20990B0E942D2E9B01AC016E897F89888DC1
S1130D30998D0E94C82C9F938F937F936F93EE8C11
S1130D40FF8C08A119A12A8D3B8D4C8D5D8DC301AB
S1130D50B20108D7609118207091192080911A204F
S1130D6090911B20209118203091192040911A2035
S1130D7050911B208090672190906821A090692158
S1130D80B0906A2140906721509068216090692159
S1130D9070906A21E0906321F090642100916521B4
S1130DA010916621EE8EFF8E08A319A3E0906321B3
S1130DB0F09064210091652110916621EA8EFB8EEA
S1130DC00C8F1D8FE0905F21F090602100916121D4
S1130DD010916221EE8AFF8A088F198FE0905F21BB
S1130DE0F09060210091612110916221ECA2FDA29A
S1130DF00EA31FA3E0906721F09068210091692160
S1130E0010916A21E8A6F9A60AA71BA7E09063211E
S1130E10F09064210091652110916621ECA6FDA655
S1130E200EA71FA7E0901820F090192000911A2017
S1130E3010911B20E8AEF9AE0AAF1BAFE0905F2122
S1130E40F09060210091612110916221E8AAF9AA31
S1130E500AAB1BAB0E940D2F6B017C01A301920115
S1130E60C501B4010E940D2F9B01AC01C701B6015D
S1130E700E94C82C4B015C012A8D3B8D4C8D5D8DED
S1130E806E8D7F8D88A199A10E940D2F9B01AC01CD
S1130E90C501B4010E94C72C4B015C012CA13DA1EA
S1130EA04EA15FA16E897F89888D998D0E940D2F37
S1130EB09B01AC01C501B4010E94C72C2B013C016C
S1130EC02CA53DA54EA55FA568A579A58AA59BA5DA
S1130ED00E940D2F4B015C0128A939A94AA95BA9DD
S1130EE068AD79AD8AAD9BAD0E940D2F9B01AC011D
S1130EF0C501B4010E94C82C9B01AC010E94C82CFE
S1130F00A30192010E943B2D4B015C01809167215A
S1130F1090916821A0916921B0916A2180915F210B
S1130F2090916021A0916121B0916221809118205B
S1130F3090911920A0911A20B0911B2080916321D7
S1130F4090916421A0916521B0916621809118202F
S1130F5090911920A0911A20B0911B208091182003
S1130F6090911920A0911A20B0911B2080916721A3
S1130F7090916821A0916921B0916A2180916721A3
S1130F8090916821A0916921B0916A218091632197
S1130F9090916421A0916521B09166218091632193
S1130FA090916421A0916521B091662180915F2187
S1130FB090916021A0916121B091622180915F2183
S1130FC090916021A0916121B091622180911820BB
S1130FD090911920A0911A20B0911B208091672133
S1130FE090916821A0916921B0916A218091632137
S1130FF090916421A0916521B091662180915F2137
S113100090916021A0916121B0916221F1016581EB
S11310107681072E000C880B990B0E942D2E6B01F4
S11310207C01F10163817481072E000C880B990BFC
S11310300E942D2EA70196010E94922D0E94662DDA
S11310402B013C01F10161817281072E000C880B98
S1131050990B0E942D2EA70196010E94922D0E94A9
S1131060662D6B017C012DEE3EE245E652E4C301A0
S1131070B2010E940D2FEAA1FBA1608371838283D8
S113108093832DEE3EE245E652E4C701B6010E9489
S11310900D2FEAA1FBA164837583868397832DEECC
S11310A03EE245E652E4C501B4010E940D2FEAA1D7
S11310B0FBA16087718782879387CDBFDEBFCF0195
S11310C0EB96CDBFDEBFDF91CF911F910F91FF90C3
S11310D0EF90DF90CF90BF90AF909F908F907F90D4
S11310E06F905F904F903F902F900895CF92DF9232
S11310F0EF92FF920F931F938B019C0135952795D7
S1131100179507950F2EFFEDCF2EF9E5DF2EF7E3A8
S1131110EF2EFFE5FF2EF02DC01AD10AE20AF30AE2
S113112020E030E040E05FE30E940D2FA70196012C
S11311300E940D2FA70196010E940D2F9B01AC0167
S113114060E070E080EC9FE30E94C72CA701960149
S11311500E940D2F1F910F91FF90EF90DF90CF9081
S113116008954F925F926F927F928F929F92AF9267
S1131170BF92CF92DF92EF92FF920F931F93CF9380
S1131180DF93CDB7DEB7A497CDBFDEBF69877A877B
S11311908B879C872D873E874F87588BE98AFA8AED
S11311A00B8B1C8B20E030E0A901C601B5010E9425
S11311B08E2D811117C020E030E0A90168AD79AD12
S11311C08AAD9BAD0E948E2D81110CC020E030E0D1
S11311D0A9016CAD7DAD8EAD9FAD0E948E2D88238F
S11311E009F460C2A6019501C601B5010E940D2F44
S11311F02B013C0128AD39AD4AAD5BADCA01B90143
S11312000E940D2F9B01AC01C301B2010E94C82CA6
S11312102B013C012CAD3DAD4EAD5FADCA01B90112
S11312200E940D2F9B01AC01C301B2010E94C82C86
S11312305DDF2B013C019B01AC01C601B5010E949D
S11312400D2F69837A838B839C83A301920168ADFC
S113125079AD8AAD9BAD0E940D2F6D837E838F8304
S11312609887A30192016CAD7DAD8EAD9FAD0E94B8
S11312700D2F6D8B7E8B8F8B988F60916721709172
S113128068218091692190916A2120915F21309198
S113129060214091612150916221809018209090AA
S11312A01920A0901A20B0901B20409063215090E8
S11312B0642160906521709066210E940D2F6B015E
S11312C07C01A3019201C501B4010E940D2F9B0171
S11312D0AC01C701B6010E94C72C698F7A8F8B8F2E
S11312E09C8F609118207091192080911A20909100
S11312F01B202091672130916821409169215091F0
S11313006A218090632190906421A0906521B0901F
S1131310662140905F21509060216090612170901F
S113132062210E940D2F6B017C01A3019201C50172
S1131330B4010E940D2F9B01AC01C701B6010E94AC
S1131340C82C6D8F7E8F8F8F98A360911820709119
S1131350192080911A2090911B20209118203091FF
S1131360192040911A2050911B2080905F21909069
S11313706021A0906121B090622140905F21509043
S1131380602160906121709062210E940D2F20E005
S113139030E040E05FE30E94C72C6B017C01A301B5
S11313A09201C501B4010E940D2F9B01AC01C7013C
S11313B0B6010E94C82C6B017C019B01AC016D81BC
S11313C07E818F8198850E940D2F4B015C012D8DAC
S11313D03E8D4F8D58A16D897E898F89988D0E948D
S11313E00D2F9B01AC01C501B4010E94C72C69A358
S11313F07AA38BA39CA3298D3A8D4B8D5C8D6D892B
S11314007E898F89988D0E940D2F4B015C01A70165
S1131410960169817A818B819C810E940D2F9B01A9
S1131420AC01C501B4010E94C72C4B015C012D8D98
S11314303E8D4F8D58A169817A818B819C810E9458
S11314400D2F6B017C01298D3A8D4B8D5C8D6D8147
S11314507E818F8198850E940D2F9B01AC01C7016D
S1131460B6010E94C72C6B017C0160916B217091C5
S11314706C2180916D2190916E2120E030E0A901D2
S11314800E94022F18160CF0ABC020916B213091F2
S11314906C2140916D2150916E2140905B215090C0
S11314A05C2160905D2170905E2169A17AA18BA17D
S11314B09CA10E940D2F2AEF39EC44E359E30E94CA
S11314C00D2FA30192010E94C82C60935B2170939D
S11314D05C2180935D2190935E2120916B2130915A
S11314E06C2140916D2150916E2140905721509074
S11314F058216090592170905A21C501B4010E946D
S11315000D2F2AEF39EC44E359E30E940D2FA30178
S113151092010E94C82C60935721709358218093A4
S1131520592190935A2120916B2130916C21409143
S11315306D2150916E214090532150905421609020
S1131540552170905621C701B6010E940D2F2AEF34
S113155039EC44E359E30E940D2FA30192010E9448
S1131560C82C6093532170935421809355219093F8
S1131570562120915B2130915C2140915D21509155
S11315805E2169857A858B859C850E94C82C698734
S11315907A878B879C8720915721309158214091DD
S11315A0592150915A216D857E858F8598890E9495
S11315B0C82C6D877E878F87988B2091532130911B
S11315C05421409155215091562169897A898B89FA
S11315D09C890E94C82C698B7A8B8B8B9C8B18C03E
S11315E010925B2110925C2110925D2110925E2179
S11315F010925721109258211092592110925A2179
S11316001092532110925421109255211092562178
S113161020911C2030911D2040911E2050911F20AC
S113162069A17AA18BA19CA10E940D2F9B01AC0101
S113163069857A858B859C850E94C82C69877A8701
S11316408B879C8720911C2030911D2040911E2067
S113165050911F20C501B4010E940D2F9B01AC01C4
S11316606D857E858F8598890E94C82C6D877E87BD
S11316708F87988B20911C2030911D2040911E2033
S113168050911F20C701B6010E940D2F9B01AC0190
S113169069897A898B899C890E94C82C698B7A8B89
S11316A08B8B9C8B2AEF39EC44EB58E369857A8564
S11316B08B859C850E940D2F69877A878B879C87F1
S11316C02AEF39EC44EB58E36D857E858F85988944
S11316D00E940D2F6D877E878F87988B2AEF39ECB8
S11316E044EB58E369897A898B899C890E940D2F80
S11316F0698B7A8B8B8B9C8BE0901820F09019204F
S113170000911A2010911B20ED82FE820F8318870E
S11317108090672190906821A0906921B0906A21FF
S1131720E0906321F090642100916521109166217D
S1131730ED8AFE8A0F8B188F40905F2150906021B4
S11317406090612170906221C0901820D09019207F
S1131750E0901A20F0901B20C501B401905829850F
S11317603A854B855C850E940D2F69837A838B8330
S11317709C832D893E894F89588D6D857E858F8503
S113178098890E940D2F9B01AC0169817A818B811C
S11317909C810E94C72C69837A838B839C83A301D9
S11317A0920169897A898B899C890E940D2F9B01FA
S11317B0AC0169817A818B819C810E94C72CA7012D
S11317C096010E94C82C609318207093192080936E
S11317D01A2090931B2040905F21509060216090CC
S11317E0612170906221C0906721D0906821E090BF
S11317F06921F0906A212D813E814F815885698548
S11318007A858B859C850E940D2F69837A838B83CF
S11318109C832D893E894F89588D69897A898B8962
S11318209C890E940D2F9B01AC0169817A818B8177
S11318309C810E94C82C69837A838B839C83A30137
S113184092016D857E858F8598890E940D2F9B015D
S1131850AC0169817A818B819C810E94C72CA7018C
S113186096010E94C82C609367217093682180932D
S1131870692190936A2140905F215090602160908B
S1131880612170906221C0906321D0906421E09026
S11318906521F09066212D813E814F8158856D85AB
S11318A07E858F8598890E940D2F69837A838B8327
S11318B09C83A501940169897A898B899C890E94FA
S11318C00D2F9B01AC0169817A818B819C810E94DF
S11318D0C72C69837A838B839C83A30192016985D6
S11318E07A858B859C850E940D2F9B01AC016981B3
S11318F07A818B819C810E94C82CA70196010E9449
S1131900C82C609363217093642180936521909324
S11319106621C0905F21D0906021E0906121F09019
S113192062212D813E814F81588569897A898B890D
S11319309C890E940D2F2B013C01A50194016D850A
S11319407E858F8598890E940D2F9B01AC01C30170
S1131950B2010E94C82C4B015C012D893E894F893C
S1131960588D69857A858B859C850E940D2F9B01F6
S1131970AC01C501B4010E94C72CA70196010E94C5
S1131980C82C60935F2170936021809361219093B0
S11319906221609118207091192080911A209091F1
S11319A01B20209118203091192040911A20509129
S11319B01B208090672190906821A0906921B090AD
S11319C06A2140906721509068216090692170904D
S11319D06A21E0906321F0906421009165211091C7
S11319E06621E986FA860B871C87E0906321F090D4
S11319F064210091652110916621ED86FE860F8792
S1131A00188BE0905F21F09060210091612110918A
S1131A106221E982FA820B831C83E0905F21F090BB
S1131A2060210091612110916221E98AFA8A0B8B6D
S1131A301C8B0E940D2F6B017C01A3019201C50137
S1131A40B4010E940D2F9B01AC01C701B6010E9495
S1131A50C82C4B015C012D853E854F8558896985CD
S1131A607A858B859C850E940D2F9B01AC01C50155
S1131A70B4010E94C82C4B015C0129893A894B8925
S1131A805C8969817A818B819C810E940D2F9B01E5
S1131A90AC01C501B4010E94C82C28DB6B017C0198
S1131AA0209118203091192040911A2050911B2028
S1131AB00E940D2F609318207093192080931A2090
S1131AC090931B20209167213091682140916921D6
S1131AD050916A21C701B6010E940D2F60936721BE
S1131AE0709368218093692190936A2120916321E6
S1131AF0309164214091652150916621C701B6015E
S1131B000E940D2F6093632170936421809365215B
S1131B109093662120915F21309160214091612151
S1131B2050916221C701B6010E940D2F60935F217D
S1131B30709360218093612190936221A496CDBF1C
S1131B40DEBFDF91CF911F910F91FF90EF90DF9057
S1131B50CF90BF90AF909F908F907F906F905F9049
S1131B604F9008952F923F924F925F926F927F927F
S1131B708F929F92AF92BF92CF92DF92EF92FF9299
S1131B800F931F93CF93DF93CDB7DEB7C855D10919
S1131B90CDBFDEBF698B7A8B8B8B9C8B298F3A8F61
S1131BA04B8F5C8FE982FA820B831C83AF96FFAC68
S1131BB0AF97E096EFACE097E1969FACE197E296A1
S1131BC08FACE297E3961FADE397E4960FADE497ED
S1131BD0E5963FACE597E6962FACE69720E030E03B
S1131BE0A901EA966CAD7DAD8EAD9FADEA970E94DA
S1131BF08E2D811134C020E030E0A901EE966CAD49
S1131C007DAD8EAD9FADEE970E948E2D811127C0C4
S1131C1020E030E0A901C258DF4F688179818A81D0
S1131C209B81CE57D0400E948E2D811118C02F92D7
S1131C303F920F931F938F929F92EF92FF92E980AE
S1131C40FA800B811C81298D3A8D4B8D5C8D6989BD
S1131C507A898B899C8985DACDBFDEBFA4C720E051
S1131C6030E0A901C601B5010E948E2D811117C073
S1131C7020E030E0A9016F2D7E2D892D982D0E9442
S1131C808E2D81110CC020E030E0A901612F702F4E
S1131C90832D922D0E948E2D882309F437C5A60129
S1131CA09501C601B5010E940D2F2B013C012F2D7A
S1131CB03E2D492D582D6F2D7E2D892D982D0E9456
S1131CC00D2F9B01AC01C301B2010E94C82C2B0152
S1131CD03C01212F302F432D522D612F702F832D46
S1131CE0922D0E940D2F9B01AC01C301B2010E94F1
S1131CF0C82CFCD92B013C019B01AC01C601B501E8
S1131D000E940D2F6DAB7EAB8FAB98AFA3019201F8
S1131D106F2D7E2D892D982D0E940D2F69AF7AAFDE
S1131D208BAF9CAFA3019201612F702F832D922D55
S1131D300E940D2F21966CAF7DAF8EAF9FAF219780
S1131D40EA962CAD3DAD4EAD5FADEA97CA01B9013F
S1131D500E940D2F6B017C01EE962CAD3DAD4EAD76
S1131D605FADEE97CA01B9010E940D2F9B01AC0132
S1131D70C701B6010E94C82C6B017C01C258DF4F19
S1131D80288139814A815B81CE57D040CA01B9018B
S1131D900E940D2F9B01AC01C701B6010E94C82C03
S1131DA0A5D96B017C019B01AC01EA966CAD7DADBC
S1131DB08EAD9FADEA970E940D2F6D837E838F8336
S1131DC09887A7019601EE966CAD7DAD8EAD9FAD63
S1131DD0EE970E940D2F69877A878B879C87A701CE
S1131DE09601C258DF4F688179818A819B81CE57E1
S1131DF0D0400E940D2F6D877E878F87988B4090EF
S1131E0018205090192060901A2070901B20E090A8
S1131E101820F090192000911A2010911B20699627
S1131E20ECAEFDAE0EAF1FAF6997609118207091B4
S1131E30192080911A2090911B20209167213091C4
S1131E4068214091692150916A210E940D2F69A354
S1131E507AA38BA39CA36091182070911920809180
S1131E601A2090911B20209163213091642140918C
S1131E706521509166210E940D2F6D8F7E8F8F8F6B
S1131E8098A3609118207091192080911A20909144
S1131E901B2020915F21309160214091612150915C
S1131EA062210E940D2F6D8B7E8B8F8B988FC0903B
S1131EB06721D0906821E0906921F0906A21809197
S1131EC0672190916821A0916921B0916A2189AB21
S1131ED09AABABABBCAB60916721709168218091E8
S1131EE0692190916A21209163213091642140916C
S1131EF06521509166210E940D2F69A77AA78BA7AF
S1131F009CA76091672170916821809169219091CB
S1131F106A2120915F21309160214091612150918B
S1131F2062210E940D2F6DA77EA78FA798AB6091A9
S1131F3063217091642180916521909166212091A3
S1131F4063213091642140916521509166210E9462
S1131F500D2F25966CAF7DAF8EAF9FAF2597609107
S1131F606321709164218091652190916621209173
S1131F705F213091602140916121509162210E9442
S1131F800D2F29966CAF7DAF8EAF9FAF29976091CF
S1131F905F21709160218091612190916221209153
S1131FA05F213091602140916121509162210E9412
S1131FB00D2F6DA37EA38FA398A725962CAD3DADC1
S1131FC04EAD5FAD259760E070E080E09FE30E9436
S1131FD0C72C2DA13EA14FA158A50E94C72C2D9618
S1131FE06CAF7DAF8EAF9FAF2D972D893E894F8902
S1131FF0588D69A57AA58BA59CA50E94C72C6196CE
S11320006CAF7DAF8EAF9FAF61972DA53EA54FA559
S113201058A96D8D7E8D8F8D98A10E94C82C6596D0
S11320206CAF7DAF8EAF9FAF65972D962CAD3DAD58
S11320304EAD5FAD2D976D817E818F8198850E9415
S11320400D2F4B015C0161962CAD3DAD4EAD5FADE6
S1132050619769857A858B859C850E940D2F9B01EC
S1132060AC01C501B4010E94C82C4B015C0165960A
S11320702CAD3DAD4EAD5FAD65976D857E858F858D
S113208098890E940D2F9B01AC01C501B4010E94E7
S1132090C82C9B01AC010E94C82C4B015C0129A9EE
S11320A03AA94BA95CA9C701B6010E940D2F9B0157
S11320B0AC0160E070E080E09FE30E94C72C69AB54
S11320C07AAB8BAB9CAB29A53AA54BA55CA56D89D6
S11320D07E898F89988D0E94C82C2D813E814F81E5
S11320E058850E940D2F6B017C012DA13EA14FA1AB
S11320F058A569A97AA98BA99CA90E94C72C2985EE
S11321003A854B855C850E940D2F9B01AC01C7016C
S1132110B6010E94C82C6B017C0129A13AA14BA1F4
S11321205CA129966CAD7DAD8EAD9FAD29970E94C3
S1132130C72C2D853E854F8558890E940D2F9B0104
S1132140AC01C701B6010E94C82C9B01AC010E94DE
S1132150C82C6B017C01A5019401C501B4010E9446
S11321600D2F6D8B7E8B8F8B988FA5019401C501EC
S1132170B4010E940D2F4B015C01A7019601C70118
S1132180B6010E940D2F9B01AC01C501B4010E9450
S1132190C82C0E94742F4B015C012D8D3E8D4F8DF8
S11321A058A16DA57EA58FA598A90E94C72C6D8FF7
S11321B07E8F8F8F98A329962CAD3DAD4EAD5FAD2C
S11321C0299769A17AA18BA19CA10E94C82C69A31B
S11321D07AA38BA39CA325962CAD3DAD4EAD5FADEC
S11321E0259769A97AA98BA99CA90E94C72C6D8BF4
S11321F07E8B8F8B988F2D8D3E8D4F8D58A16D8149
S11322007E818F8198850E940D2F6B017C0129A10D
S11322103AA14BA15CA169857A858B859C850E9436
S11322200D2F9B01AC01C701B6010E94C82C6B01A4
S11322307C012D893E894F89588D6D857E858F85DA
S113224098890E940D2F9B01AC01C701B6010E9421
S1132250C82C9B01AC010E94C82C6B017C016996BF
S11322602CAD3DAD4EAD5FAD6997C301B2010E9487
S11322700D2F20E030E040E05FE30E94C72C2DA149
S11322803EA14FA158A50E94C82C6DA37EA38FA385
S113229098A7A50194012D966CAD7DAD8EAD9FAD33
S11322A02D970E940D2F2B013C01A70196016D8DE6
S11322B07E8D8F8D98A10E940D2F9B01AC01C301CF
S11322C0B2010E94C82C69A77AA78BA79CA7A50175
S11322D0940161966CAD7DAD8EAD9FAD61970E940A
S11322E00D2F2B013C01A701960169A17AA18BA1B5
S11322F09CA10E940D2F9B01AC01C301B2010E945D
S1132300C82C6DA77EA78FA798ABA50194016596ED
S11323106CAD7DAD8EAD9FAD65970E940D2F2B01E9
S11323203C01A70196016D897E898F89988D0E9451
S11323300D2F9B01AC01C301B2010E94C82C6B019B
S11323407C012DA13EA14FA158A569AD7AAD8BADFD
S11323509CAD0E940D2F4B015C0129A13AA14BA118
S11323605CA121966CAD7DAD8EAD9FAD21970E9491
S11323700D2F9B01AC01C501B4010E94C72C4B0178
S11323805C01A701960169857A858B859C850E94ED
S11323900D2F2B013C012DA53EA54FA558A96D85F8
S11323A07E858F8598890E940D2F9B01AC01C30106
S11323B0B2010E94C72C9B01AC01C501B4010E946B
S11323C0C82C6D8B7E8B8F8B988F2D8D3E8D4F8D72
S11323D058A121966CAD7DAD8EAD9FAD21970E9425
S11323E00D2F4B015C012DA13EA14FA158A56DA954
S11323F07EA98FA998AD0E940D2F9B01AC01C50148
S1132400B4010E94C72C4B015C0129A53AA54BA538
S11324105CA56D857E858F8598890E940D2F2B0183
S11324203C01A70196016D817E818F8198850E9470
S11324300D2F9B01AC01C301B2010E94C72C9B016B
S1132440AC01C501B4010E94C82C4B015C0129A157
S11324503AA14BA15CA16DA97EA98FA998AD0E9458
S11324600D2F6B017C012D8D3E8D4F8D58A169ADD3
S11324707AAD8BAD9CAD0E940D2F9B01AC01C701C1
S1132480B6010E94C72C6B017C012DA53EA54FA56A
S113249058A96D817E818F8198850E940D2F2B0113
S11324A03C0129A53AA54BA55CA569857A858B8550
S11324B09C850E940D2F9B01AC01C301B2010E94B7
S11324C0C72C9B01AC01C701B6010E94C82C6B014B
S11324D07C0160916B2170916C2180916D219091B0
S11324E06E2120E030E0A9010E94022F18160CF0A2
S11324F0ABC020916B2130916C2140916D215091A2
S11325006E2140905B2150905C2160905D21709021
S11325105E216D897E898F89988D0E940D2F2AEF07
S113252039EC44E359E30E940D2FA30192010E9468
S1132530C82C60935B2170935C2180935D21909300
S11325405E2120916B2130916C2140916D2150913D
S11325506E214090572150905821609059217090DD
S11325605A21C501B4010E940D2F2AEF39EC44E32E
S113257059E30E940D2FA30192010E94C82C60937D
S11325805721709358218093592190935A21209177
S11325906B2130916C2140916D2150916E214090BE
S11325A05321509054216090552170905621C701B9
S11325B0B6010E940D2F2AEF39EC44E359E30E943F
S11325C00D2FA30192010E94C82C60935321709394
S11325D05421809355219093562120915B21309171
S11325E05C2140915D2150915E2169897A898B89B2
S11325F09C890E94C82C698B7A8B8B8B9C8B209135
S11326005721309158214091592150915A21698D77
S11326107A8D8B8D9C8D0E94C82C698F7A8F8B8FBD
S11326209C8F2091532130915421409155215091F8
S1132630562169817A818B819C810E94C82C69838F
S11326407A838B839C8318C010925B2110925C2147
S113265010925D2110925E21109257211092582100
S11326601092592110925A21109253211092542100
S1132670109255211092562120911C2030911D203A
S113268040911E2050911F206D897E898F89988DDD
S11326900E940D2F9B01AC0169897A898B899C89E1
S11326A00E94C82C698B7A8B8B8B9C8B20911C206D
S11326B030911D2040911E2050911F20C501B4016E
S11326C00E940D2F9B01AC01698D7A8D8B8D9C8DA1
S11326D00E94C82C698F7A8F8B8F9C8F20911C202D
S11326E030911D2040911E2050911F20C701B6013A
S11326F00E940D2F9B01AC0169817A818B819C81A1
S11327000E94C82C69837A838B839C832AEF39ECDB
S113271044EB58E369897A898B899C890E940D2F3F
S11327206D837E838F8398872AEF39EC44EB58E3DB
S1132730698D7A8D8B8D9C8D0E940D2F69877A8788
S11327408B879C872AEF39EC44EB58E369817A81C3
S11327508B819C810E940D2F6D877E878F87988B3C
S1132760E0901820F090192000911A2010911B205D
S1132770E98AFA8A0B8B1C8B8090672190906821E0
S1132780A0906921B0906A21E0906321F0906421C7
S11327900091652110916621E98EFA8E0B8F1C8FB2
S11327A040905F215090602160906121709062217F
S11327B0C0901820D0901920E0901A20F0901B208F
S11327C0C501B40190582D813E814F8158850E94E6
S11327D00D2F69837A838B839C83298D3A8D4B8D4E
S11327E05C8D69857A858B859C850E940D2F9B0164
S11327F0AC0169817A818B819C810E94C72C698399
S11328007A838B839C83A30192016D857E858F855A
S113281098890E940D2F9B01AC0169817A818B817B
S11328209C810E94C72CA70196010E94C82C60932A
S113283018207093192080931A2090931B204090A5
S11328405F21509060216090612170906221C0905E
S11328506721D0906821E0906921F0906A2129894C
S11328603A894B895C896D817E818F8198850E942C
S11328700D2F69837A838B839C83298D3A8D4B8DAD
S11328805C8D6D857E858F8598890E940D2F9B01B7
S1132890AC0169817A818B819C810E94C82C6983F7
S11328A07A838B839C83A301920169857A858B85C6
S11328B09C850E940D2F9B01AC0169817A818B81DB
S11328C09C810E94C72CA70196010E94C82C60938A
S11328D06721709368218093692190936A214090C5
S11328E05F21509060216090612170906221C090BE
S11328F06321D0906421E0906521F09066212989BC
S11329003A894B895C8969857A858B859C850E9487
S11329100D2F69837A838B839C83A50194016D8534
S11329207E858F8598890E940D2F9B01AC0169815A
S11329307A818B819C810E94C72C69837A838B83E3
S11329409C83A30192016D817E818F8198850E9471
S11329500D2F9B01AC0169817A818B819C810E943E
S1132960C82CA70196010E94C82C60936321709320
S113297064218093652190936621C0905F21D0905B
S11329806021E0906121F090622129893A894B8984
S11329905C896D857E858F8598890E940D2F2B011A
S11329A03C01A501940169857A858B859C850E94EB
S11329B00D2F9B01AC01C301B2010E94C82C4B0135
S11329C05C01298D3A8D4B8D5C8D6D817E818F816B
S11329D098850E940D2F9B01AC01C501B4010E9492
S11329E0C72CA70196010E94C82C60935F217093A5
S11329F060218093612190936221609118207091ED
S1132A00192080911A2090911B2020911820309138
S1132A10192040911A2050911B208090672190909A
S1132A206821A0906921B0906A214090672150905C
S1132A3068216090692170906A21E0906321F09090
S1132A4064210091652110916621ED82FE820F833D
S1132A501887E0906321F090642100916521109122
S1132A606621E986FA860B871C87E0905F21F09047
S1132A7060210091612110916221E982FA820B8325
S1132A801C83E0905F21F0906021009161211091FE
S1132A906221ED86FE860F87188B0E940D2F6B0135
S1132AA07C01A3019201C501B4010E940D2F9B0179
S1132AB0AC01C701B6010E94C82C4B015C012985F9
S1132AC03A854B855C856D817E818F8198850E94D6
S1132AD00D2F9B01AC01C501B4010E94C82C4B0110
S1132AE05C012D853E854F85588969817A818B816A
S1132AF09C810E940D2F9B01AC01C501B4010E9471
S1132B00C82C0E9476086B017C012091182030911A
S1132B10192040911A2050911B200E940D2F609380
S1132B2018207093192080931A2090931B202091D1
S1132B306721309168214091692150916A21C70130
S1132B40B6010E940D2F60936721709368218093D2
S1132B50692190936A2120916321309164214091ED
S1132B60652150916621C701B6010E940D2F609323
S1132B706321709364218093652190936621209151
S1132B805F21309160214091612150916221C70100
S1132B90B6010E940D2F60935F2170936021809392
S1132BA0612190936221C85ADF4FCDBFDEBFDF9110
S1132BB0CF911F910F91FF90EF90DF90CF90BF9036
S1132BC0AF909F908F907F906F905F904F903F90C9
S1132BD02F900895FC011282138214821582668359
S1132BE07783408351830895FC01828193814481DA
S1132BF055818417950718F0841B950B089520813F
S1132C003181820F931F841B950B08958F929F929D
S1132C10AF92BF92CF92DF92EF92FF920F931F93E6
S1132C20CF93DF938C016A01DC011496CD91DC9182
S1132C301597E62EF72EA12CB12C842E9D2C18C0AE
S1132C40D8011696ED91FC911797EC0FFD1F80812A
S1132C50F70181937F018D919C910197C817D90742
S1132C6011F0219602C0C0E0D0E0FFEFAF1ABF0A16
S1132C70C801BADF9C01C816D90610F4282D392DD5
S1132C80A216B306E8F221E08C159D0508F020E0B9
S1132C90822FDF91CF911F910F91FF90EF90DF90E2
S1132CA0CF90BF90AF909F908F9008950F931F93F4
S1132CB0CF93DF93EC018B0197DF9C010817190771
S1132CC008F498012817390768F08C819D81820FD8
S1132CD0931F688179810E944D338C839D838A83FD
S1132CE09B830AC08C819D81820F931F68817981A7
S1132CF00E944D338C839D83DF91CF911F910F915F
S1132D000895CF93DF931F921F92CDB7DEB78FEF55
S1132D10809370008093710080937200809373009D
S1132D208093740080937500809376008FB78A83B4
S1132D30F8949A81E0E5F0E08081826080839FBF0F
S1132D40818181FFFDCF61E080E490E038D28FB7CC
S1132D508983F8949981E0E5F0E080818E7F808317
S1132D609FBF0F900F90DF91CF910895CF93DF9382
S1132D701F92CDB7DEB79FB79983F8949981E82F56
S1132D80F0E0E059FF4F60958081682360839FBF26
S1132D900F90DF91CF910895CF93DF931F92CDB71A
S1132DA0DEB780914D2590914E25E0914925F09113
S1132DB04A25BE016F5F7F4F19958981082E000C4B
S1132DC0990B0F90DF91CF910895682F80914D2535
S1132DD090914E25E0914B25F0914C25199599231E
S1132DE01CF081E090E008958FEF9FEF08951F920B
S1132DF00F920FB60F92112408B60F9218BE09B69F
S1132E000F9219BE0BB60F921BBE2F933F934F9395
S1132E105F936F937F938F939F93AF93BF93EF933E
S1132E20FF934091240250912502E0915125F091A5
S1132E30522561E080E092E01995FF91EF91BF91F6
S1132E40AF919F918F917F916F915F914F913F913E
S1132E502F910F900BBE0F9009BE0F9008BE0F90DC
S1132E600FBE0F901F9018951F920F920FB60F92DE
S1132E70112408B60F9218BE09B60F9219BE0BB6EC
S1132E800F921BBE2F933F934F935F936F937F9348
S1132E908F939F93AF93BF93EF93FF9340912C0233
S1132EA050912D02E0915125F091522562E080E08D
S1132EB092E01995FF91EF91BF91AF919F918F91FE
S1132EC07F916F915F914F913F912F910F900BBE26
S1132ED00F9009BE0F9008BE0F900FBE0F901F9069
S1132EE018951F920F920FB60F92112408B60F92E5
S1132EF018BE09B60F9219BE0BB60F921BBE2F93C4
S1132F003F934F935F936F937F938F939F93AF936D
S1132F10BF93EF93FF934091340250913502E091B7
S1132F205125F091522564E080E092E01995FF91DB
S1132F30EF91BF91AF919F918F917F916F915F912D
S1132F404F913F912F910F900BBE0F9009BE0F90A0
S1132F5008BE0F900FBE0F901F9018951F920F92EE
S1132F600FB60F92112408B60F9218BE09B60F922D
S1132F7019BE0BB60F921BBE2F933F934F935F93D3
S1132F806F937F938F939F93AF93BF93EF93FF932D
S1132F9040913C0250913D02E0915125F09152251F
S1132FA068E080E092E01995FF91EF91BF91AF91B5
S1132FB09F918F917F916F915F914F913F912F914D
S1132FC00F900BBE0F9009BE0F9008BE0F900FBE5E
S1132FD00F901F9018951F920F920FB60F92112405
S1132FE008B60F9218BE09B60F9219BE0BB60F920F
S1132FF01BBE2F933F934F935F936F937F938F9356
S11330009F93AF93BF93EF93FF93409164025091CA
S11330106502E0914F25F091502561E080E492E053
S11330201995FF91EF91BF91AF919F918F917F91EE
S11330306F915F914F913F912F910F900BBE0F9025
S113304009BE0F9008BE0F900FBE0F901F901895E9
S11330501F920F920FB60F92112408B60F9218BE4A
S113306009B60F9219BE0BB60F921BBE2F933F9356
S11330704F935F936F937F938F939F93AF93BF937C
S1133080EF93FF9340916C0250916D02E0914F25B4
S1133090F091502562E080E492E01995FF91EF9160
S11330A0BF91AF919F918F917F916F915F914F915C
S11330B03F912F910F900BBE0F9009BE0F9008BE49
S11330C00F900FBE0F901F9018951F920F920FB67E
S11330D00F92112408B60F9218BE09B60F9219BEAA
S11330E00BB60F921BBE2F933F934F935F936F9337
S11330F07F938F939F93AF93BF93EF93FF934091ED
S1133100740250917502E0914F25F091502564E0CE
S113311080E492E01995FF91EF91BF91AF919F9157
S11331208F917F916F915F914F913F912F910F906C
S11331300BBE0F9009BE0F9008BE0F900FBE0F90EC
S11331401F9018951F920F920FB60F92112408B674
S11331500F9218BE09B60F9219BE0BB60F921BBE82
S11331602F933F934F935F936F937F938F939F938B
S1133170AF93BF93EF93FF9340917C0250917D02F4
S1133180E0914F25F091502568E080E492E0199594
S1133190FF91EF91BF91AF919F918F917F916F912B
S11331A05F914F913F912F910F900BBE0F9009BEED
S11331B00F9008BE0F900FBE0F901F9018951BBE66
S11331C0FC0128ED24BF608308954091CA01E62FD5
S11331D0F72F8093CA0184914093CA010895FC019A
S11331E0918195FFFDCF608380E090E00895FC011C
S11331F091819923ECF7808108954F925F926F92A9
S11332007F928F929F92AF92BF92EF92FF920F9311
S11332101F93CF937C014A015B0128013901FC0112
S1133220848182FF16C0D901C801689412F8B6954A
S1133230A795979587951694D1F7B901A801032E00
S113324036E176956795579547953A95D1F7302DA0
S113325015C0D901C801689413F8B695A795979538
S113326087951694D1F7B901A801032E37E1769515
S11332706795579547953A95D1F7302D8815990557
S1133280AA05BB0508F4A6C084169506A606B706CB
S113329008F4A2C0F701848182FD04C0880C991C43
S11332A0AA1CBB1CC301B201A50194010E94613395
S11332B02F3F31054105510508F490C08FEF90E090
S11332C0A0E0B0E0C9EF05C0281739074A075B073B
S11332D058F0880F991FAA1FBB1FCD3F0CF48160C3
S11332E0CF5FC73089F74FC0CC230CF04CC0D50159
S11332F0C401880F991FAA1FBB1F880F991FAA1FFB
S1133300BB1F880F991FAA1FBB1F481A590A6A0AB4
S11333107B0ACE3FF4F48DEF9FEF8C1B9109C7FD20
S1133320939504C0440C551C661C771C8A95D2F7EF
S1133330D501C401B695A79597958795BC01CD0194
S1133340640D751D861D971DA50194010E946133AE
S113335037C083E08C0FA501940104C0220F331FF2
S1133360441F551F8A95D2F7DA01C901B695A7956E
S113337097958795BC01CD01640D751D861D971D1C
S11333800E9461331DC083E08C0FA501940104C029
S1133390220F331F441F551F8A95D2F7DA01C90142
S11333A0B695A79597958795BC01CD01640D751DBC
S11333B0861D971D0E94613321503109410951092D
S11333C0832F8F70C295C07FC82BF701C7832683D4
S11333D081E018C080E016C080E014C0D501C401AB
S11333E0880F991FAA1FBB1F880F991FAA1FBB1FF5
S11333F0880F991FAA1FBB1F481A590A6A0A7B0A19
S1133400C9EF89CFCF911F910F91FF90EF90BF909B
S1133410AF909F908F907F906F905F904F900895A2
S11334200F931F93CF93DF93EC018B01009709F463
S113343036C1803C910521F460E180E097DC2FC126
S1133440C03484E0D80721F468E080E08FDC27C131
S1133450C115E4E0DE0721F464E080E087DC1FC1ED
S1133460C038F1E0DF0721F462E080E07FDC17C1BF
S1133470C11581E0D80721F461E080E077DC0FC159
S1133480C038E3E0DE0721F461E081E06FDC07C1CE
S1133490C039F3E0DF0721F461E082E067DCFFC0BC
S11334A0C11582E0D80721F462E081E05FDCF7C057
S11334B0C034E2E0DE0721F462E082E057DCEFC0D2
S11334C0C115F3E0DF0721F464E081E04FDCE7C0DD
S11334D0C03283E0D80721F464E082E047DCDFC037
S11334E0C115E8E0DE0721F461E083E03FDCD7C0EA
S11334F0C115F9E0DF0721F461E084E037DCCFC0D7
S1133500C1158AE0D80721F461E085E02FDCC7C04B
S1133510C115EBE0DE0721F461E086E027DCBFC0E3
S1133520C034F8E0DF0721F462E083E01FDCB7C0B9
S1133530C03489E0D80721F462E084E017DCAFC02E
S1133540C034EAE0DE0721F462E085E00FDCA7C0C6
S1133550C034FBE0DF0721F462E086E007DC9FC0B3
S1133560C03988E0D80721F464E083E0FFDB97C02A
S1133570C039E9E0DE0721F464E084E0F7DB8FC0C2
S1133580C039FAE0DF0721F464E085E0EFDB87C0AF
S1133590C0398BE0D80721F464E086E0E7DB7FC024
S11335A0C03CE8E0DE0721F468E083E0DFDB77C0BD
S11335B0C03CF9E0DF0721F468E084E0D7DB6FC0AA
S11335C0C03C8AE0D80721F468E085E0CFDB67C01F
S11335D0C03CEBE0DE0721F468E086E0C7DB5FC0B7
S11335E0C03AF8E0DF0721F460E183E0BFDB57C0B5
S11335F0C03A89E0D80721F460E184E0B7DB4FC02A
S1133600C03AEAE0DE0721F460E185E0AFDB47C0C1
S1133610C03AFBE0DF0721F460E186E0A7DB3FC0AE
S1133620C03B88E0D80721F460E283E09FDB37C029
S1133630C03BE9E0DE0721F460E284E097DB2FC0C1
S1133640C03BFAE0DF0721F460E285E08FDB27C0AE
S1133650C03B8BE0D80721F460E286E087DB1FC023
S1133660C038E4E0DE0721F460E483E07FDB17C0C8
S1133670C039F4E0DF0721F460E484E077DB0FC0B5
S1133680C03A84E0D80721F460E485E06FDB07C02A
S1133690C03BE4E0DE0719F460E486E067DB8D817B
S11336A08F738D83F80195818481892B9681911183
S11336B098E0892B8D83F801408151816281738167
S11336C000E018E428EE31E0CE0197DD9C8198609B
S11336D09C839C8190619C83DF91CF911F910F917A
S11336E008958F929F92AF92BF92CF92DF92EF9202
S11336F0FF9249015A010E942B2E6B017C01C501E6
S1133700B4010E942B2E9B01AC01C701B6010E949B
S1133710C72C29EA36E440E451E40E94922DFF903C
S1133720EF90DF90CF90BF90AF909F908F900895CF
S1133730CF93DF93CDB7DEB72797CDBFDEBFE0E6EB
S1133740F6E080818068808380818F7B808380E83D
S1133750858360E284E00ADBE0E2F0E284818D8329
S113376085818E8386818F8380819181A281B381BB
S113377089839A83AB83BC8360E284E0F7DABE0179
S11337806F5F7F4F80EB99E04BDE2796CDBFDEBFA6
S1133790DF91CF910895DC01FB018081882301F141
S11337A0082E000C990B2C9130E082179307D1F46A
S11337B090E00BC0022E000C330BFD01E40FF51F4B
S11337C0408150E02417350779F49F5F492F50E07A
S11337D0FB01E40FF51F20812111ECCF81E0089556
S11337E081E0089580E0089580E008952F923F924B
S11337F04F925F926F927F928F929F92AF92BF92FD
S1133800CF92DF92EF92FF920F931F93CF93DF93A8
S1133810CDB7DEB7A297CDBFDEBF4C0169837A83F3
S1133820242E67EF70E289819A81B5DF882309F439
S113383049C2312C121413040CF044C249805A803A
S113384000E010E0F12CDF2C48A259A2A8A1B9A1F4
S11338508D91A8A3B9A38C3209F02EC2D394B1E000
S1133860DB1223C0E8A1F9A18081880F8056982F2C
S1133870990F990F890F91819053890F8D878281B8
S1133880880F8056982F990F990F890F9381905321
S1133890890F8E878481880F8056A82EAA0CAA0CC3
S11338A0A80E95819053A90E07C2F2E0DF12BBC0A7
S11338B0A8A1B9A18C918C3209F4F0C190E0C09711
S11338C09C01220F331F880F991F880F991F880F9F
S11338D0991F820F931F11962C91119730E020535A
S11338E031092C01420E531E4B865C861296AC9114
S11338F0B0E0D09720EA36E841E050E00E94BD33C2
S11339002B013C01E8A1F9A1A381B0E0D09720E10B
S113391037E20E94B733460E571E681E791EA581F2
S1133920B0E0D09728EE33E00E94B733460E571E1E
S1133930681E791EA681B0E0D09724E630E00E948C
S1133940B733AB01BC01440D551D661D771D97812E
S1133950892F90E0C097092E000CAA0BBB0B880F8F
S1133960991FAA1FBB1F2C013D01440C551C661C4A
S1133970771C440C551C661C771C840D951DA61DD4
S1133980B71D840F951FA61FB71F408550E04053F5
S11339905109052E000C660B770B2C013D01440EDA
S11339A0551E661E771E4F82588669867A868285E2
S11339B08E3451F0B12CC12C6894EE24E7F80F2E0C
S11339C0FFEBFF2EF02D09C0B12CC12C6894EE241E
S11339D0E7F80F2EFFE3FF2EF02D6F8178858985A0
S11339E09A850E942B2E20E03CE742E159E40E9494
S11339F0922D2B013C012B853C85B90180E090E0A0
S1133A000E942B2E9B01AC01C301B2010E94C82C61
S1133A102B2D3C2D4E2D5F2D0E940D2F6F87788B03
S1133A20898B9A8B49C134E0D312C5C0A8A1B9A12E
S1133A302C912C3209F437C111968C9190E0C097E7
S1133A40AC01440F551F880F991F880F991F880FC9
S1133A50991F840F951F30E020533109B4E6B29FBB
S1133A60A001B39F500D1124840F951FE8A1F9A163
S1133A70228130E0205331092C01420E531E4F8A1B
S1133A80588EA381B0E0D09720EA36E841E050E0B8
S1133A900E94BD332B013C01A481B0E0D09720E10A
S1133AA037E20E94B733460E571E681E791EA68160
S1133AB0B0E0D09728EE33E00E94B733460E571E8D
S1133AC0681E791EA781B0E0D09724E630E00E94FA
S1133AD0B733AB01BC01440D551D661D771D9085A0
S1133AE0892F90E0C097092E000CAA0BBB0B880FFE
S1133AF0991FAA1FBB1F2C013D01440C551C661CB9
S1133B00771C440C551C661C771C840D951DA61D42
S1133B10B71D840F951FA61FB71F418550E0405362
S1133B205109052E000C660B770B2C013D01440E48
S1133B30551E661E771E4B8A5C8A6D8A7E8A838533
S1133B40853451F0B12CC12C6894EE24E7F80F2E83
S1133B50FFEBFF2EF02D09C0B12CC12C6894EE248C
S1133B60E7F80F2EFFE3FF2EF02D6B897C898D89FA
S1133B709E890E942B2E20E03CE742E159E40E94FA
S1133B80922D2B013C012F89388DB90180E090E002
S1133B900E942B2E9B01AC01C301B2010E94C82CD0
S1133BA02B2D3C2D4E2D5F2D0E940D2F698F7A8F6A
S1133BB08B8F9C8F81C036E0D31206C0A8A1B9A117
S1133BC08C9180538D8F78C0B9E0DB1275C0E8A169
S1133BD0F9A1C080FCE2CF1609F46AC0B12C1B82A3
S1133BE01C821D821E82712CE980FA80E00EF11E77
S1133BF00E8F1F8F1C2D7AA21E3209F442C05AA0C8
S1133C0051101FC020E030E040E251E46B817C8120
S1133C108D819E810E940D2F2B013C01612F70E04C
S1133C2060537109072E000C880B990B0E942D2EEE
S1133C30A30192010E94C82C6B837C838D839E8395
S1133C4022C0C12E0E8D1F8D6C2D70E06053710942
S1133C50072E000C880B990B0E942D2E20E030E0DB
S1133C6040E251E40E94922D9B01AC016B817C8166
S1133C708D819E810E94C82C6B837C838D839E835F
S1133C801BC021E02AA3B394F701EB0DF11D1181B0
S1133C901C3209F0B1CF0E8D1F8D0EC01F86188AFD
S1133CA0198A1A8A09C0198E1A8E1B8E1C8E04C09A
S1133CB01B821C821D821E820F5F1F4F021513057B
S1133CC009F0C4CD4B845C84D4014D925C9211976D
S1133CD04F80588469847A8412964D925D926D92D5
S1133CE07C9215978F859889A989BA89F40187836D
S1133CF09087A187B2874F88588C438654864B8817
S1133D005C886D887E88458656866786708A898D2C
S1133D109A8DAB8DBC8D828B938BA48BB58B8B8151
S1133D209C81AD81BE81868B978BA08FB18F4D8492
S1133D30428E5E84538EA48E6D8C658EC401A296D1
S1133D40CDBFDEBFDF91CF911F910F91FF90EF9018
S1133D50DF90CF90BF90AF909F908F907F906F90A7
S1133D605F904F903F902F90089504C06150710967
S1133D70810991096115710581059105B9F70895C6
S1133D80CF93DF93C0E6D6E08881826088838C81FC
S1133D9082608C8366E575E885E491E0E6DF8C81DA
S1133DA08D7F8C83DF91CF910895CF93DF93C0E60D
S1133DB0D6E08881826088838C8182608C8366E50A
S1133DC075E885E491E0D1DF8C818D7F8C83DF9170
S1133DD0CF910895CF93DF93C0E6D6E088818260C7
S1133DE088838C8182608C8366E575E885E491E044
S1133DF0BCDF8C818D7F8C83DF91CF910895E0E2CD
S1133E00F6E0808181608083848181608483089569
S1133E10E0E2F6E080818160808384818E7F848308
S1133E200895E0E8F6E08081806480838481806482
S1133E308483089504C06150710981099109611551
S1133E40710581059105B9F70895DC01CB01E7E21D
S1133E50F0E238E63083418341E050E04087518707
S1133E602093892140E0BF010C9470030895DC0184
S1133E70CB01E7E2F0E238E63083418330E020878B
S1133E80318741E0BF010C9470030895CF92DF9213
S1133E90EF92FF926B017C01642F70E088EE93E057
S1133EA00E944D332FEF260F49E1C701B601CDDF44
S1133EB0FF90EF90DF90CF900895CF92DF92EF9232
S1133EC0FF926B017C0122E04AE1BFDF28E14BE174
S1133ED0C701B601BADF85E89BEEA1EDBFE380938D
S1133EE0732190937421A0937521B0937621FF9050
S1133EF0EF90DF90CF900895CF92DF92EF92FF92F0
S1133F006B017C0128E14CE1A0DF22E04DE1C70117
S1133F10B6019BDF80E090E0A0E0B0E480936F21E5
S1133F2090937021A0937121B0937221FF90EF9030
S1133F30DF90CF900895CF92DF92EF92FF92CF93CC
S1133F40DF936B017C012CE045E27FDF2AE046E24F
S1133F50C701B6017ADF2FE143E6C701B60175DF79
S1133F6021E847E2C701B60170DF6BEA70EA81E03D
S1133F7090E060DF2CE845E2C701B60166DF20E18E
S1133F8046E2C701B60161DF23E847E2C701B60193
S1133F905CDF6BEA70EA81E090E04CDF24E049E406
S1133FA0C701B60164DFC9E8D1E2688170E080E04E
S1133FB090E00E942B2E20E030E040E053E40E9489
S1133FC0C72C20E030E040E85BE30E940D2F20E0A6
S1133FD030E040E85FE30E94C82C60937F21709337
S1133FE080218093812190938221698170E080E017
S1133FF090E00E942B2E20E030E040E053E40E9449
S1134000C72C20E030E040E85BE30E940D2F20E065
S113401030E040E85FE30E94C82C60937B217093FA
S11340207C2180937D2190937E216A8170E080E0E1
S113403090E00E942B2E20E030E040E053E40E9408
S1134040C72C20E030E040E85BE30E940D2F20E025
S113405030E040E85FE30E94C82C609377217093BE
S113406078218093792190937A212CE045E2C7014D
S1134070B601EBDE2AE046E2C701B601E6DE20E146
S113408043E6C701B601E1DE21E847E2C701B60114
S1134090DCDE6BEA70EA81E090E0CCDEDF91CF9168
S11340A0FF90EF90DF90CF900895CF92DF92EF9240
S11340B0FF926B017C012DEC44E2C7DE21E847E668
S11340C0C701B601C2DE20E24AE6C701B601BDDE81
S11340D02CE045E2C701B601B8DE2BE046E2C70199
S11340E0B601B3DE21E043E6C701B601AEDE21E846
S11340F047E2C701B601A9DE66E570ED80E090E015
S113410099DEC701B60117DF2AE046E2C701B6010E
S11341109CDE26E143E6C701B60197DE21E847E2CB
S1134120C701B60192DE66E570ED80E090E082DEC4
S11341302CE845E2C701B60188DE23E046E2C70168
S1134140B60183DE27E847E2C701B6017EDEFF90B1
S1134150EF90DF90CF900895CF92DF92EF92FF928D
S11341606B017C0120E147E370DE21E048E3C701F5
S1134170B6016BDEE0E4F6E084E0828783E08187C9
S1134180FF90EF90DF90CF900895CF92DF92EF925F
S1134190FF92CF936B017C01C42F20E84BE655DEE0
S11341A066E573E288E090E045DE21E04BE6C70176
S11341B0B6014BDE20E04CE6C701B60146DEC7017E
S11341C0B6017BDEC701B60197DE4C2FC701B601ED
S11341D05DDEC701B601C0DFC701B60166DFE0E4FA
S11341E0F6E081E1828B84E0828783E08187CF914E
S11341F0FF90EF90DF90CF9008954F925F926F926F
S11342007F928F929F92AF92BF92CF92DF92EF9262
S1134210FF920F931F93CF93DF93CDB7DEB76897C9
S1134220CDBFDEBF8C01E42EF52E69837D8322E0B1
S11342304AE36E2D752F89819D8119DEE981E6950A
S1134240E695E69580E2E89FF0011124FA5F898102
S1134250877091E001C0990F8A95EAF780858923D8
S1134260E9F39981ED8126E14AE36E2D7F2D892FB3
S11342709E2FFDDDC0906F21D0907021E0907121C0
S1134280F090722160918A2170E0762F66278091E8
S11342908B21680F711D072E000C880B990B0E944F
S11342A02D2EA70196010E94922D0E94FA2D69835A
S11342B07A838B839C83C0906F21D0907021E0908F
S11342C07121F090722160918C2170E0762F662725
S11342D080918D21680F711D072E000C880B990B9E
S11342E00E942D2EA70196010E94922D0E94FA2D64
S11342F06D837E838F839887C0906F21D0907021C7
S1134300E0907121F090722160918E2170E0762FFF
S1134310662780918F21680F711D072E000C880B72
S1134320990B0E942D2EA70196010E94922D0E94A6
S1134330FA2D69877A878B879C87C0907321D090E8
S11343407421E0907521F09076216091922170E0C3
S1134350762F662780919321680F711D072E000C1C
S1134360880B990B0E942D2EA70196010E94922D75
S11343700E94FA2D6D877E878F87988BC09073215A
S1134380D0907421E0907521F09076216091942171
S113439070E0762F662780919521680F711D072E96
S11343A0000C880B990B0E942D2EA70196010E94E8
S11343B0922D0E94FA2D698B7A8B8B8B9C8BC090EB
S11343C07321D0907421E0907521F0907621609152
S11343D0962170E0762F662780919721680F711DD2
S11343E0072E000C880B990B0E942D2EA701960115
S11343F00E94922D0E94FA2D6D8B7E8B8F8B988F4D
S1134400C0907F21D0908021E0908121F090822182
S11344106091992170E0762F662780919821680F2A
S1134420711D072E000C880B990B0E942D2EA701DD
S113443096010E940D2F20E030E040EC50E40E94F1
S11344400D2F0E94FA2D2B013C01C0907B21D090AE
S11344507C21E0907D21F0907E2160919B2170E091
S1134460762F662780919A21680F711D072E000C04
S1134470880B990B0E942D2EA70196010E940D2FE7
S113448020E030E040EC50E40E940D2F0E94FA2D11
S11344904B015C01C0907721D0907821E090792184
S11344A0F0907A2160919D2170E0762F66278091AB
S11344B09C21680F711D072E000C880B990B0E941C
S11344C02D2EA70196010E940D2F20E030E040EC34
S11344D050E40E940D2F0E94FA2D6B017C01609123
S11344E0902170E0762F662780919121680F711DCD
S11344F0072E000C880B990B0E942D2E23E43DEA15
S113450045E550E40E94922D0E94FA2D6C5C774F91
S1134510E9E8F1E28081F801808389819A818183CD
S113452092838D819E818383948389859A858583F3
S11345309683678370878D859E8581879287898915
S11345409A89838794878D899E89858796874786EC
S1134550508A818A928AC38AD48AC8016896CDBF58
S1134560DEBFDF91CF911F910F91FF90EF90DF900D
S1134570CF90BF90AF909F908F907F906F905F90FF
S11345804F9008951F920F920FB60F92112408B600
S11345900F9218BE09B60F9219BE8F939F93AF93D3
S11345A0BF9381E080938821809387218091832128
S11345B090918421A0918521B09186210196A11D1D
S11345C0B11D8093832190938421A0938521B0937E
S11345D08621BF91AF919F918F910F9009BE0F904B
S11345E008BE0F900FBE0F901F90189504C0615025
S11345F07109810991096115710581059105B9F761
S11346000895E0E4F6E080EB818390E49283848370
S113461083E58093C00882E08093610608958093C7
S1134620C308E0ECF8E082818823ECF708958FEF6B
S1134630F6DF8091C30808951F93CF93DF9312E0B0
S113464010936606ECDFF3DFC82FD0E0DC2FCC2715
S1134650EEDFC80FD11D1093650666ED74E180E0AE
S113466090E0C4DFCE01DF91CF911F910895CF93E5
S1134670C2E0C09366068EE1D2DFC093650666E5AC
S113468070ED80E090E0B2DF82EAD6DF80935725B8
S11346909093582584EAD0DF80935B2590935C2522
S11346A086EACADF8093592590935A2588EAC4DFA5
S11346B080936125909362258AEABEDF80935F250B
S11346C0909360258CEAB8DF80935D2590935E25F6
S11346D0CF9108958F929F92AF92BF92CF92DF9223
S11346E0EF92FF921F93CF93DF930F2EF6E6EF2EF8
S11346F0F6E0FF2EF02D12E0F701108390DFC5E6FF
S1134700D6E0188366E570ED80E090E06FDFF70196
S1134710108380E084DF8BDFC82ED12CE12CF12CB8
S113472056019924882483DFC82ED12CE12CF12C46
S1134730FE2CED2CDC2CCC24C80CD91CEA1CFB1C54
S113474076DF1883A7019601280F311D411D511DE5
S1134750CA01B901DF91CF911F91FF90EF90DF90D3
S1134760CF90BF90AF909F908F9008952F923F92DB
S11347704F925F926F927F928F929F92AF92BF926D
S1134780CF92DF92EF92FF920F931F93CF93DF9319
S1134790CDB7DEB76997CDBFDEBF88E49BDF1B01D1
S11347A02C0188E597DF20915F25309160258901F0
S11347B020E030E0322F212F102F00276B017C01E5
S11347C0C01AD10AE20AF30AC986DA86EB86FC86A5
S11347D0FF0CCC08DC2C7601CD86DE86EF86F88AC9
S11347E040915D2550915E25A984BA84CB84DC84F4
S11347F0ED84FE2C0E2D1E2D242F352F40E050E08D
S113480060E070E080E090E00E94C333F22E032F5A
S1134810142FB52FF62FE72F898B692EA0E00E9465
S1134820693484F42150310940485F4F6F4F7F4F02
S11348308F4F9F4FF22E032F142FB52FF62FE72FF4
S1134840898B692E2F2D302F412F5B2F6F2F7E2FB9
S11348508989962D07E10E942D34822E932EA42E51
S1134860B52EA50194012053384F4F4F5F4F298B2C
S11348703A8B4B8B5C8B5F934F933F932F938EEFCD
S113488090E29F938F930E94F33540915925509164
S11348905A25A984BA84CB84DC84ED84FE2C0E2DA5
S11348A01E2D242F352F40E050E060E070E080E0C2
S11348B090E00E94C333F22E032F142FB52FF62F4E
S11348C0E72F8D8B692E0F900F900F900F900F9004
S11348D00F90A0E00E9469345CF4AFE70E94543466
S11348E0F22E032F142FB52FF62FE72F8D8B692E61
S11348F02F2D302F412F5B2F6F2F7E2F8D89962DDB
S113490007E00E942D34622E732E842E952EB62F2E
S1134910A72FF82FE92FA0905725B09058252A2DBE
S11349203B2D40E050E060E070E080E090E000E18A
S11349300E941434A22EB32EC42ED52EE62EF72EAA
S1134940082F192F262D372D482D592D6B2F7A2FEF
S11349508F2F9E2F0E944B34A22CB32CC42CD52C09
S1134960E12CF12C00E010E00E94C333F22E032F5F
S1134970142FB52FF62FE72F582E692EA0E00E9492
S1134980693484F421503109404E5F4F6F4F7F4F9B
S11349908F4F9F4FF22E032F142FB52FF62FE72F93
S11349A0582E692E2F2D302F412F5B2F6F2F7E2FE6
S11349B0852D962D05E10E942D34622E732E842EB2
S11349C05D8B6E8B7F8B888F998F40916125509181
S11349D06225A984BA84CB84DC84ED84FE2C0E2D5C
S11349E01E2D242F352F40E050E060E070E080E081
S11349F090E00E94C333E22F532E442E352E262EF0
S1134A00972EA82EB92EA0E00E9469345CF4AFE37F
S1134A100E945434E22F532E442E352E262E972EE8
S1134A20A82EB92E2E2F352D442D532D622D792DE0
S1134A308A2D9B2D06E00E942D34222E332E442EE7
S1134A40552EB62FA72FF82FE92FA0905B25B090F5
S1134A505C252A2D3B2D40E050E060E070E080E0D2
S1134A6090E001E10E941434A22EB32EC42ED52E60
S1134A70E62EF72E082F192F222D332D442D552DD8
S1134A806B2F7A2F8F2F9E2F0E944B34A22EB32E82
S1134A90C42ED52EE62EF72E082F192F262D372DAE
S1134AA0482D5D896E897F89888D998D0E94603437
S1134AB0F22E032F142FB52FF62FE72F582E692E21
S1134AC0A0E00E94693484F4215030484F4F5F4F76
S1134AD06F4F7F4F8F4F9F4FF22E032F142FB52F01
S1134AE0F62FE72F582E692E2F2D302F412F5B2FB5
S1134AF06F2F7E2F852D962D0FE00E942D34622F6F
S1134B00732F942FC988DA88EB88FC88C982DA82EB
S1134B10EB82FC822D833E834F83588729893A8117
S1134B204B815C81892F98856996CDBFDEBFDF916B
S1134B30CF911F910F91FF90EF90DF90CF90BF9096
S1134B40AF909F908F907F906F905F904F903F9029
S1134B502F900895FF920F931F93CF93DF93E0E07C
S1134B60F6E080E482838FEB8083C0E0D2E0FF2410
S1134B70F394F882198280E18A8385E08C8361E270
S1134B8070E082E00E94E518082F10E0102F002743
S1134B9060E270E082E00E94E518082B0C871D8714
S1134BA0F8A286E089A3DF91CF911F910F91FF9026
S1134BB00895E0E0F8E025E0208323E0218386A344
S1134BC097A308958F929F92AF92BF92CF92DF9254
S1134BD0EF92FF92CF93DF936B017C01C0E0DAE0A8
S1134BE085E0888383E0898380E792E08EA39FA396
S1134BF06EA17FA180E090E00E942B2E4B015C010E
S1134C00A701960160E070E080E89FE3C0D69B01B5
S1134C10AC01C501B4010E940D2FF1D768A779A793
S1134C20DF91CF91FF90EF90DF90CF90BF90AF9046
S1134C309F908F9008951F920F920FB60F92112498
S1134C4008B60F9218BE8F9381E0809327068F9148
S1134C500F9008BE0F900FBE0F901F9018951F92D3
S1134C600F920FB60F92112408B60F9218BE8F93AD
S1134C708EE1809307068F910F9008BE0F900FBEB0
S1134C800F901F901895CF93DF93EB010E94F718B4
S1134C908883DF91CF9108950C94EF180895CF93F2
S1134CA0DF93CDB7DEB72797CDBFDEBFE0E6F6E0F2
S1134CB088E081838583E0E4F6E08183858380EA6C
S1134CC099E080934D2590934E258CE496E2809351
S1134CD04B2590934C2583E496E280934925909349
S1134CE04A25E9E3F0E284818D8385818E83868180
S1134CF08F8380819181A281B38189839A83AB83DD
S1134D00BC8360E184E00E94B616BE016F5F7F4FF2
S1134D1080EA99E00E94101A6CEC76E185EE96E147
S1134D200E946D35E2E3F0E284818D8385818E8378
S1134D3086818F8380819181A281B38189839A83C3
S1134D40AB83BC8360E183E00E94B616BE016F5F53
S1134D507F4F80EA98E00E94101A2796CDBFDEBFED
S1134D60DF91CF9108951F920F920FB60F921124E5
S1134D7008B60F9218BE09B60F9219BE0BB60F9261
S1134D801BBE2F933F934F935F936F937F938F93A8
S1134D909F93AF93BF93EF93FF9380EA99E00E94B0
S1134DA0F71880936325E09163258E2FEE0F990BFE
S1134DB0AA0BBB0BFC01B197EF33F10538F588273B
S1134DC0E250FF4F8F4F0C949F330E94D4031EC0B8
S1134DD0109264251BC081E08093642517C082E093
S1134DE08093642513C083E0809364250FC00E94E0
S1134DF0C01E0CC00E94D51E09C00E94EA1E06C037
S1134E000E94FF1E03C004D801C00BD8FF91EF918C
S1134E10BF91AF919F918F917F916F915F914F91CE
S1134E203F912F910F900BBE0F9009BE0F9008BEBB
S1134E300F900FBE0F901F90189504C06150710918
S1134E40810991096115710581059105B9F70895E5
S1134E50009709F45CC1803C910529F460E180E08D
S1134E600C94B6160895803424E0920729F468E07F
S1134E7080E00C94B6160895811524E0920729F475
S1134E8064E080E00C94B6160895803821E092071F
S1134E9029F462E080E00C94B6160895811521E0AF
S1134EA0920729F461E080E00C94B61608958038E6
S1134EB023E0920729F461E081E00C94B61608958A
S1134EC0803923E0920729F461E082E00C94B6165D
S1134ED00895811522E0920729F462E081E00C94A0
S1134EE0B6160895803422E0920729F462E082E045
S1134EF00C94B6160895811523E0920729F464E012
S1134F0081E00C94B6160895803223E0920729F4C8
S1134F1064E082E00C94B6160895811528E09207A7
S1134F2029F461E083E00C94B6160895811529E014
S1134F30920729F461E084E00C94B6160895811573
S1134F402AE0920729F461E085E00C94B6160895EE
S1134F5081152BE0920729F461E086E00C94B616E3
S1134F600895803428E0920729F462E083E00C94E9
S1134F70B6160895803429E0920729F462E084E0AB
S1134F800C94B616089580342AE0920729F462E05E
S1134F9085E00C94B616089580342BE0920729F42A
S1134FA062E086E00C94B6160895803928E09207F2
S1134FB029F464E083E00C94B6160895803929E05E
S1134FC0920729F464E084E00C94B61608958039BD
S1134FD02AE0920729F464E085E00C94B61608955B
S1134FE080392BE0920729F464E086E00C94B6162D
S1134FF00895803C28E0920729F468E083E00C944B
S1135000B6160895803C29E0920729F468E084E00C
S11350100C94B6160895803C2AE0920729F468E0BF
S113502085E00C94B6160895803C2BE0920729F491
S113503068E086E00C94B6160895803A28E092075A
S113504029F460E183E00C94B6160895803A29E0CF
S1135050920729F460E184E00C94B6160895803A2E
S11350602AE0920729F460E185E00C94B6160895CD
S1135070803A2BE0920729F460E186E00C94B6169E
S11350800895803B28E0920729F460E283E00C94C1
S1135090B6160895803B29E0920729F460E284E083
S11350A00C94B6160895803B2AE0920729F460E236
S11350B085E00C94B6160895803B2BE0920729F402
S11350C060E286E00C94B6160895803824E09207D6
S11350D029F460E483E00C94B6160895803924E042
S11350E0920729F460E484E00C94B6160895803A9B
S11350F024E0920729F460E485E00C94B616089540
S1135100803B944021F460E486E00C94B616089544
S1135110FC0120812A3079F0319621E030E0819140
S11351208A3061F02F5F3F4F211584E03807B9F7CB
S113513080E094E0089580E090E00895822F932F1A
S11351400895CF93DF93CDB7DEB7C05CD109CDBF4F
S1135150DEBF0E94811680E099E07ADE68E083E099
S11351600E94B61664E083E00E94B61664E084E010
S11351700E94B61664E085E00E94B61664E086E0FC
S11351800E94B61680E09AE063DE80E098E060DE7C
S113519080EA98E05DDE80EB99E05ADE80DD80EC09
S11351A098E056DE2EDA63DA80E092E051DED2DC5B
S11351B08E010F5F1F4F89E0D8011D928A95E9F790
S11351C080E89AE1A6E0B0E089839A83AB83BC834C
S11351D083E290E0A0E0B0E08D839E83AF83B88744
S11351E080E894E035DEB80180E894E00E945B0337
S11351F0E0E8F4E08181886081830E94A504B6DA46
S1135200A0962FAFA097A1963FAFA197A2964FAFBC
S1135210A297A3965FAFA397A4966FAFA497A59602
S11352207FAFA597A6968FAFA697A7969FAFA79790
S1135230A7962CAD3DAD4EAD5FADA797C754DF4FDC
S1135240288339834A835B83C95BD0400E94981BBF
S11352500E94EA030E94F2030E94FF1E81E08093F1
S11352600608E0EAF0E087E0828382818F77828318
S11352701182789410E0C354DF4F188219821A8285
S11352801B82CD5BD040C356DF4F188219821A822D
S11352901B82CD59D040C12CD12C7601AE01465F82
S11352A05F4F4A01CB56DF4FC882D982C559D040DF
S11352B05DDA062FB72EA82E392ECB57DF4F288361
S11352C0C558D040CA57DF4F3883C658D040C95755
S11352D0DF4F4883C758D040C857DF4F5883C8585A
S11352E0D040C757DF4F6883C958D040C657DF4FF7
S11352F07883CA58D040C557DF4F8883CB58D040F5
S1135300C457DF4F9883CC58D040CB57DF4F8881A8
S11353109981AA81BB81C558D0408093532590932D
S11353205425A0935525B0935625202F3B2D4A2D67
S1135330532DC754DF4F688179818A819B81C95B72
S1135340D0400E94711B56D4C357DF4F68837983C2
S11353508A839B83CD58D04080D420E030E040E065
S11353605FE35BD52B013C01C356DF4F6881798134
S11353708A819B81CD59D04070D420E030E040E058
S11353805FE34BD59B01AC01C301B20101D332D41D
S1135390C356DF4F688379838A839B83CD59D0407A
S11353A05FEFC51AD50AE50AF50A80913D238130DD
S11353B009F090C09FB7F89485E5EDEDF4E2D401CF
S11353C001900D928A95E1F79FBFC401A1DE880D7B
S11353D0991DDC011C92F40101900020E9F731973A
S11353E0AF0148195909B401CE0189599F4F0E9450
S11353F0F61BC358DF4F688179818A819B81CD5721
S1135400D040E2962CAD3DAD4EAD5FADE297CF56A8
S1135410DF4F288339834A835B83C159D040ED969B
S11354204CAC5DAC6EAC7FACED9710923D23CC5789
S1135430DF4F2881C458D040222319F02FB7F894A5
S11354402FBFDDD3CB54DF4F6883C55BD040CA5434
S1135450DF4F7883C65BD040C954DF4F8883C75B76
S1135460D040C854DF4F9883C85BD040CF56DF4F3D
S1135470688179818A819B81C159D040C0D3C35549
S1135480DF4F6883CD5AD040C255DF4F7883CE5A60
S1135490D040C155DF4F8883CF5AD040C055DF4F2D
S11354A09883C05BD040C301B201A9D3CF54DF4F6E
S11354B06883C15BD040CE54DF4F7883C25BD04059
S11354C0CD54DF4F8883C35BD040CC54DF4F9883E7
S11354D0C45BD04060E070E0CE0189599F4F0E94C8
S11354E0B10420E030E040E05FE3CF55DF4FB88106
S11354F0C15AD040CE55DF4FA881C25AD040CD55B5
S1135500DF4FF881C35AD040CC55DF4FE881C45AED
S1135510D0406B2F7A2F8F2F9E2F7FD42B013C01ED
S113552020E030E040E05FE3AB966CAD7DAD8EAD46
S11355309FADAB9772D4A30192012AD2CF56DF4F0D
S11355406883C159D040C956DF4F7883C759D040CA
S1135550282EC856DF4F9883C859D040CF55DF4F07
S11355606883C15AD040CE55DF4F7883C25AD040A9
S1135570CD55DF4F8883C35AD040CC55DF4F988335
S1135580C45AD04020E030E040E05FE3CB55DF4F29
S1135590B881C55AD040CA55DF4FA881C65AD040F9
S11355A0C955DF4FF881C75AD040C855DF4FE8814D
S11355B0C85AD0406B2F7A2F8F2F9E2F2ED42B01B9
S11355C03C0120E030E040E05FE3AF966CAD7DADA0
S11355D08EAD9FADAF9721D4A3019201D9D1C75607
S11355E0DF4F6883C959D040C656DF4F7883CA5904
S11355F0D040C556DF4F8883CB59D040C456DF4FC7
S11356009883CC59D040CB55DF4F6883C55AD040DE
S1135610CA55DF4F7883C65AD040C955DF4F8883B7
S1135620C75AD040C855DF4F9883C85AD04020E0AD
S113563030E040E05FE3C755DF4FB881C95AD0403E
S1135640C655DF4FA881CA5AD040C555DF4FF881EF
S1135650CB5AD040C455DF4FE881CC5AD0406B2F91
S11356607A2F8F2F9E2FD9D32B013C0120E030E0DD
S113567040E05FE3E3966CAD7DAD8EAD9FADE39707
S1135680CCD3A301920184D1762E672E582E492EB5
S1135690C755DF4F6883C95AD040C655DF4F78835A
S11356A0CA5AD040C555DF4F8883CB5AD040C45521
S11356B0DF4F9883CC5AD040EEE1A0E0B6E0EC9303
S11356C0A4E0B6E0EC9366E578E584E190E0B5DB30
S11356D0A4E0B6E01C9266E578E584E190E0ADDBF9
S11356E01F921F934F925F926F927F92C456DF4F27
S11356F0B881CC59D040BF93C556DF4FE881CB5910
S1135700D040EF93C656DF4FF881CA59D040FF937B
S1135710C756DF4F2881C959D0402F93C856DF4F51
S11357203881C859D0403F932F92C956DF4F4881E2
S1135730C759D0404F93CF56DF4F5881C159D040FD
S11357405F931F921F921F921F92C854DF4F88814C
S1135750C85BD0408F93C954DF4F9881C75BD0405A
S11357609F93CA54DF4FA881C65BD040AF93CB54FC
S1135770DF4FB881C55BD040BF93CC54DF4FE88185
S1135780C45BD040EF93CD54DF4FF881C35BD0406E
S1135790FF93CE54DF4F2881C25BD0402F93CF5468
S11357A0DF4F3881C15BD0403F93C055DF4F488104
S11357B0C05BD0404F93C155DF4F5881CF5AD04082
S11357C05F93C255DF4F8881CE5AD0408F93C35523
S11357D0DF4F9881CD5AD0409F931F921F921F9202
S11357E01F921F921F921F921F9280915325909196
S11357F05425A0915525B0915625BC01CD016E5C70
S11358007F4F8F4F9F4F24E630E040E050E07BD73E
S11358105F934F933F932F933F92AF92BF920F9317
S1135820C057DF4FA881C059D040AF93C157DF4F55
S1135830B881CF58D040BF93C257DF4FE881CE58CC
S1135840D040EF93C357DF4FF881CD58D040FF933A
S1135850CA56DF4F2881C659D0402F93CB56DF4F0D
S11358603881C559D0403F93FF92EF92DF92CF9297
S113587044E14F9352E45F9388E091E29F938F93C6
S11358800E94F335CDBFDEBF111140C060E070E06F
S113589080E49FE397D9C354DF4F88819981AA811B
S11358A0BB81CD5BD040C357DF4F288139814A810A
S11358B05B81CD58D040821B930BA40BB50BC397CF
S11358C0A105B10534F031E03093810630938506AB
S11358D011E0C354DF4F88819981AA81BB81CD5BDC
S11358E0D040C357DF4F288139814A815B81CD582D
S11358F0D04082179307A407B50744F4C354DF4F7D
S1135900288339834A835B83CD5BD0401130A1F473
S1135910C357DF4F88819981AA81BB81CD58D0407C
S11359208C329140A105B1050CF0BCCCF0E8F093A9
S11359300106F093050603C0123009F0B3CCC35638
S1135940DF4F88819981AA81BB81CD59D040C3574B
S1135950DF4F288139814A815B81CD58D040821B39
S1135960930BA40BB50B0397A105B10564F4223383
S11359703105410551054CF462E370E088E690E09E
S113598018D913E08FCC12E08DCC12E08BCC505898
S1135990BB27AA270ED0FCC1EDD130F0F2D120F004
S11359A031F49F3F11F41EF4BDC10EF4E095E7FB02
S11359B0B3C1E92FFED180F3BA17620773078407D6
S11359C0950718F071F49EF516C20EF4E0950B2EAF
S11359D0BA2FA02D0B01B90190010C01CA01A0013D
S11359E01124FF27591B99F0593F50F4503E68F198
S11359F01A16F040A22F232F342F4427585FF3CFD9
S1135A00469537952795A795F0405395C9F77EF4A9
S1135A101F16BA0B620B730B840BBAF09150A1F0F2
S1135A20FF0FBB1F661F771F881FC2F70EC0BA0F78
S1135A30621F731F841F48F4879577956795B79500
S1135A40F7959E3F08F0B3CF9395880F08F09927F8
S1135A50EE0F9795879508958DD158F080E891E0E1
S1135A6009F49EEF8ED128F040E851E059F45EEF3E
S1135A7009C058C1C0C1E92FE0789BD168F3092E51
S1135A80052AC1F3261737074807590738F00E2EA1
S1135A9007F8E02569F0E025E0640AC0EF6307F841
S1135AA0009407FADB01B9019D01DC01CA01AD01D3
S1135AB0EF9347D06DD10AD05F91552331F02BED90
S1135AC03FE049E450FD49EC63CF0895DF93DD27BF
S1135AD0B92FBF7740E85FE31616170648075B0740
S1135AE010F4D92F93D19F938F937F936F933AD2CE
S1135AF0EAE7F2E01AD14CD12F913F914F915F9197
S1135B0098D1DD2349F09058A2EA2AED3FE049EC10
S1135B105FE3D0785D274DDFDF913AC1D9D008F437
S1135B2081E008950CD034C12CD140F023D130F061
S1135B3021F45F3F19F0F0C051115EC1F3C039D1B7
S1135B4098F39923C9F35523B1F3951B550BBB2740
S1135B50AA2762177307840738F09F5F5F4F220FED
S1135B60331F441FAA1FA9F333D00E2E3AF0E0E8E6
S1135B7030D091505040E695001CCAF729D0FE2F32
S1135B8027D0660F771F881FBB1F261737074807C4
S1135B90AB07B0E809F0BB0B802DBF01FF2793587A
S1135BA05F4F2AF09E3F510568F0B6C025C15F3FA4
S1135BB0ECF3983EDCF3869577956795B795F79562
S1135BC09F5FC9F7880F911D9695879597F908955A
S1135BD0E1E0660F771F881FBB1F621773078407F6
S1135BE0BA0720F0621B730B840BBA0BEE1F88F705
S1135BF0E095089504D06894B111FEC00895E1D0F1
S1135C0088F09F5790F0B92F9927B751A0F0D1F0A1
S1135C10660F771F881F991F1AF0BA95C9F712C02B
S1135C20B13081F0E8D0B1E00895E5C0672F782F56
S1135C308827B85F39F0B93FCCF386957795679597
S1135C40B395D9F73EF490958095709561957F4F03
S1135C508F4F9F4F0895E89409C097FB3EF49095A9
S1135C608095709561957F4F8F4F9F4F9923A9F031
S1135C70F92F96E9BB279395F695879577956795C0
S1135C80B795F111F8CFFAF4BB0F11F460FF1BC004
S1135C906F5F7F4F8F4F9F4F16C0882311F096E997
S1135CA011C0772321F09EE8872F762F05C0662345
S1135CB071F096E8862F70E060E02AF09A95660FFE
S1135CC0771F881FDAF7880F9695879597F90895B7
S1135CD0990F0008550FAA0BE0E8FEEF16161706F9
S1135CE0E807F907C0F012161306E407F50798F061
