S019000043616E5361742050726F626520436F64652E737265631E
S1130000BDC10000E1C100000C943F0DDDC1000042
S1130010DBC10000D9C10000D7C10000D5C1000078
S1130020D3C10000D1C10000CFC10000CDC1000088
S1130030CBC1000061C200000C948710C5C1000050
S1130040C3C10000C1C10000BFC10000BDC10000A8
S1130050BBC10000B9C10000B7C10000B5C10000B8
S1130060B3C10000B1C10000AFC10000ADC10000C8
S1130070ABC10000A9C10000A7C10000A5C10000D8
S1130080A3C10000A1C100009FC100009DC10000E8
S11300909BC1000099C1000097C10000C1C50000C8
S11300A0FCC5000037C6000072C600008DC1000008
S11300B08BC1000089C1000083C2000085C100001B
S11300C083C1000081C100007FC100007DC1000028
S11300D07BC1000079C1000077C1000075C1000038
S11300E073C1000071C100006FC100006DC1000048
S11300F06BC1000069C1000067C1000065C1000058
S113010063C1000061C100005FC100005DC1000067
S11301105BC1000059C1000057C100008DC400003C
S1130120C8C4000003C500003EC500004DC1000066
S113013015C200000C949B1047C1000045C100008B
S113014043C1000041C100003FC100003DC10000A7
S11301503BC1000039C1000037C1000035C10000B7
S11301600C941F1131C100002FC10000B8C200005F
S11301702BC1000017C3000027C1000025C10000E7
S113018023C1000021C100001FC100001DC10000E7
S11301901BC1000019C1000017C1000015C10000F7
S11301A013C1000011C100000FC100003BC20000D8
S11301B00BC1000009C1000007C1000005C1000017
S11301C003C1000001C10000FFC00000FDC0000029
S11301D0FBC00000F9C00000F7C00000F5C000003B
S11301E0F3C00000F1C00000EFC00000EDC000004B
S11301F0EBC00000E9C00000E7C0000051116E111F
S113020057115B115F1165116E1169116B11671143
S11302106E116E116E116E116E116E116E116E11E2
S11302206E116E116E116E116E116E116E116E11D2
S11302306E116E116E116E116E1154116E116E11DC
S11302406E116E116E116E116E116E116E116E11B2
S11302506E116E116E116E116E116E116E116E11A2
S11302606E116E116E116E116E116E116E116E1192
S11302706E116E116E1163116D116E616E00696EF7
S1130280660000407A10F35A00A0724E180900105C
S1130290A5D4E80000E87648170000E40B540200F7
S11302A000CA9A3B000000E1F50500008096980022
S11302B0000040420F000000A0860100000010274B
S11302C000000000E80300000000640000000000DB
S11302D00A00000000000100000000002C76D8880D
S11302E0DC674F0823DFC1DFAE59E1B1B796E5E320
S11302F0E453C63AE651997696E8E6C28426EB8939
S11303008C9B62ED407C6FFCEFBC9C9F40F2BAA5D5
S11303106FA5F490055A2AF75C936B6CF9676DC16D
S11303201BFCE0E40D47FEF520E6B500D0ED902E71
S11303300300943577050080841E080000204E0ACF
S1130340000000C80C333333330F986E128311410D
S1130350EF8D2114893BE65516CFFEE6DB18D184D8
S11303604B381BF77C1D901DA4BBE42420328472FF
S11303705E228100C9F124ECA1E53D2711241FBEB2
S1130380CFEFCDBFDFE3DEBF00E00CBF18BE19BE68
S11303901ABE1BBE10E2A0E0B0E2ECE1FFE300E015
S11303A00BBF02C007900D92A436B107D9F71BBE4C
S11303B023E2A4E6B0E201C01D92A634B207E1F73D
S11303C00E94F0120C948C1F1BCECF93DF93E0910C
S11303D06420F0916520848183FF08C08860848351
S11303E083E0838386EF80936E2083C0982F94717B
S11303F031F083E083838FEF80936E207AC086FF91
S113040043C0C4E6D0E2AA81BB818C819D8114964D
S11304102D913C911597821793076CF49C012F5FE3
S11304203F4F2093682030936920A80FB91F11967D
S11304308C9187835EC080916A2090916B2018967E
S11304402D913C91199782179307C8F420916C2041
S1130450222321F08681816086834BC016962D91DC
S11304603C911797AC014F5F5F4F40936A205093C4
S11304706B20D901A80FB91F8C9187833AC083E000
S1130480838310926E2035C0882384F5A4E6B0E2FD
S11304901296CD91DC91139716968D919C91179796
S11304A02885398582179307D8F46E817F819C0152
S11304B02F5F3F4F20936A2030936B204781DB01ED
S11304C0A80FB91F4C93888599852817390718F404
S11304D082E083830EC087E0838310926E2009C07C
S11304E083E0838389EF80936E2003C08BEF809336
S11304F06E20DF91CF9108951F920F920FB60F9245
S1130500112408B60F9218BE09B60F9219BE0BB685
S11305100F921BBE2F933F934F935F936F937F93E1
S11305208F939F93AF93BF93EF93FF934EDFFF910E
S1130530EF91BF91AF919F918F917F916F915F9157
S11305404F913F912F910F900BBE0F9009BE0F90CA
S113055008BE0F900FBE0F901F9018951F920F9218
S11305600FB60F92112408B60F9218BE09B60F9257
S113057019BE0BB60F921BBE2F933F934F935F93FD
S11305806F937F938F939F93AF93BF93EF93FF9357
S11305901CDFFF91EF91BF91AF919F918F917F915C
S11305A06F915F914F913F912F910F900BBE0F90E0
S11305B009BE0F9008BE0F900FBE0F901F901895A4
S11305C01F920F920FB60F92112408B60F9218BE05
S11305D009B60F9219BE0BB60F921BBE2F933F9311
S11305E04F935F936F937F938F939F93AF93BF9337
S11305F0EF93FF93EADEFF91EF91BF91AF919F914B
S11306008F917F916F915F914F913F912F910F90B7
S11306100BBE0F9009BE0F9008BE0F900FBE0F9037
S11306201F9018951F920F920FB60F92112408B6BF
S11306300F9218BE09B60F9219BE0BB60F921BBECD
S11306402F933F934F935F936F937F938F939F93D6
S1130650AF93BF93EF93FF93B8DEFF91EF91BF91F8
S1130660AF919F918F917F916F915F914F913F9146
S11306702F910F900BBE0F9009BE0F9008BE0F90E4
S11306800FBE0F901F90189563E080E890E0BCD3F4
S1130690E0E8F0E0828180FDFDCF6BE281E890E04C
S11306A0B3D3E0E8F0E0828180FDFDCFA895FFCFD1
S11306B084E18093B30910921E2310922921089596
S11306C040E051E061E871E281E291E2A8D040E4C7
S11306D050E061E872E281EC92E2A1C008951F92B9
S11306E00F920FB60F92112408B60F9218BE09B6D6
S11306F00F9219BE0BB60F921BBE2F938F939F932D
S1130700AF93BF93EF93FF939091B00980918021B1
S1130710813051F420911E23E22FF0E0E753FD4D88
S113072090832F5F20931E239A3039F480932921DC
S1130730109280211092202123C0943211F4882336
S1130740D9F0809120218823D9F08530B1F49734F1
S1130750A1F481E08093802185E0EBE1F0E2A9EC53
S1130760B2E201900D928A95E1F785E080931E2311
S113077086E08093202104C081E08F5F8093202154
S1130780FF91EF91BF91AF919F918F912F910F9016
S11307900BBE0F9009BE0F9008BE0F900FBE0F90B6
S11307A01F9018951F920F920FB60F92112408B63E
S11307B00F9218BE09B60F9219BE0BB60F921BBE4C
S11307C02F933F934F935F936F937F938F939F9355
S11307D0AF93BF93EF93FF9341E050E060EB79E078
S11307E081EC92E238D061E070E081EC92E283D057
S11307F0FF91EF91BF91AF919F918F917F916F91F5
S11308005F914F913F912F910F900BBE0F9009BEB6
S11308100F9008BE0F900FBE0F901F901895FC010B
S113082012821382148215826683778340835183F4
S11308300895FC0182819381448155818417950731
S113084018F0841B950B089520813181820F931F2A
S1130850841B950B08958F929F92AF92BF92CF9273
S1130860DF92EF92FF920F931F93CF93DF938C014C
S11308706A01DC011496CD91DC911597E62EF72ED2
S1130880A12CB12C842E9D2C18C0D8011696ED9164
S1130890FC911797EC0FFD1F8081F70181937F0175
S11308A08D919C910197C817D90711F0219602C028
S11308B0C0E0D0E0FFEFAF1ABF0AC801BADF9C0165
S11308C0C816D90610F4282D392DA216B306E8F25D
S11308D021E08C159D0508F020E0822FDF91CF9157
S11308E01F910F91FF90EF90DF90CF90BF90AF904A
S11308F09F908F9008950F931F93CF93DF93EC01F4
S11309008B0197DF9C010817190708F49801281731
S1130910390768F08C819D81820F931F68817981EA
S11309200E94331B8C839D838A839B830AC08C81A2
S11309309D81820F931F688179810E94331B8C8370
S11309409D83DF91CF911F910F910895CF93DF93F2
S11309501F921F92CDB7DEB78FEF80937000809304
S1130960710080937200809373008093740080936D
S11309707500809376008FB78A83F8949A81E0E5B6
S1130980F0E08081826080839FBF818181FFFDCF01
S113099061E080E490E038D28FB78983F89499813C
S11309A0E0E5F0E080818E7F80839FBF0F900F9001
S11309B0DF91CF910895CF93DF931F92CDB7DEB728
S11309C09FB79983F8949981E82FF0E0E059FF4F9D
S11309D060958081682360839FBF0F90DF91CF91E2
S11309E00895CF93DF931F92CDB7DEB78091242370
S11309F090912523E0912023F0912123BE016F5F84
S1130A007F4F19958981082E000C990B0F90DF9167
S1130A10CF910895682F8091242390912523E0910C
S1130A202223F0912323199599231CF081E090E06F
S1130A3008958FEF9FEF08951F920F920FB60F92B4
S1130A40112408B60F9218BE09B60F9219BE0BB640
S1130A500F921BBE2F933F934F935F936F937F939C
S1130A608F939F93AF93BF93EF93FF93409124028F
S1130A7050912502E0912823F091292361E080E040
S1130A8092E01995FF91EF91BF91AF919F918F9152
S1130A907F916F915F914F913F912F910F900BBE7A
S1130AA00F9009BE0F9008BE0F900FBE0F901F90BD
S1130AB018951F920F920FB60F92112408B60F9239
S1130AC018BE09B60F9219BE0BB60F921BBE2F9318
S1130AD03F934F935F936F937F938F939F93AF93C2
S1130AE0BF93EF93FF9340912C0250912D02E0911C
S1130AF02823F091292362E080E092E01995FF9188
S1130B00EF91BF91AF919F918F917F916F915F9181
S1130B104F913F912F910F900BBE0F9009BE0F90F4
S1130B2008BE0F900FBE0F901F9018951F920F9242
S1130B300FB60F92112408B60F9218BE09B60F9281
S1130B4019BE0BB60F921BBE2F933F934F935F9327
S1130B506F937F938F939F93AF93BF93EF93FF9381
S1130B604091340250913502E0912823F0912923D9
S1130B7064E080E092E01995FF91EF91BF91AF910D
S1130B809F918F917F916F915F914F913F912F91A1
S1130B900F900BBE0F9009BE0F9008BE0F900FBEB2
S1130BA00F901F9018951F920F920FB60F92112459
S1130BB008B60F9218BE09B60F9219BE0BB60F9263
S1130BC01BBE2F933F934F935F936F937F938F93AA
S1130BD09F93AF93BF93EF93FF9340913C02509147
S1130BE03D02E0912823F091292368E080E092E01F
S1130BF01995FF91EF91BF91AF919F918F917F9143
S1130C006F915F914F913F912F910F900BBE0F9079
S1130C1009BE0F9008BE0F900FBE0F901F9018953D
S1130C201F920F920FB60F92112408B60F9218BE9E
S1130C3009B60F9219BE0BB60F921BBE2F933F93AA
S1130C404F935F936F937F938F939F93AF93BF93D0
S1130C50EF93FF934091640250916502E091262343
S1130C60F091272361E080E492E01995FF91EF91E0
S1130C70BF91AF919F918F917F916F915F914F91B0
S1130C803F912F910F900BBE0F9009BE0F9008BE9D
S1130C900F900FBE0F901F9018951F920F920FB6D2
S1130CA00F92112408B60F9218BE09B60F9219BEFE
S1130CB00BB60F921BBE2F933F934F935F936F938B
S1130CC07F938F939F93AF93BF93EF93FF93409141
S1130CD06C0250916D02E0912623F091272362E08B
S1130CE080E492E01995FF91EF91BF91AF919F91AC
S1130CF08F917F916F915F914F913F912F910F90C1
S1130D000BBE0F9009BE0F9008BE0F900FBE0F9040
S1130D101F9018951F920F920FB60F92112408B6C8
S1130D200F9218BE09B60F9219BE0BB60F921BBED6
S1130D302F933F934F935F936F937F938F939F93DF
S1130D40AF93BF93EF93FF93409174025091750258
S1130D50E0912623F091272364E080E492E0199542
S1130D60FF91EF91BF91AF919F918F917F916F917F
S1130D705F914F913F912F910F900BBE0F9009BE41
S1130D800F9008BE0F900FBE0F901F9018951F92E2
S1130D900F920FB60F92112408B60F9218BE09B61F
S1130DA00F9219BE0BB60F921BBE2F933F934F9316
S1130DB05F936F937F938F939F93AF93BF93EF93BF
S1130DC0FF9340917C0250917D02E0912623F091A3
S1130DD0272368E080E492E01995FF91EF91BF9199
S1130DE0AF919F918F917F916F915F914F913F91BF
S1130DF02F910F900BBE0F9009BE0F9008BE0F905D
S1130E000FBE0F901F9018951BBEFC0128ED24BF48
S1130E10608308954091CA01E62FF72F8093CA0199
S1130E2084914093CA010895FC01918195FFFDCFFF
S1130E30608380E090E00895FC0191819923ECF7B0
S1130E40808108954F925F926F927F928F929F92CA
S1130E50AF92BF92EF92FF920F931F93CF937C01B7
S1130E604A015B0128013901FC01848182FF16C01B
S1130E70D901C801689412F8B695A79597958795F6
S1130E801694D1F7B901A801032E36E1769567953A
S1130E90579547953A95D1F7302D15C0D901C8011A
S1130EA0689413F8B695A795979587951694D1F7F6
S1130EB0B901A801032E37E17695679557954795B3
S1130EC03A95D1F7302D88159905AA05BB0508F484
S1130ED0A6C084169506A606B70608F4A2C0F701B4
S1130EE0848182FD04C0880C991CAA1CBB1CC3010C
S1130EF0B201A50194010E94471B2F3F3105410512
S1130F00510508F490C08FEF90E0A0E0B0E0C9EF85
S1130F1005C0281739074A075B0758F0880F991F3F
S1130F20AA1FBB1FCD3F0CF48160CF5FC73089F788
S1130F304FC0CC230CF04CC0D501C401880F991FBD
S1130F40AA1FBB1F880F991FAA1FBB1F880F991FB9
S1130F50AA1FBB1F481A590A6A0A7B0ACE3FF4F437
S1130F608DEF9FEF8C1B9109C7FD939504C0440C32
S1130F70551C661C771C8A95D2F7D501C401B69519
S1130F80A79597958795BC01CD01640D751D861DA8
S1130F90971DA50194010E94471B37C083E08C0F65
S1130FA0A501940104C0220F331F441F551F8A95C5
S1130FB0D2F7DA01C901B695A79597958795BC0133
S1130FC0CD01640D751D861D971D0E94471B1DC014
S1130FD083E08C0FA501940104C0220F331F441F2A
S1130FE0551F8A95D2F7DA01C901B695A795979549
S1130FF08795BC01CD01640D751D861D971D0E944A
S1131000471B2150310941095109832F8F70C29523
S1131010C07FC82BF701C783268381E018C080E016
S113102016C080E014C0D501C401880F991FAA1FFF
S1131030BB1F880F991FAA1FBB1F880F991FAA1FC8
S1131040BB1F481A590A6A0A7B0AC9EF89CFCF9194
S11310501F910F91FF90EF90BF90AF909F908F9052
S11310607F906F905F904F9008950F931F93CF934D
S1131070DF93EC018B01009709F436C1803C9105A4
S113108021F460E180E097DC2FC1C03484E0D8070C
S113109021F468E080E08FDC27C1C115E4E0DE07BD
S11310A021F464E080E087DC1FC1C038F1E0DF0791
S11310B021F462E080E07FDC17C1C11581E0D8072C
S11310C021F461E080E077DC0FC1C038E3E0DE07A3
S11310D021F461E081E06FDC07C1C039F3E0DF0790
S11310E021F461E082E067DCFFC0C11582E0D8072B
S11310F021F462E081E05FDCF7C0C034E2E0DE07A7
S113110021F462E082E057DCEFC0C115F3E0DF07B1
S113111021F464E081E04FDCE7C0C03283E0D8070B
S113112021F464E082E047DCDFC0C115E8E0DE07BB
S113113021F461E083E03FDCD7C0C115F9E0DF07AB
S113114021F461E084E037DCCFC0C1158AE0D80720
S113115021F461E085E02FDCC7C0C115EBE0DE07B8
S113116021F461E086E027DCBFC0C034F8E0DF078B
S113117021F462E083E01FDCB7C0C03489E0D80703
S113118021F462E084E017DCAFC0C034EAE0DE079B
S113119021F462E085E00FDCA7C0C034FBE0DF0788
S11311A021F462E086E007DC9FC0C03988E0D807FC
S11311B021F464E083E0FFDB97C0C039E9E0DE0797
S11311C021F464E084E0F7DB8FC0C039FAE0DF0784
S11311D021F464E085E0EFDB87C0C0398BE0D807F9
S11311E021F464E086E0E7DB7FC0C03CE8E0DE0792
S11311F021F468E083E0DFDB77C0C03CF9E0DF077F
S113120021F468E084E0D7DB6FC0C03C8AE0D807F3
S113121021F468E085E0CFDB67C0C03CEBE0DE078B
S113122021F468E086E0C7DB5FC0C03AF8E0DF077E
S113123021F460E183E0BFDB57C0C03A89E0D807FE
S113124021F460E184E0B7DB4FC0C03AEAE0DE0796
S113125021F460E185E0AFDB47C0C03AFBE0DF0783
S113126021F460E186E0A7DB3FC0C03B88E0D807FB
S113127021F460E283E09FDB37C0C03BE9E0DE0796
S113128021F460E284E097DB2FC0C03BFAE0DF0783
S113129021F460E285E08FDB27C0C03B8BE0D807F8
S11312A021F460E286E087DB1FC0C038E4E0DE079B
S11312B021F460E483E07FDB17C0C039F4E0DF078A
S11312C021F460E484E077DB0FC0C03A84E0D807FF
S11312D021F460E485E06FDB07C0C03BE4E0DE0797
S11312E019F460E486E067DB8D818F738D83F801E8
S11312F095818481892B9681911198E0892B8D8326
S1131300F801408151816281738100E018E428EE84
S113131031E0CE0197DD9C8198609C839C81906133
S11313209C83DF91CF911F910F9108958F929F928B
S1131330AF92BF92CF92DF92EF92FF9249015A018E
S11313400E94BF166B017C01C501B4010E94BF1647
S11313509B01AC01C701B6010E94C11529EA36E41C
S113136040E451E40E942616FF90EF90DF90CF9066
S1131370BF90AF909F908F900895CF93DF93CDB798
S1131380DEB72797CDBFDEBFE0E6F6E08081806858
S1131390808380818F7B808380E8858360E284E022
S11313A00ADBE6E0F0E284818D8385818E83868189
S11313B08F8380819181A281B38189839A83AB8356
S11313C0BC8360E284E0F7DABE016F5F7F4F80EB9D
S11313D099E04BDE2796CDBFDEBFDF91CF91089514
S11313E0DC01FB018081882301F1082E000C990B9C
S11313F02C9130E082179307D1F490E00BC0022EB9
S1131400000C330BFD01E40FF51F408150E024175D
S1131410350779F49F5F492F50E0FB01E40FF51F76
S113142020812111ECCF81E0089581E0089580E0CE
S1131430089580E008952F923F924F925F926F92A9
S11314407F928F929F92AF92BF92CF92DF92EF9250
S1131450FF920F931F93CF93DF93CDB7DEB7A2977D
S1131460CDBFDEBF4C0169837A83242E61E270E232
S113147089819A81B5DF882309F449C2312C121479
S113148013040CF044C249805A8000E010E0F12CAF
S1131490DF2C48A259A2A8A1B9A18D91A8A3B9A3F0
S11314A08C3209F02EC2D394B1E0DB1223C0E8A140
S11314B0F9A18081880F8056982F990F990F890F71
S11314C091819053890F8D878281880F8056982F40
S11314D0990F990F890F93819053890F8E87848177
S11314E0880F8056A82EAA0CAA0CA80E958190539A
S11314F0A90E07C2F2E0DF12BBC0A8A1B9A18C916A
S11315008C3209F4F0C190E0C0979C01220F331F84
S1131510880F991F880F991F880F991F820F931F97
S113152011962C91119730E0205331092C01420E71
S1131530531E4B865C861296AC91B0E0D09720EA9D
S113154036E841E050E00E94A31B2B013C01E8A1D6
S1131550F9A1A381B0E0D09720E137E20E949D1B5E
S1131560460E571E681E791EA581B0E0D09728EE5E
S113157033E00E949D1B460E571E681E791EA681ED
S1131580B0E0D09724E630E00E949D1BAB01BC0183
S1131590440D551D661D771D9781892F90E0C097D6
S11315A0092E000CAA0BBB0B880F991FAA1FBB1F87
S11315B02C013D01440C551C661C771C440C551C25
S11315C0661C771C840D951DA61DB71D840F951FE1
S11315D0A61FB71F408550E040535109052E000C4B
S11315E0660B770B2C013D01440E551E661E771EBB
S11315F04F82588669867A8682858E3451F0B12C62
S1131600C12C6894EE24E7F80F2EFFEBFF2EF02D8B
S113161009C0B12CC12C6894EE24E7F80F2EFFE327
S1131620FF2EF02D6F81788589859A850E94BF16DB
S113163020E03CE742E159E40E9426162B013C01DC
S11316402B853C85B90180E090E00E94BF169B0188
S1131650AC01C301B2010E94C2152B2D3C2D4E2DAD
S11316605F2D0E944D176F87788B898B9A8B49C1A8
S113167034E0D312C5C0A8A1B9A12C912C3209F42D
S113168037C111968C9190E0C097AC01440F551F5F
S1131690880F991F880F991F880F991F840F951F12
S11316A030E020533109B4E6B29FA001B39F500D3E
S11316B01124840F951FE8A1F9A1228130E0205361
S11316C031092C01420E531E4F8A588EA381B0E07B
S11316D0D09720EA36E841E050E00E94A31B2B019A
S11316E03C01A481B0E0D09720E137E20E949D1B29
S11316F0460E571E681E791EA681B0E0D09728EECC
S113170033E00E949D1B460E571E681E791EA7815A
S1131710B0E0D09724E630E00E949D1BAB01BC01F1
S1131720440D551D661D771D9085892F90E0C09747
S1131730092E000CAA0BBB0B880F991FAA1FBB1FF5
S11317402C013D01440C551C661C771C440C551C93
S1131750661C771C840D951DA61DB71D840F951F4F
S1131760A61FB71F418550E040535109052E000CB8
S1131770660B770B2C013D01440E551E661E771E29
S11317804B8A5C8A6D8A7E8A8385853451F0B12CBC
S1131790C12C6894EE24E7F80F2EFFEBFF2EF02DFA
S11317A009C0B12CC12C6894EE24E7F80F2EFFE396
S11317B0FF2EF02D6B897C898D899E890E94BF162E
S11317C020E03CE742E159E40E9426162B013C014B
S11317D02F89388DB90180E090E00E94BF169B01EB
S11317E0AC01C301B2010E94C2152B2D3C2D4E2D1C
S11317F05F2D0E944D17698F7A8F8B8F9C8F81C0CC
S113180036E0D31206C0A8A1B9A18C9180538D8F64
S113181078C0B9E0DB1275C0E8A1F9A1C080FCE290
S1131820CF1609F46AC0B12C1B821C821D821E8251
S1131830712CE980FA80E00EF11E0E8F1F8F1C2D93
S11318407AA21E3209F442C05AA051101FC020E0EF
S113185030E040E251E46B817C818D819E810E9465
S11318604D172B013C01612F70E060537109072E65
S1131870000C880B990B0E94C116A30192010E94CF
S1131880C2156B837C838D839E8322C0C12E0E8DF3
S11318901F8D6C2D70E060537109072E000C880BAE
S11318A0990B0E94C11620E030E040E251E40E940E
S11318B026169B01AC016B817C818D819E810E94E7
S11318C0C2156B837C838D839E831BC021E02AA376
S11318D0B394F701EB0DF11D11811C3209F0B1CF66
S11318E00E8D1F8D0EC01F86188A198A1A8A09C088
S11318F0198E1A8E1B8E1C8E04C01B821C821D82A4
S11319001E820F5F1F4F0215130509F0C4CD4B84CF
S11319105C84D4014D925C9211974F805884698401
S11319207A8412964D925D926D927C9215978F8572
S11319309889A989BA89F40187839087A187B28796
S11319404F88588C438654864B885C886D887E8883
S1131950458656866786708A898D9A8DAB8DBC8D37
S1131960828B938BA48BB58B8B819C81AD81BE8143
S1131970868B978BA08FB18F4D84428E5E84538E5D
S1131980A48E6D8C658EC401A296CDBFDEBFDF919F
S1131990CF911F910F91FF90EF90DF90CF90BF9068
S11319A0AF909F908F907F906F905F904F903F90FB
S11319B02F90089504C0615071098109910961153E
S11319C0710581059105B9F70895CF93DF93C0E6BA
S11319D0D6E08881826088838C8182608C8366E50E
S11319E075E885E491E0E6DF8C818D7F8C83DF915F
S11319F0CF910895CF93DF93C0E6D6E088818260CB
S1131A0088838C8182608C8366E575E885E491E047
S1131A10D1DF8C818D7F8C83DF91CF910895CF931B
S1131A20DF93C0E6D6E08881826088838C818260FF
S1131A308C8366E575E885E491E0BCDF8C818D7F5D
S1131A408C83DF91CF910895E0E2F6E0808181609C
S1131A5080838481816084830895E0E2F6E080815C
S1131A608160808384818E7F84830895E0E8F6E03A
S1131A7080818064808384818064848308951F923C
S1131A800F920FB60F92112408B60F9218BE09B622
S1131A900F9219BE8F939F93AF93BF9381E080936E
S1131AA074208093732080916F2090917020A09176
S1131AB07120B09172200196A11DB11D80936F20F9
S1131AC090937020A0937120B0937220BF91AF9136
S1131AD09F918F910F9009BE0F9008BE0F900FBE7B
S1131AE00F901F90189504C06150710981099109E4
S1131AF06115710581059105B9F70895E0E4F6E0F3
S1131B0080EB818390E49283848383E58093C0088F
S1131B1082E08093610608958093C308E0ECF8E0C6
S1131B2082818823ECF708958FEFF6DF8091C30854
S1131B3008951F93CF93DF9312E010936606ECDFB2
S1131B40F3DFC82FD0E0DC2FCC27EEDFC80FD11D88
S1131B501093650666ED74E180E090E0C4DFCE0189
S1131B60DF91CF911F910895CF93C2E0C093660691
S1131B708EE1D2DFC093650666E570ED80E090E00B
S1131B80B2DF82EAD6DF80932E2390932F2384EA58
S1131B90D0DF809332239093332386EACADF809385
S1131BA030239093312388EAC4DF809338239093C1
S1131BB039238AEABEDF80933623909337238CEA55
S1131BC0B8DF8093342390933523CF9108958F9277
S1131BD09F92AF92BF92CF92DF92EF92FF921F93A8
S1131BE0CF93DF930F2EF6E6EF2EF6E0FF2EF02DC7
S1131BF012E0F701108390DFC5E6D6E0188366E5AE
S1131C0070ED80E090E06FDFF701108380E084DF07
S1131C108BDFC82ED12CE12CF12C56019924882479
S1131C2083DFC82ED12CE12CF12CFE2CED2CDC2CE6
S1131C30CC24C80CD91CEA1CFB1C76DF1883A70132
S1131C409601280F311D411D511DCA01B901DF91B3
S1131C50CF911F91FF90EF90DF90CF90BF90AF9006
S1131C609F908F9008952F923F924F925F926F9220
S1131C707F928F929F92AF92BF92CF92DF92EF9218
S1131C80FF920F931F93CF93DF93CDB7DEB7659782
S1131C90CDBFDEBF88E49BDF2B013C0188E597DFE5
S1131CA02091362330913723890120E030E0322F10
S1131CB0212F102F00276B017C01C01AD10AE20AE0
S1131CC0F30AC986DA86EB86FC86FF0CCC08DC2C8A
S1131CD07601CD86DE86EF86F88A409130235091D6
S1131CE03123A984BA84CB84DC84ED84FE2C0E2DAC
S1131CF01E2D242F352F40E050E060E070E080E09E
S1131D0090E00E94A91B022F132FB42FF52FE62F6A
S1131D10798B282E392EA0E00E944F1C5CF4AFE78B
S1131D200E943A1C022F132FB42FF52FE62F798B24
S1131D30282E392E202F312F4B2F5F2F6E2F79898C
S1131D40822D932D07E00E94131C222E332E842E05
S1131D50952EB62FA72FF82FE92FA0902E23B09001
S1131D602F232A2D3B2D40E050E060E070E080E01E
S1131D7090E000E10E94FA1BA22EB32EC42ED52EB1
S1131D80E62EF72E082F192F222D332D482D592DED
S1131D906B2F7A2F8F2F9E2F0E94311C120123014B
S1131DA0A22CB32CC42CD52CE12CF12C00E010E097
S1131DB00E94A91BF22E032F142FB52FF62FE72F05
S1131DC0582E692EA0E00E944F1C84F42150310942
S1131DD0404E5F4F6F4F7F4F8F4F9F4FF22E032F19
S1131DE0142FB52FF62FE72F582E692E2F2D302FB5
S1131DF0412F5B2F6F2F7E2F852D962D05E10E949D
S1131E00131C722E832E942E598B6A8B7B8B8C8B96
S1131E109D8B4091382350913923A984BA84CB8473
S1131E20DC84ED84FE2C0E2D1E2D242F352F40E056
S1131E3050E060E070E080E090E00E94A91BF22E88
S1131E40032F142FB52FF62FE72F282E392EA0E0BD
S1131E500E944F1C5CF4AFE30E943A1CF22E032F45
S1131E60142FB52FF62FE72F282E392E2F2D302F94
S1131E70412F5B2F6F2F7E2F822D932D06E00E9422
S1131E80131C322E432E542E652EB62FA72FF82F57
S1131E90E92FA0903223B09033232A2D3B2D40E02C
S1131EA050E060E070E080E090E001E10E94FA1B05
S1131EB0A22EB32EC42ED52EE62EF72E082F192FC0
S1131EC0232D342D452D562D6B2F7A2F8F2F9E2F9A
S1131ED00E94311CA22EB32EC42ED52EE62EF72E30
S1131EE0082F192F272D382D492D59896A897B8967
S1131EF08C899D890E94461CF22E032F142FB52F26
S1131F00F62FE72F582E692EA0E00E944F1C84F470
S1131F10215030484F4F5F4F6F4F7F4F8F4F9F4F30
S1131F20F22E032F142FB52FF62FE72F582E692EDC
S1131F302F2D302F412F5B2F6F2F7E2F852D962D28
S1131F400FE00E94131C922E732E842E998A8A8A83
S1131F50352E4091342350913523A984BA84CB84FF
S1131F60DC84ED84FE2C0E2D1E2D242F352F40E015
S1131F7050E060E070E080E090E00E94A91BF22E47
S1131F80032F142FB52FF62FE72F282E992EA0E01C
S1131F900E944F1C84F42150310940485F4F6F4F19
S1131FA07F4F8F4F9F4FF22E032F142FB52FF62FF5
S1131FB0E72F282E992E2F2D302F412F5B2F6F2F97
S1131FC07E2F822D992D07E10E94131C822E932EC1
S1131FD0A42EB52ED501C4018053984FAF4FBF4FE7
S1131FE089839A83AB83BC83D988EA88282F3A8172
S1131FF04B815C816D2D772D8E2D932D6596CDBFF4
S1132000DEBFDF91CF911F910F91FF90EF90DF9092
S1132010CF90BF90AF909F908F907F906F905F9084
S11320204F903F902F900895FF920F931F93CF935B
S1132030DF93E0E0F6E080E482838FEB8083C0E00E
S1132040D2E0FF24F394F882198280E18A8385E048
S11320508C8361E270E082E00E940A07082F10E09E
S1132060102F002760E270E082E00E940A07082B2C
S11320700C871D87F8A286E089A3DF91CF911F9179
S11320800F91FF90089581E080938106E0E0FAE0EB
S113209087E0808383E081830895E0E0F8E025E031
S11320A0208323E0218386A397A308958F929F9290
S11320B0AF92BF92CF92DF92EF92FF92CF93DF93D2
S11320C06B017C01C0E0DAE01EA21FA26EA17FA119
S11320D080E090E054D64B015C01A701960160E0DA
S11320E070E080E89FE34DD59B01AC01C501B401CC
S11320F0D4D619D668A779A7DF91CF91FF90EF9036
S1132100DF90CF90BF90AF909F908F9008951F92D3
S11321100F920FB60F92112408B60F9218BE8F9328
S113212081E0809327068F910F9008BE0F900FBE19
S11321300F901F9018951F920F920FB60F921124B3
S113214008B60F9218BE8F938EE1809307068F9185
S11321500F9008BE0F900FBE0F901F901895CF934D
S1132160DF93EB010E941C078883DF91CF910895D0
S11321700C9414070895CF93DF93CDB7DEB7279758
S1132180CDBFDEBFE0E6F6E088E081838583E0E44E
S1132190F6E08183858380EA99E0809324239093F9
S11321A0252388EB90E180932223909323238FEAC5
S11321B090E18093202390932123E4E1F0E2848151
S11321C08D8385818E8386818F8380819181A28195
S11321D0B38189839A83AB83BC8360E184E00E94EA
S11321E0DB04BE016F5F7F4F80EA99E00E943508EF
S11321F061EF74E08AE095E00E94531DEDE0F0E2A7
S113220084818D8385818E8386818F838081918172
S1132210A281B38189839A83AB83BC8360E183E029
S11322200E94DB04BE016F5F7F4F80EA98E00E944A
S113223035082796CDBFDEBFDF91CF9108951F9259
S11322400F920FB60F92112408B60F9218BE09B65A
S11322500F9219BE0BB60F921BBE2F933F934F9351
S11322605F936F937F938F939F93AF93BF93EF93FA
S1132270FF9380EA99E00E941C0780933A23E0913F
S11322803A238E2FEE0F990BAA0BBB0BFC01B197CF
S1132290EF33F10518F58827E250FF4F8F4F0C9468
S11322A0851B0E9444031AC010923B2317C081E08F
S11322B080933B2313C082E080933B230FC083E0D1
S11322C080933B230BC081DB09C094DB07C0A7DBF1
S11322D005C0BADB03C0C1DB01C0C8DBFF91EF91CD
S11322E0BF91AF919F918F917F916F915F914F912A
S11322F03F912F910F900BBE0F9009BE0F9008BE17
S11323000F900FBE0F901F90189504C06150710973
S1132310810991096115710581059105B9F7089540
S1132320009709F45CC1803C910529F460E180E0E8
S11323300C94DB040895803424E0920729F468E0C7
S113234080E00C94DB040895811524E0920729F4BD
S113235064E080E00C94DB040895803821E0920767
S113236029F462E080E00C94DB040895811521E0F7
S1132370920729F461E080E00C94DB04089580382E
S113238023E0920729F461E081E00C94DB040895D2
S1132390803923E0920729F461E082E00C94DB04A5
S11323A00895811522E0920729F462E081E00C94FB
S11323B0DB040895803422E0920729F462E082E08D
S11323C00C94DB040895811523E0920729F464E05A
S11323D081E00C94DB040895803223E0920729F411
S11323E064E082E00C94DB040895811528E09207F0
S11323F029F461E083E00C94DB040895811529E05D
S1132400920729F461E084E00C94DB0408958115BB
S11324102AE0920729F461E085E00C94DB04089536
S113242081152BE0920729F461E086E00C94DB042B
S11324300895803428E0920729F462E083E00C9444
S1132440DB040895803429E0920729F462E084E0F3
S11324500C94DB04089580342AE0920729F462E0A6
S113246085E00C94DB04089580342BE0920729F472
S113247062E086E00C94DB040895803928E092073A
S113248029F464E083E00C94DB040895803929E0A6
S1132490920729F464E084E00C94DB040895803905
S11324A02AE0920729F464E085E00C94DB040895A3
S11324B080392BE0920729F464E086E00C94DB0475
S11324C00895803C28E0920729F468E083E00C94A6
S11324D0DB040895803C29E0920729F468E084E055
S11324E00C94DB040895803C2AE0920729F468E008
S11324F085E00C94DB040895803C2BE0920729F4DA
S113250068E086E00C94DB040895803A28E09207A2
S113251029F460E183E00C94DB040895803A29E017
S1132520920729F460E184E00C94DB040895803A76
S11325302AE0920729F460E185E00C94DB04089515
S1132540803A2BE0920729F460E186E00C94DB04E6
S11325500895803B28E0920729F460E283E00C941C
S1132560DB040895803B29E0920729F460E284E0CB
S11325700C94DB040895803B2AE0920729F460E27E
S113258085E00C94DB040895803B2BE0920729F44A
S113259060E286E00C94DB040895803824E092071E
S11325A029F460E483E00C94DB040895803924E08A
S11325B0920729F460E484E00C94DB040895803AE3
S11325C024E0920729F460E485E00C94DB04089588
S11325D0803B944021F460E486E00C94DB0408958D
S11325E0CF93DF93CDB7DEB7C05AD109CDBFDEBFDD
S11325F00E94A60480E099E093DE68E083E00E94F4
S1132600DB0464E083E00E94DB0464E084E00E9475
S1132610DB0464E085E00E94DB0464E086E00E9461
S1132620DB0480E09AE07CDE80E098E079DE2BDD5C
S113263080EA98E075DE80EB99E072DE9CDD80EC48
S113264098E06EDE5BDA90DA80E092E069DEECDC42
S11326500ADB67962FAF679768963FAF68976996CE
S11326604FAF69976A965FAF6A976B966FAF6B9738
S11326706C967FAF6C976D968FAF6D976E969FAF8C
S11326806E976E968CAD9DADAEADBFAD6E97C756D1
S1132690DF4F88839983AA83BB83C959D0400E94A2
S11326A0BD090E9458030E9460036894FF24F5F852
S11326B0F092610606E616E0D801FC9266E573E244
S11326C088E090E022DEF092650666ED74E180E039
S11326D090E01BDEF801F082B7D981E08093060810
S11326E0E0EAF0E087E0828382818F77828311823F
S11326F07894912CC356DF4F188219821A821B8258
S1132700CD59D040CA57DF4F188219821A821B82D2
S1132710C658D040412C512C3201CE010196CC57E1
S1132720DF4F88839983C458D040B92CA82C9BDAF6
S1132730962E172F082F892EED962FAFED97EE9634
S11327403FAFEE97EF964FAFEF97C158DF4F5883E7
S1132750CF57D040C058DF4F6883C058D040CF57C0
S1132760DF4F7883C158D040CE57DF4F8883C2589B
S1132770D040CD57DF4F9883C358D040C458DF4F63
S113278088819981AA81BB81CC57D04080932A2328
S113279090932B23A0932C23B0932D23292D312FF9
S11327A0402F582DC756DF4F688179818A819B81DC
S11327B0C959D0400E949609B1D26B017C01E1D283
S11327C020E030E040E05FE368D3C657DF4F688322
S11327D079838A839B83CA58D040CA57DF4F688164
S11327E079818A819B81C658D040CBD220E030E0E9
S11327F040E05FE352D39B01AC01C657DF4F6881D1
S113280079818A819B81CA58D040BCD187D2CA576A
S1132810DF4F688379838A839B83C658D0409FEFB8
S1132820491A590A690A790A80912921813009F0E3
S113283099C09FB7F89485E5E9ECF2E2DE011196C0
S113284001900D928A95E1F79FBF89818A3079F0D2
S1132850FE01329681E090E021912A3051F00196F8
S11328608115A4E09A07C1F780E094E002C080E0FB
S113287090E0E1E0F0E0EC0FFD1FE80FF91F10829B
S1132880CC57DF4FE881F981C458D0400190002033
S1132890E9F73197AF01CC57DF4F88819981C4584C
S11328A0D040481B590BBE016F5F7F4FCE01825A47
S11328B09F4F0E941B0AE8966CAD7DAD8EAD9FAD17
S11328C0E89731D2CA56DF4F6883C659D040C956FB
S11328D0DF4F7883C759D040C856DF4F8883C85923
S11328E0D040A92EA9966CAD7DAD8EAD9FADA997B4
S11328F01AD2C257DF4F6883CE58D040C157DF4F3A
S11329007883CF58D040C057DF4F8883C059D04018
S1132910CF56DF4F9883C159D040E4966CAD7DAD5E
S11329208EAD9FADE497FFD1CE56DF4F6883C25979
S1132930D040CD56DF4F7883C359D040CC56DF4FBB
S11329408883C459D040CB56DF4F9883C559D040B3
S113295010922921EC968FADEC97882319F08FB74C
S1132960F8948FBF6BEA70EB88E290E0CEDC1F92A4
S1132970BF921F921F921F921F921F921F921F922B
S11329801F921F921F921F921F921F921F921F92BB
S11329901F92AF92C856DF4F9881C859D0409F9379
S11329A0C956DF4FA881C759D040AF93CA56DF4FED
S11329B0B881C659D040BF93CB56DF4FE881C55983
S11329C0D040EF93CC56DF4FF881C459D040FF93E9
S11329D0CD56DF4F2881C359D0402F93CE56DF4FB9
S11329E08881C259D0408F93CF56DF4F9881C15907
S11329F0D0409F93C057DF4FA881C059D040AF93B8
S1132A00C157DF4FB881CF58D040BF93C257DF4F73
S1132A10E881CE58D040EF931F921F921F921F92CD
S1132A201F921F921F921F9280912A2390912B2311
S1132A30A0912C23B0912D23BC01CD016E5C7F4F5E
S1132A408F4F9F4F24E630E040E050E042D65F9342
S1132A504F933F932F938F920F931F939F92FF92C5
S1132A60EF92DF92CF923F922F927F926F925F927A
S1132A704F92F4E1FF9322E42F9388E290E29F9334
S1132A808F930E94D91DBFEF2B1A3B0ACDBFDEBF27
S1132A90B11036C0F5E5F0938106F093850660E049
S1132AA070E080E49FE302DBC356DF4F88819981A5
S1132AB0AA81BB81CD59D0408C199D09AE09BF09AB
S1132AC0C397A105B1053CF021E020938106209332
S1132AD08506BB24B394C356DF4F88819981AA81AC
S1132AE0BB81CD59D0408C159D05AE05BF0544F47E
S1132AF0C356DF4FC882D982EA82FB82CD59D040C7
S1132B0091E0B91213C0ACE2CA16A1E0DA06E104FE
S1132B10F1040CF00CCE82E080938106809385064C
S1132B20B0E8B0930106B093050603C0E2E0BE121C
S1132B30FECDCA57DF4F88819981AA81BB81C658CF
S1132B40D0408C199D09AE09BF090397A105B105B1
S1132B5084F4F2E3CF16D104E104F10474F462E3E3
S1132B6070E088E690E099DA0F2EF3E0BF2EF02DA6
S1132B70DECD6894BB24B1F8DACD6894BB24B1F8F7
S1132B80D6CD5058BB27AA270ED04DC13ED130F028
S1132B9043D120F031F49F3F11F41EF433C10EF4FD
S1132BA0E095E7FB29C1E92F4FD180F3BA176207FB
S1132BB073078407950718F071F49EF567C10EF446
S1132BC0E0950B2EBA2FA02D0B01B90190010C0139
S1132BD0CA01A0011124FF27591B99F0593F50F451
S1132BE0503E68F11A16F040A22F232F342F4427A9
S1132BF0585FF3CF469537952795A795F0405395A1
S1132C00C9F77EF41F16BA0B620B730B840BBAF070
S1132C109150A1F0FF0FBB1F661F771F881FC2F7DB
S1132C200EC0BA0F621F731F841F48F487957795EF
S1132C306795B795F7959E3F08F0B3CF9395880FA6
S1132C4008F09927EE0F9795879508950CD0EBC05F
S1132C50E3D040F0DAD030F021F45F3F19F0CCC07B
S1132C60511115C1CFC0F0D098F39923C9F355235E
S1132C70B1F3951B550BBB27AA276217730784076B
S1132C8038F09F5F5F4F220F331F441FAA1FA9F321
S1132C9033D00E2E3AF0E0E830D091505040E69513
S1132CA0001CCAF729D0FE2F27D0660F771F881F74
S1132CB0BB1F261737074807AB07B0E809F0BB0B63
S1132CC0802DBF01FF2793585F4F2AF09E3F510587
S1132CD068F092C0DCC05F3FECF3983EDCF386956D
S1132CE077956795B795F7959F5FC9F7880F911DFD
S1132CF09695879597F90895E1E0660F771F881FE9
S1132D00BB1F621773078407BA0720F0621B730B9B
S1132D10840BBA0BEE1F88F7E095089504D06894ED
S1132D20B111B5C0089598D088F09F5790F0B92F8D
S1132D309927B751A0F0D1F0660F771F881F991F0C
S1132D401AF0BA95C9F712C0B13081F09FD0B1E042
S1132D5008959CC0672F782F8827B85F39F0B93F52
S1132D60CCF3869577956795B395D9F73EF490950E
S1132D708095709561957F4F8F4F9F4F0895E8948C
S1132D8009C097FB3EF490958095709561957F4FAF
S1132D908F4F9F4F9923A9F0F92F96E9BB2793955D
S1132DA0F695879577956795B795F111F8CFFAF46D
S1132DB0BB0F11F460FF1BC06F5F7F4F8F4F9F4F9E
S1132DC016C0882311F096E911C0772321F09EE8FC
S1132DD0872F762F05C0662371F096E8862F70E062
S1132DE060E02AF09A95660F771F881FDAF7880F3C
S1132DF09695879597F9089597F99F6780E870E00D
S1132E0060E008959FEF80EC089500240A9416165C
S1132E10170618060906089500240A9412161306C4
S1132E20140605060895092E0394000C11F4882352
S1132E3052F0BB0F40F4BF2B11F460FF04C06F5F6E
S1132E407F4F8F4F9F4F089557FD9058440F551F44
S1132E5059F05F3F71F04795880F97FB991F61F018
S1132E609F3F79F087950895121613061406551F8F
S1132E70F2CF4695F1DF08C0161617061806991FFB
S1132E80F1CF86957105610508940895E894BB27F0
S1132E9066277727CB0197F908950BD0C4CFB5DF08
S1132EA028F0BADF18F0952309F0A6CFABCF112490
S1132EB0EECFCADFA0F3959FD1F3950F50E0551FD5
S1132EC0629FF001729FBB27F00DB11D639FAA277B
S1132ED0F00DB11DAA1F649F6627B00DA11D661FCA
S1132EE0829F2227B00DA11D621F739FB00DA11DEB
S1132EF0621F839FA00D611D221F749F3327A00DA5
S1132F00611D231F849F600D211D822F762F6A2F40
S1132F1011249F5750408AF0E1F088234AF0EE0FC5
S1132F20FF1FBB1F661F771F881F91505040A9F7D2
S1132F309E3F510570F060CFAACF5F3FECF3983EFF
S1132F40DCF3869577956795B795F795E7959F5F39
S1132F50C1F7FE2B880F911D9695879597F90895D3
S1132F602F923F924F925F926F927F928F929F9295
S1132F70AF92BF92CF92DF92EF92FF920F931F9383
S1132F80CF93DF93CDB7DEB76097CDBFDEBF7C01B3
S1132F901B016A01FC0116821782838181FF2AC307
S1132FA09E012F5F3F4F3901F7019381F10193FD9A
S1132FB0859193FF81911F01882309F417C38532FA
S1132FC039F493FD859193FF81911F01853231F48A
S1132FD0B70190E0B2D556016501E6CF10E0512C5F
S1132FE0912CFFE1F915D8F08B3279F038F4803266
S1132FF079F08332A1F4F92DF0612EC08D3261F0A5
S1133000803369F4292D21602DC0392D3260932E2F
S1133010892D8460982E2AC0E92DE86015C097FC9C
S11330202DC020ED280F2A3088F496FE06C03AE021
S1133030139F200D1124122F19C08AE0589E200DD1
S11330401124522EE92DE0629E2E10C08E3231F4EE
S113305096FCCCC2F92DF0649F2E08C08C3621F466
S1133060292D2068922E02C0883641F4F10193FD87
S1133070859193FF81911F018111B3CF9BEB980F31
S1133080933020F4992D9061805E07C09BE9980FDE
S1133090933008F059C1992D9F7E96FF16E09F73D7
S11330A0992E853619F49064992E08C0863621F439
S11330B0392F3068932E02C01111115097FE07C0AA
S11330C01C3350F444244394410E27E00BC01830C1
S11330D038F027E017E005C027E09CE3492E02C042
S11330E0212F412C560184E0A80EB11CF601608109
S11330F0718182819381042DA301E7D36C01F9814D
S1133100FC87F0FF02C0F3FF06C091FC06C092FEEC
S113311006C000E205C00DE203C00BE201C000E0FE
S11331208C858C7019F0011143C280C297FE10C0C7
S11331304C0CFC85F4FF04C08A81813309F44A9461
S1133140141474F528E0241578F588E0482E2CC072
S113315096FC2AC0812F90E08C159D059CF03CEFD5
S1133160C3163FEFD30674F0892D8068982E0AC0E9
S1133170E2E0F0E0EC0FFD1FE10FF11D80818033F0
S113318019F411501111F4CF97FE0EC04424439446
S1133190410E812F90E0C816D9062CF41C1904C0E6
S11331A04424439401C010E097FE06C01C141D047F
S11331B034F4C601019605C085E090E002C081E0C8
S11331C090E001110196112331F0212F30E02F5F9F
S11331D03F4F820F931F252D30E08217930714F47D
S11331E0581A01C0512C892D897041F4552031F0B1
S11331F0B70180E290E0A1D45A94F8CF002321F0E3
S1133200B701802F90E099D493FC08C0552031F089
S1133210B70180E390E091D45A94F8CF97FE4AC066
S11332204601D7FE02C0812C912CC6018819990948
S1133230F301E80FF91FED87FE8796012419310980
S11332402F87388B012F10E01195019511093FEF5D
S11332508316930621F4B7018EE290E06ED4C8146D
S1133260D9044CF08F8598898815990524F4ED8547
S1133270FE85818101C080E3F1E08F1A91082D85DC
S11332803E852F5F3F4F2D873E878016910624F0A1
S1133290B70190E052D4DBCFC814D90441F49A8129
S11332A0963320F4953319F43C8534FF81E3B70158
S11332B090E048C08A81813319F09C859F7E9C8769
S11332C0B70190E03AD4111105C094FC16C085E60C
S11332D090E015C0B7018EE290E02FD41E5F82E02B
S11332E001E0080FF301E80FF11D8081B70190E0C0
S11332F024D4802F0113F4CFE8CF85E490E0B70104
S11333001CD4D7FC06C0C114D10441F4EC85E4FFFD
S113331005C0D194C194D1088DE201C08BE2B701FC
S113332090E00BD480E32AE0C216D1042CF08F5F26
S1133330FAE0CF1AD108F7CFB70190E0FED3B70176
S1133340C601C096FAD349C1833631F0833779F088
S1133350833509F052C01FC0560132E0A30EB11CE0
S1133360F6018081898301E010E0630111C05601F8
S1133370F2E0AF0EB11CF601C080D18096FE03C00E
S1133380612F70E002C06FEF7FEFC60181D38C0123
S1133390F92DFF7713C0560122E0A20EB11CF601ED
S11333A0C080D18096FE03C0612F70E002C06FEF31
S11333B07FEFC60162D38C01F92DF0689F2EF3FDD7
S11333C018C0852D90E00817190798F4B70180E21A
S11333D090E0B3D35A94F5CFF60197FC859197FE0C
S11333E081916F01B70190E0A8D351105A94015014
S11333F011090115110581F7F0C0843611F08936E1
S113340059F5560197FE09C024E0A20EB11CF6013D
S113341060817181828193810AC0F2E0AF0EB11C98
S1133420F60160817181072E000C880B990BF92D30
S1133430FF769F2E97FF09C09095809570956195B2
S11334407F4F8F4F9F4FF0689F2E2AE030E0A301FB
S1133450C3D3C82EC6183EC0092D853721F40F7E6C
S11334602AE030E01DC0097F8F3691F018F48835CA
S113347059F0BCC0803719F0883711F0B7C000612B
S113348004FF09C0046007C094FE08C0066006C0BB
S113349028E030E005C020E130E002C020E132E065
S11334A0560107FF09C084E0A80EB11CF601608133
S11334B071818281938108C0F2E0AF0EB11CF601E4
S11334C06081718180E090E0A30186D3C82EC61884
S11334D00F77902E96FE0BC0092D0E7FC11650F467
S11334E094FE0AC092FC08C0092D0E7E05C0DC2C97
S11334F0092D03C0DC2C01C0D12E04FF0DC0FE0138
S1133500EC0DF11D8081803311F4097E09C002FFA6
S113351006C0D394D39404C0802F867809F0D39442
S113352003FD10C000FF06C01C2DD51478F4150D42
S11335301D190CC0D51450F4B70180E290E0FDD2FF
S1133540D394F8CFD51410F45D1801C0512C04FFA6
S11335500FC0B70180E390E0F0D202FF16C001FD76
S113356003C088E790E002C088E590E0B7010CC092
S1133570802F867851F001FF02C08BE201C080E207
S113358007FD8DE2B70190E0D8D2C11630F4B7013F
S113359080E390E0D2D21150F8CFCA94F301EC0D3D
S11335A0F11D8081B70190E0C8D2C110F6CF15C0DB
S11335B0F4E0F51550F584E0581A93FE1EC001118D
S11335C025C02C8523FF27C00AE712E0392D30716E
S11335D0932EF8018491811121C0552009F4FCCC6B
S11335E0B70180E290E0A9D25A94F7CFF70186811F
S11335F0978123C08FEF9FEF20C0B70180E290E056
S11336009CD25A945110F9CFDACF512CB701802FA4
S113361090E093D2D6CF0EE712E0D8CF911080522B
S1133620B70190E08AD20F5F1F4FD3CF23E0251557
S113363010F483E0C1CF512CC4CF6096CDBFDEBF60
S1133640DF91CF911F910F91FF90EF90DF90CF907A
S1133650BF90AF909F908F907F906F905F904F90AE
S11336603F902F900895AA1BBB1B51E107C0AA1FCE
S1133670BB1FA617B70710F0A61BB70B881F991F0F
S11336805A95A9F780959095BC01CD010895A1E2C2
S11336901A2EAA1BBB1BFD010DC0AA1FBB1FEE1FC8
S11336A0FF1FA217B307E407F50720F0A21BB30B13
S11336B0E40BF50B661F771F881F991F1A9469F78F
S11336C060957095809590959B01AC01BD01CF01EB
S11336D00895052E97FB16F400940FD057FD05D0DE
S11336E0D6DF07FC02D046F408C0509540953095CB
S11336F021953F4F4F4F5F4F08959095809570955A
S113370061957F4F8F4F9F4F0895EE0FFF1F881FC6
S11337108BBF0790F691E02D1BBE1994A29FB001B8
S1133720B39FC001A39F700D811D1124911DB29FF1
S1133730700D811D1124911D0895F0DFB7FF0895C8
S1133740821B930B0895B7FFB6C0B5D0821B930BB1
S11337500895DF93CF931F930F939A9DF02D219F8C
S1133760F00D8B9DF00D8A9DE02DF10D039FF00D62
S1133770029FE00DF11D4E9DE00DF11D5E9DF00DCB
S11337804F9DF00D7F936F93BF92AF925F934F93D2
S1133790D501C4DF8B01AC01D701C0DFEB01E80F19
S11337A0F91FD6011FD02F913F91D601B7DFC60F65
S11337B0D71FE81FF91FAF91BF9114D02F913F91EC
S11337C0ADDFC60FD71FE81FF91FD601A7DFE60F2D
S11337D0F71F9801BE01CF0111240F911F91CF91C2
S11337E0DF9108959BDF460F571FC81FD91F08F4A8
S11337F0319608950F93083090F0982F872F762FE5
S1133800652F542F432F322F22270850F4CF220F35
S1133810331F441F551F661F771F881F991F0A9562
S1133820B2F70F91089597FB10F8169400080F93C0
S1133830083098F00850232F342F452F562F672F28
S1133840782F892F902DF4CF0594979587957795A8
S1133850679557954795379527950A95AAF70F9138
S113386008952A0D3B1D4C1D5D1D6E1D7F1D801F7F
S1133870911F08950024A7FD00942A0F301D401DB8
S1133880501D601D701D801D901D08952A193B094F
S11338904C095D096E097F09800B910B0895002482
S11338A0A7FD00942A1730054005500560057005F2
S11338B080059005089532DFA59F900DB49F900D6B
S11338C0A49F800D911D11240895283008F027E04D
S11338D03327DA01990F311D87FD91600096610548
S11338E0710539F432602E5F3D9330E32A95E1F798
S11338F008959F3F30F080387105610509F03C5F01
S11339003C5F3D93913008F08068911DDF93CF9325
S11339101F930F93FF92EF92192F987F9695E92F9B
S113392096959695E90FFF27E452FD4F9927332783
S1133930EE24FF24A701E70105900894079428F4D6
S1133940360FE71EF81E491F511D660F771F881F8B
S1133950991F0694A1F70590079428F4E70EF81E22
S1133960491F561FC11D770F881F991F661F069494
S1133970A1F70590079428F4F80E491F561FC71F96
S1133980D11D880F991F661F771F0694A1F7059014
S1133990079420F4490F561FC71FD81F990F661F9D
S11339A0771F881F0694A9F784911095177041F02A
S11339B0D695C79557954795F794E7941A95C1F707
S11339C0E2E8F2E06894159015913591659195912E
S11339D005907FE27395E118F10A430B560BC90B6E
S11339E0D009C0F7E10CF11E431F561FC91FD01D9B
S11339F07EF4703311F48A95E6CFE894015030F0E8
S1133A00080F0AF40027021708F4202F2395022F29
S1133A107A3328F079E37D932A95E9F710C07D93F2
S1133A202A9589F60694979567953795179517946F
S1133A30E118F10A430B560BC90BD00998F02395F2
S1133A407E9173957A3308F070E37C932013B8F772
S1133A507E9170617D9330F0839571E37D9370E383
S1133A602A95E1F71124EF90FF900F911F91CF91C8
S1133A70DF91992787FD90950895FC010590615089
S1133A8070400110D8F7809590958E0F9F1F089570
S1133A90FC016150704001900110D8F78095909519
S1133AA08E0F9F1F08950F931F93CF93DF9300975B
S1133AB031F46115710519F480E090E039C08B018F
S1133AC0EC016EE070E081E090E0E4D0FC01892B31
S1133AD099F380E883830115110571F00287138738
S1133AE081E8838380913C2390913D23892B21F4A9
S1133AF0E0933C23F0933D232097C9F0C087D187FE
S1133B0083818260838380913E2390913F23892B1C
S1133B1071F4E0933E23F0933F23809140239091EE
S1133B204123892B21F4E0934023F0934123CF01D7
S1133B30DF91CF911F910F9108950F931F93CF930E
S1133B40DF93FB01238121FD03C08FEF9FEF2CC086
S1133B5022FF16C0468157812481358142175307BD
S1133B6044F4A081B1819D012F5F3F4F20833183B5
S1133B708C93268137812F5F3F4F2683378314C070
S1133B808B01EC01FB010084F185E02D1995892B53
S1133B90E1F6D80116968D919C9117970196169689
S1133BA08D939C931797CE01DF91CF911F910F9125
S1133BB00895CF93DF93CDB7DEB7AE014A5F5F4F71
S1133BC0FA0161917191AF0180913E2390913F235D
S1133BD0C7D9DF91CF910895FA01AA27283051F16E
S1133BE0203181F1E8946F936E7F6E5F7F4F8F4F2A
S1133BF09F4FAF4FB1E03ED0B4E03CD0670F781F89
S1133C00891F9A1FA11D680F791F8A1F911DA11D6D
S1133C106A0F711D811D911DA11D20D009F46894A6
S1133C203F912AE0269F11243019305D3193DEF64E
S1133C30CF010895462F4770405D4193B3E00FD004
S1133C40C9F7F6CF462F4F70405D4A3318F0495DEF
S1133C5031FD4052419302D0A9F7EACFB4E0A695D2
S1133C609795879577956795BA95C9F700976105F4
S1133C70710508959B01AC010A2E0694579547954A
S1133C8037952795BA95C9F7620F731F841F951F3F
S1133C90A01D08950F931F93CF93DF93869F8001F8
S1133CA0879F100D969F100D1124C8010DD0EC01B3
S1133CB0009721F0A80160E070E027D1CE01DF91E8
S1133CC0CF911F910F9108950F931F93CF93DF937B
S1133CD08230910510F482E090E0E0914423F09169
S1133CE0452320E030E0A0E0B0E0309719F14081B6
S1133CF051810281138148175907C8F08417950729
S1133D0069F4109731F012960C93129713961C9342
S1133D1027C0009344231093452322C02115310565
S1133D2019F04217530718F49A01BD01EF01DF019E
S1133D30F801DBCF21153105F9F0281B390B2430AC
S1133D40310580F48A819B816115710521F0FB01A5
S1133D508283938304C08093442390934523FE017C
S1133D60329644C0FE01E20FF31F819391932250D7
S1133D703109288339833AC0209142233091432367
S1133D80232B41F4209102203091032020934223DD
S1133D9030934323209100203091012021153105D7
S1133DA041F42DB73EB74091042050910520241BC7
S1133DB0350BE0914223F0914323E217F307A0F47B
S1133DC02E1B3F0B2817390778F0AC014E5F5F4F6D
S1133DD02417350748F04E0F5F1F4093422350933A
S1133DE043238193919302C0E0E0F0E0CF01DF919F
S1133DF0CF911F910F910895CF93DF93009709F40A
S1133E0081C0FC01329712821382A0914423B091A5
S1133E104523109781F420813181820F931F2091D3
S1133E204223309143232817390751F5E093422365
S1133E30F093432367C0ED0120E030E0CE17DF07A5
S1133E4040F44A815B819E0141155105F1F0EA017C
S1133E50F5CFC283D38340815181840F951FC81746
S1133E60D90759F488819981840F951F029680831C
S1133E7091838A819B81828393832115310529F45F
S1133E80E0934423F09345233DC0E901EA83FB8397
S1133E9049915991C40FD51FEC17FD0761F4808136
S1133EA09181840F951F0296E90188839983828109
S1133EB093818A839B83E0E0F0E012968D919C913C
S1133EC01397009719F0FD01DC01F7CF8D919C91B8
S1133ED011979D012E5F3F4F820F931F2091422324
S1133EE0309143232817390769F4309729F4109245
S1133EF044231092452302C012821382A0934223CA
S1133F00B0934323DF91CF910895DC0101C06D93F9
S10F3F1041505040E0F70895F894FFCFB2
S1133F1C000046232000C01200000300018025008D
S1133F2C000300018025000003000124475047478B
S1133F3C00244750474741002425752C256C752CCB
S1133F4C25752C256C692C256C692C256C692C2504
S1133F5C662C256C692C256C692C256C692C256CBC
S1133F6C692C256C692C25662C25662C25662C253C
S1073F7C750A0000BE
S9030000FC
