S019000043616E5361742050726F626520436F64652E737265631E
S1130000FEC1000022C2000020C200001EC2000087
S11300101CC200001AC2000018C2000016C2000070
S113002014C2000012C2000010C200000EC2000080
S11300300CC20000A2C20000EAC5000020C60000F5
S113004056C600008CC60000C2C60000F8C60000F8
S11300502EC7000064C700009AC70000D0C7000084
S1130060F4C100000C94A915F0C10000EEC1000019
S1130070ECC10000EAC10000E8C10000E6C10000D4
S1130080E4C10000E2C10000E0C10000DEC10000E4
S1130090DCC10000DAC10000D8C10000B4C4000013
S11300A0EFC400002AC5000065C50000CEC10000F1
S11300B0CCC10000CAC10000C4C200000C94670A8D
S11300C00C949F0A0C94D70A0C940F0B0C94470BB6
S11300D00C947F0B0C94B70B0C94EF0B0C94270C23
S11300E00C945F0CB2C10000B0C10000AEC10000AE
S11300F0ACC10000AAC10000A8C10000A6C1000054
S1130100A4C10000A2C10000A0C100009EC1000063
S11301109CC100009AC1000098C1000080C3000087
S1130120BBC30000F6C3000031C400008EC1000050
S113013056C200009CC70000D2C700000C94A70858
S11301400C94DF080C9417090C944F090C9487093C
S11301500C94BF090C94F7090C942F0A76C1000083
S113016074C1000072C1000070C100006EC10000C3
S11301706CC100006AC1000068C1000066C10000D3
S113018064C1000062C1000060C100005EC10000E3
S11301905CC100005AC1000058C1000056C10000F3
S11301A054C1000052C1000050C100007CC20000D4
S11301B00C94970C0C94CF0C0C94070D0C943F0DDD
S11301C00C94770D0C94AF0D0C94E70D0C941F0E4A
S11301D00C94570E0C948F0E38C1000036C10000E9
S11301E034C1000032C1000030C100002EC1000043
S11301F02CC100002AC1000028C10000DA15E8154E
S1130200E815E815E815DF15E815E315E515E1151A
S1130210E815E815E815E815E815E815E815E815F2
S1130220E815E815E815E815E815E815E815E815E2
S1130230E815E815E815E815E815E815E815E815D2
S1130240E815E815E815E815E815E815E815E815C2
S1130250E815E815E815E815E815E815E815E815B2
S1130260E815E815E815E815E815E815E815E815A2
S1130270E815E815E815DD15E71508000000BE923D
S11302802449123EABAAAA2ABECDCCCC4C3E0000D7
S11302900080BEABAAAAAA3E00000000BF00000076
S11302A0803F0000000000084178D3BB4387D1138E
S11302B03D190E3CC3BD4282AD2B3E68EC8276BE36
S11302C0D98FE1A93E4C80EFFFBE01C4FF7F3F0000
S11302D00000000007634236B79BD8A71A39685656
S11302E018AEBAAB558C1D3CB7CC5763BD6DEDFD54
S11302F0753EF6177231BF000000803F6E616E00DC
S1130300696E660000407A10F35A00A0724E180914
S11303100010A5D4E80000E87648170000E40B5468
S1130320020000CA9A3B000000E1F5050000809637
S11303309800000040420F000000A0860100000069
S1130340102700000000E803000000006400000023
S113035000000A00000000000100000000002C76EC
S1130360D888DC674F0823DFC1DFAE59E1B1B79607
S1130370E5E3E453C63AE651997696E8E6C2842664
S1130380EB898C9B62ED407C6FFCEFBC9C9F40F240
S1130390BAA56FA5F490055A2AF75C936B6CF967BC
S11303A06DC11BFCE0E40D47FEF520E6B500D0ED81
S11303B0902E0300943577050080841E08000020E9
S11303C04E0A000000C80C333333330F986E128387
S11303D01141EF8D2114893BE65516CFFEE6DB185B
S11303E0D1844B381BF77C1D901DA4BBE424203220
S11303F084725E228100C9F124ECA1E53D27112419
S11304001FBECFEFCDBFDFE3DEBF00E00CBF18BEE1
S113041019BE1ABE1BBE10E2A0E0B0E2E8EAF6E4A0
S113042000E00BBF02C007900D92A432B107D9F7C8
S11304301BBE20E2A4E2B0E201C01D92A43AB207BE
S1130440E1F70E946A170C945223DACDCF93DF931D
S1130450E0912420F0912520848183FF08C08860E6
S1130460848383E0838386EF80932E2083C0982F38
S1130470947131F083E083838FEF80932E207AC0D0
S113048086FF43C0C4E2D0E2AA81BB818C819D81F6
S113049014962D913C911597821793076CF49C0147
S11304A02F5F3F4F2093282030932920A80FB91F96
S11304B011968C9187835EC080912A2090912B2085
S11304C018962D913C91199782179307C8F420919F
S11304D02C20222321F08681816086834BC01696CE
S11304E02D913C911797AC014F5F5F4F40932A20A9
S11304F050932B20D901A80FB91F8C9187833AC040
S113050083E0838310922E2035C0882384F5A4E2EF
S1130510B0E21296CD91DC91139716968D919C9131
S113052017972885398582179307D8F46E817F81C0
S11305309C012F5F3F4F20932A2030932B2047812B
S1130540DB01A80FB91F4C938885998528173907B3
S113055018F482E083830EC087E0838310922E20F8
S113056009C083E0838389EF80932E2003C08BEF3F
S113057080932E20DF91CF9108951F920F920FB692
S11305800F92112408B60F9218BE09B60F9219BE25
S11305900BB60F921BBE2F933F934F935F936F93B2
S11305A07F938F939F93AF93BF93EF93FF934EDF0C
S11305B0FF91EF91BF91AF919F918F917F916F9137
S11305C05F914F913F912F910F900BBE0F9009BEF9
S11305D00F9008BE0F900FBE0F901F9018951F929A
S11305E00F920FB60F92112408B60F9218BE09B6D7
S11305F00F9219BE0BB60F921BBE2F933F934F93CE
S11306005F936F937F938F939F93AF93BF93EF9376
S1130610FF931CDFFF91EF91BF91AF919F918F9159
S11306207F916F915F914F913F912F910F900BBEEE
S11306300F9009BE0F9008BE0F900FBE0F901F9031
S113064018951F920F920FB60F92112408B60F92AD
S113065018BE09B60F9219BE0BB60F921BBE2F938C
S11306603F934F935F936F937F938F939F93AF9336
S1130670BF93EF93FF93EADEFF91EF91BF91AF91A8
S11306809F918F917F916F915F914F913F912F91A6
S11306900F900BBE0F9009BE0F9008BE0F900FBEB7
S11306A00F901F9018951F920F920FB60F9211245E
S11306B008B60F9218BE09B60F9219BE0BB60F9268
S11306C01BBE2F933F934F935F936F937F938F93AF
S11306D09F93AF93BF93EF93FF93B8DEFF91EF9196
S11306E0BF91AF919F918F917F916F915F914F9146
S11306F03F912F910F900BBE0F9009BE0F9008BE33
S11307000F900FBE0F901F90189563E080E890E063
S11307106ED2E0E8F0E0828180FDFDCF6BE281E8FB
S113072090E065D2E0E8F0E0828180FDFDCFA895FD
S1130730FFCFCF93DF931F921F92CDB7DEB78FEF1A
S11307408093700080937100809372008093730093
S11307508093740080937500809376008FB78A83AA
S1130760F8949A81E0E5F0E08081826080839FBF05
S1130770818181FFFDCF61E080E490E038D28FB7C2
S11307808983F8949981E0E5F0E080818E7F80830D
S11307909FBF0F900F90DF91CF910895CF93DF9378
S11307A01F92CDB7DEB79FB79983F8949981E82F4C
S11307B0F0E0E059FF4F60958081682360839FBF1C
S11307C00F90DF91CF910895CF93DF931F92CDB710
S11307D0DEB78091832090918420E0917F20F09176
S11307E08020BE016F5F7F4F19958981082E000C10
S11307F0990B0F90DF91CF910895682F80918320FA
S113080090918420E0918120F09182201995992380
S11308101CF081E090E008958FEF9FEF08951F9200
S11308200F920FB60F92112408B60F9218BE09B694
S11308300F9219BE0BB60F921BBE2F933F934F938B
S11308405F936F937F938F939F93AF93BF93EF9334
S1130850FF934091240250912502E0918720F0916A
S1130860882061E080E092E01995FF91EF91BF91BB
S1130870AF919F918F917F916F915F914F913F9134
S11308802F910F900BBE0F9009BE0F9008BE0F90D2
S11308900FBE0F901F9018951F920F920FB60F92D4
S11308A0112408B60F9218BE09B60F9219BE0BB6E2
S11308B00F921BBE2F933F934F935F936F937F933E
S11308C08F939F93AF93BF93EF93FF9340912C0229
S11308D050912D02E0918720F091882062E080E021
S11308E092E01995FF91EF91BF91AF919F918F91F4
S11308F07F916F915F914F913F912F910F900BBE1C
S11309000F9009BE0F9008BE0F900FBE0F901F905E
S113091018951F920F920FB60F92112408B60F92DA
S113092018BE09B60F9219BE0BB60F921BBE2F93B9
S11309303F934F935F936F937F938F939F93AF9363
S1130940BF93EF93FF934091340250913502E091AD
S11309508720F091882064E080E092E01995FF916F
S1130960EF91BF91AF919F918F917F916F915F9123
S11309704F913F912F910F900BBE0F9009BE0F9096
S113098008BE0F900FBE0F901F9018951F920F92E4
S11309900FB60F92112408B60F9218BE09B60F9223
S11309A019BE0BB60F921BBE2F933F934F935F93C9
S11309B06F937F938F939F93AF93BF93EF93FF9323
S11309C040913C0250913D02E0918720F0918820B3
S11309D068E080E092E01995FF91EF91BF91AF91AB
S11309E09F918F917F916F915F914F913F912F9143
S11309F00F900BBE0F9009BE0F9008BE0F900FBE54
S1130A000F901F9018951F920F920FB60F921124FA
S1130A1008B60F9218BE09B60F9219BE0BB60F9204
S1130A201BBE2F933F934F935F936F937F938F934B
S1130A309F93AF93BF93EF93FF93409164025091C0
S1130A406502E0918520F091862061E080E492E0E7
S1130A501995FF91EF91BF91AF919F918F917F91E4
S1130A606F915F914F913F912F910F900BBE0F901B
S1130A7009BE0F9008BE0F900FBE0F901F901895DF
S1130A801F920F920FB60F92112408B60F9218BE40
S1130A9009B60F9219BE0BB60F921BBE2F933F934C
S1130AA04F935F936F937F938F939F93AF93BF9372
S1130AB0EF93FF9340916C0250916D02E091852079
S1130AC0F091862062E080E492E01995FF91EF9125
S1130AD0BF91AF919F918F917F916F915F914F9152
S1130AE03F912F910F900BBE0F9009BE0F9008BE3F
S1130AF00F900FBE0F901F9018951F920F920FB674
S1130B000F92112408B60F9218BE09B60F9219BE9F
S1130B100BB60F921BBE2F933F934F935F936F932C
S1130B207F938F939F93AF93BF93EF93FF934091E2
S1130B30740250917502E0918520F091862064E062
S1130B4080E492E01995FF91EF91BF91AF919F914D
S1130B508F917F916F915F914F913F912F910F9062
S1130B600BBE0F9009BE0F9008BE0F900FBE0F90E2
S1130B701F9018951F920F920FB60F92112408B66A
S1130B800F9218BE09B60F9219BE0BB60F921BBE78
S1130B902F933F934F935F936F937F938F939F9381
S1130BA0AF93BF93EF93FF9340917C0250917D02EA
S1130BB0E0918520F091862068E080E492E0199528
S1130BC0FF91EF91BF91AF919F918F917F916F9121
S1130BD05F914F913F912F910F900BBE0F9009BEE3
S1130BE00F9008BE0F900FBE0F901F9018951BBE5C
S1130BF0FC0128ED24BF608308954091CA01E62FCB
S1130C00F72F8093CA0184914093CA0108951F92DB
S1130C100F920FB60F92112408B60F9218BE09B6A0
S1130C200F9219BE0BB60F921BBE2F933F934F9397
S1130C305F936F937F938F939F93AF93BF93EF9340
S1130C40FF93E0917D20F0917E20309709F0199573
S1130C50FF91EF91BF91AF919F918F917F916F9190
S1130C605F914F913F912F910F900BBE0F9009BE52
S1130C700F9008BE0F900FBE0F901F9018951F92F3
S1130C800F920FB60F92112408B60F9218BE09B630
S1130C900F9219BE0BB60F921BBE2F933F934F9327
S1130CA05F936F937F938F939F93AF93BF93EF93D0
S1130CB0FF93E0917B20F0917C20309709F0199507
S1130CC0FF91EF91BF91AF919F918F917F916F9120
S1130CD05F914F913F912F910F900BBE0F9009BEE2
S1130CE00F9008BE0F900FBE0F901F9018951F9283
S1130CF00F920FB60F92112408B60F9218BE09B6C0
S1130D000F9219BE0BB60F921BBE2F933F934F93B6
S1130D105F936F937F938F939F93AF93BF93EF935F
S1130D20FF93E0917920F0917A20309709F019959A
S1130D30FF91EF91BF91AF919F918F917F916F91AF
S1130D405F914F913F912F910F900BBE0F9009BE71
S1130D500F9008BE0F900FBE0F901F9018951F9212
S1130D600F920FB60F92112408B60F9218BE09B64F
S1130D700F9219BE0BB60F921BBE2F933F934F9346
S1130D805F936F937F938F939F93AF93BF93EF93EF
S1130D90FF93E0917720F0917820309709F019952E
S1130DA0FF91EF91BF91AF919F918F917F916F913F
S1130DB05F914F913F912F910F900BBE0F9009BE01
S1130DC00F9008BE0F900FBE0F901F9018951F92A2
S1130DD00F920FB60F92112408B60F9218BE09B6DF
S1130DE00F9219BE0BB60F921BBE2F933F934F93D6
S1130DF05F936F937F938F939F93AF93BF93EF937F
S1130E00FF93E0917520F0917620309709F01995C1
S1130E10FF91EF91BF91AF919F918F917F916F91CE
S1130E205F914F913F912F910F900BBE0F9009BE90
S1130E300F9008BE0F900FBE0F901F9018951F9231
S1130E400F920FB60F92112408B60F9218BE09B66E
S1130E500F9219BE0BB60F921BBE2F933F934F9365
S1130E605F936F937F938F939F93AF93BF93EF930E
S1130E70FF93E0917320F0917420309709F0199555
S1130E80FF91EF91BF91AF919F918F917F916F915E
S1130E905F914F913F912F910F900BBE0F9009BE20
S1130EA00F9008BE0F900FBE0F901F9018951F92C1
S1130EB00F920FB60F92112408B60F9218BE09B6FE
S1130EC00F9219BE0BB60F921BBE2F933F934F93F5
S1130ED05F936F937F938F939F93AF93BF93EF939E
S1130EE0FF93E0917120F0917220309709F01995E9
S1130EF0FF91EF91BF91AF919F918F917F916F91EE
S1130F005F914F913F912F910F900BBE0F9009BEAF
S1130F100F9008BE0F900FBE0F901F9018951F9250
S1130F200F920FB60F92112408B60F9218BE09B68D
S1130F300F9219BE0BB60F921BBE2F933F934F9384
S1130F405F936F937F938F939F93AF93BF93EF932D
S1130F50FF93E0916F20F0917020309709F019957C
S1130F60FF91EF91BF91AF919F918F917F916F917D
S1130F705F914F913F912F910F900BBE0F9009BE3F
S1130F800F9008BE0F900FBE0F901F9018951F92E0
S1130F900F920FB60F92112408B60F9218BE09B61D
S1130FA00F9219BE0BB60F921BBE2F933F934F9314
S1130FB05F936F937F938F939F93AF93BF93EF93BD
S1130FC0FF93E0916D20F0916E20309709F0199510
S1130FD0FF91EF91BF91AF919F918F917F916F910D
S1130FE05F914F913F912F910F900BBE0F9009BECF
S1130FF00F9008BE0F900FBE0F901F9018951F9270
S11310000F920FB60F92112408B60F9218BE09B6AC
S11310100F9219BE0BB60F921BBE2F933F934F93A3
S11310205F936F937F938F939F93AF93BF93EF934C
S1131030FF93E0916B20F0916C20309709F01995A3
S1131040FF91EF91BF91AF919F918F917F916F919C
S11310505F914F913F912F910F900BBE0F9009BE5E
S11310600F9008BE0F900FBE0F901F9018951F92FF
S11310700F920FB60F92112408B60F9218BE09B63C
S11310800F9219BE0BB60F921BBE2F933F934F9333
S11310905F936F937F938F939F93AF93BF93EF93DC
S11310A0FF93E0916920F0916A20309709F0199537
S11310B0FF91EF91BF91AF919F918F917F916F912C
S11310C05F914F913F912F910F900BBE0F9009BEEE
S11310D00F9008BE0F900FBE0F901F9018951F928F
S11310E00F920FB60F92112408B60F9218BE09B6CC
S11310F00F9219BE0BB60F921BBE2F933F934F93C3
S11311005F936F937F938F939F93AF93BF93EF936B
S1131110FF93E0916720F0916820309709F01995CA
S1131120FF91EF91BF91AF919F918F917F916F91BB
S11311305F914F913F912F910F900BBE0F9009BE7D
S11311400F9008BE0F900FBE0F901F9018951F921E
S11311500F920FB60F92112408B60F9218BE09B65B
S11311600F9219BE0BB60F921BBE2F933F934F9352
S11311705F936F937F938F939F93AF93BF93EF93FB
S1131180FF93E0916520F0916620309709F019955E
S1131190FF91EF91BF91AF919F918F917F916F914B
S11311A05F914F913F912F910F900BBE0F9009BE0D
S11311B00F9008BE0F900FBE0F901F9018951F92AE
S11311C00F920FB60F92112408B60F9218BE09B6EB
S11311D00F9219BE0BB60F921BBE2F933F934F93E2
S11311E05F936F937F938F939F93AF93BF93EF938B
S11311F0FF93E0916320F0916420309709F01995F2
S1131200FF91EF91BF91AF919F918F917F916F91DA
S11312105F914F913F912F910F900BBE0F9009BE9C
S11312200F9008BE0F900FBE0F901F9018951F923D
S11312300F920FB60F92112408B60F9218BE09B67A
S11312400F9219BE0BB60F921BBE2F933F934F9371
S11312505F936F937F938F939F93AF93BF93EF931A
S1131260FF93E0916120F0916220309709F0199585
S1131270FF91EF91BF91AF919F918F917F916F916A
S11312805F914F913F912F910F900BBE0F9009BE2C
S11312900F9008BE0F900FBE0F901F9018951F92CD
S11312A00F920FB60F92112408B60F9218BE09B60A
S11312B00F9219BE0BB60F921BBE2F933F934F9301
S11312C05F936F937F938F939F93AF93BF93EF93AA
S11312D0FF93E0915F20F0916020309709F0199519
S11312E0FF91EF91BF91AF919F918F917F916F91FA
S11312F05F914F913F912F910F900BBE0F9009BEBC
S11313000F9008BE0F900FBE0F901F9018951F925C
S11313100F920FB60F92112408B60F9218BE09B699
S11313200F9219BE0BB60F921BBE2F933F934F9390
S11313305F936F937F938F939F93AF93BF93EF9339
S1131340FF93E0915D20F0915E20309709F01995AC
S1131350FF91EF91BF91AF919F918F917F916F9189
S11313605F914F913F912F910F900BBE0F9009BE4B
S11313700F9008BE0F900FBE0F901F9018951F92EC
S11313800F920FB60F92112408B60F9218BE09B629
S11313900F9219BE0BB60F921BBE2F933F934F9320
S11313A05F936F937F938F939F93AF93BF93EF93C9
S11313B0FF93E0915B20F0915C20309709F0199540
S11313C0FF91EF91BF91AF919F918F917F916F9119
S11313D05F914F913F912F910F900BBE0F9009BEDB
S11313E00F9008BE0F900FBE0F901F9018951F927C
S11313F00F920FB60F92112408B60F9218BE09B6B9
S11314000F9219BE0BB60F921BBE2F933F934F93AF
S11314105F936F937F938F939F93AF93BF93EF9358
S1131420FF93E0915920F0915A20309709F01995D3
S1131430FF91EF91BF91AF919F918F917F916F91A8
S11314405F914F913F912F910F900BBE0F9009BE6A
S11314500F9008BE0F900FBE0F901F9018951F920B
S11314600F920FB60F92112408B60F9218BE09B648
S11314700F9219BE0BB60F921BBE2F933F934F933F
S11314805F936F937F938F939F93AF93BF93EF93E8
S1131490FF93E0915720F0915820309709F0199567
S11314A0FF91EF91BF91AF919F918F917F916F9138
S11314B05F914F913F912F910F900BBE0F9009BEFA
S11314C00F9008BE0F900FBE0F901F9018951F929B
S11314D00F920FB60F92112408B60F9218BE09B6D8
S11314E00F9219BE0BB60F921BBE2F933F934F93CF
S11314F05F936F937F938F939F93AF93BF93EF9378
S1131500FF93E0915520F0915620309709F01995FA
S1131510FF91EF91BF91AF919F918F917F916F91C7
S11315205F914F913F912F910F900BBE0F9009BE89
S11315300F9008BE0F900FBE0F901F9018951F922A
S11315400F920FB60F92112408B60F9218BE09B667
S11315500F9219BE0BB60F921BBE2F933F934F935E
S11315605F936F937F938F939F93AF93BF93EF9307
S1131570FF93E0915320F0915420309709F019958E
S1131580FF91EF91BF91AF919F918F917F916F9157
S11315905F914F913F912F910F900BBE0F9009BE19
S11315A00F9008BE0F900FBE0F901F9018951F92BA
S11315B00F920FB60F92112408B60F9218BE09B6F7
S11315C00F9219BE0BB60F921BBE2F933F934F93EE
S11315D05F936F937F938F939F93AF93BF93EF9397
S11315E0FF93E0915120F0915220309709F0199522
S11315F0FF91EF91BF91AF919F918F917F916F91E7
S11316005F914F913F912F910F900BBE0F9009BEA8
S11316100F9008BE0F900FBE0F901F9018951F9249
S11316200F920FB60F92112408B60F9218BE09B686
S11316300F9219BE0BB60F921BBE2F933F934F937D
S11316405F936F937F938F939F93AF93BF93EF9326
S1131650FF93E0914F20F0915020309709F01995B5
S1131660FF91EF91BF91AF919F918F917F916F9176
S11316705F914F913F912F910F900BBE0F9009BE38
S11316800F9008BE0F900FBE0F901F9018951F92D9
S11316900F920FB60F92112408B60F9218BE09B616
S11316A00F9219BE0BB60F921BBE2F933F934F930D
S11316B05F936F937F938F939F93AF93BF93EF93B6
S11316C0FF93E0914D20F0914E20309709F0199549
S11316D0FF91EF91BF91AF919F918F917F916F9106
S11316E05F914F913F912F910F900BBE0F9009BEC8
S11316F00F9008BE0F900FBE0F901F9018951F9269
S11317000F920FB60F92112408B60F9218BE09B6A5
S11317100F9219BE0BB60F921BBE2F933F934F939C
S11317205F936F937F938F939F93AF93BF93EF9345
S1131730FF93E0914B20F0914C20309709F01995DC
S1131740FF91EF91BF91AF919F918F917F916F9195
S11317505F914F913F912F910F900BBE0F9009BE57
S11317600F9008BE0F900FBE0F901F9018951F92F8
S11317700F920FB60F92112408B60F9218BE09B635
S11317800F9219BE0BB60F921BBE2F933F934F932C
S11317905F936F937F938F939F93AF93BF93EF93D5
S11317A0FF93E0914920F0914A20309709F0199570
S11317B0FF91EF91BF91AF919F918F917F916F9125
S11317C05F914F913F912F910F900BBE0F9009BEE7
S11317D00F9008BE0F900FBE0F901F9018951F9288
S11317E00F920FB60F92112408B60F9218BE09B6C5
S11317F00F9219BE0BB60F921BBE2F933F934F93BC
S11318005F936F937F938F939F93AF93BF93EF9364
S1131810FF93E0914720F0914820309709F0199503
S1131820FF91EF91BF91AF919F918F917F916F91B4
S11318305F914F913F912F910F900BBE0F9009BE76
S11318400F9008BE0F900FBE0F901F9018951F9217
S11318500F920FB60F92112408B60F9218BE09B654
S11318600F9219BE0BB60F921BBE2F933F934F934B
S11318705F936F937F938F939F93AF93BF93EF93F4
S1131880FF93E0914520F0914620309709F0199597
S1131890FF91EF91BF91AF919F918F917F916F9144
S11318A05F914F913F912F910F900BBE0F9009BE06
S11318B00F9008BE0F900FBE0F901F9018951F92A7
S11318C00F920FB60F92112408B60F9218BE09B6E4
S11318D00F9219BE0BB60F921BBE2F933F934F93DB
S11318E05F936F937F938F939F93AF93BF93EF9384
S11318F0FF93E0914320F0914420309709F019952B
S1131900FF91EF91BF91AF919F918F917F916F91D3
S11319105F914F913F912F910F900BBE0F9009BE95
S11319200F9008BE0F900FBE0F901F9018951F9236
S11319300F920FB60F92112408B60F9218BE09B673
S11319400F9219BE0BB60F921BBE2F933F934F936A
S11319505F936F937F938F939F93AF93BF93EF9313
S1131960FF93E0914120F0914220309709F01995BE
S1131970FF91EF91BF91AF919F918F917F916F9163
S11319805F914F913F912F910F900BBE0F9009BE25
S11319900F9008BE0F900FBE0F901F9018951F92C6
S11319A00F920FB60F92112408B60F9218BE09B603
S11319B00F9219BE0BB60F921BBE2F933F934F93FA
S11319C05F936F937F938F939F93AF93BF93EF93A3
S11319D0FF93E0913F20F0914020309709F0199552
S11319E0FF91EF91BF91AF919F918F917F916F91F3
S11319F05F914F913F912F910F900BBE0F9009BEB5
S1131A000F9008BE0F900FBE0F901F9018951F9255
S1131A100F920FB60F92112408B60F9218BE09B692
S1131A200F9219BE0BB60F921BBE2F933F934F9389
S1131A305F936F937F938F939F93AF93BF93EF9332
S1131A40FF93E0913D20F0913E20309709F01995E5
S1131A50FF91EF91BF91AF919F918F917F916F9182
S1131A605F914F913F912F910F900BBE0F9009BE44
S1131A700F9008BE0F900FBE0F901F9018951F92E5
S1131A800F920FB60F92112408B60F9218BE09B622
S1131A900F9219BE0BB60F921BBE2F933F934F9319
S1131AA05F936F937F938F939F93AF93BF93EF93C2
S1131AB0FF93E0913B20F0913C20309709F0199579
S1131AC0FF91EF91BF91AF919F918F917F916F9112
S1131AD05F914F913F912F910F900BBE0F9009BED4
S1131AE00F9008BE0F900FBE0F901F9018951F9275
S1131AF00F920FB60F92112408B60F9218BE09B6B2
S1131B000F9219BE0BB60F921BBE2F933F934F93A8
S1131B105F936F937F938F939F93AF93BF93EF9351
S1131B20FF93E0913920F0913A20309709F019950C
S1131B30FF91EF91BF91AF919F918F917F916F91A1
S1131B405F914F913F912F910F900BBE0F9009BE63
S1131B500F9008BE0F900FBE0F901F9018951F9204
S1131B600F920FB60F92112408B60F9218BE09B641
S1131B700F9219BE0BB60F921BBE2F933F934F9338
S1131B805F936F937F938F939F93AF93BF93EF93E1
S1131B90FF93E0913720F0913820309709F01995A0
S1131BA0FF91EF91BF91AF919F918F917F916F9131
S1131BB05F914F913F912F910F900BBE0F9009BEF3
S1131BC00F9008BE0F900FBE0F901F9018951F9294
S1131BD00F920FB60F92112408B60F9218BE09B6D1
S1131BE00F9219BE0BB60F921BBE2F933F934F93C8
S1131BF05F936F937F938F939F93AF93BF93EF9371
S1131C00FF93E0913520F0913620309709F0199533
S1131C10FF91EF91BF91AF919F918F917F916F91C0
S1131C205F914F913F912F910F900BBE0F9009BE82
S1131C300F9008BE0F900FBE0F901F9018951F9223
S1131C400F920FB60F92112408B60F9218BE09B660
S1131C500F9219BE0BB60F921BBE2F933F934F9357
S1131C605F936F937F938F939F93AF93BF93EF9300
S1131C70FF93E0913320F0913420309709F01995C7
S1131C80FF91EF91BF91AF919F918F917F916F9150
S1131C905F914F913F912F910F900BBE0F9009BE12
S1131CA00F9008BE0F900FBE0F901F9018951F92B3
S1131CB00F920FB60F92112408B60F9218BE09B6F0
S1131CC00F9219BE0BB60F921BBE2F933F934F93E7
S1131CD05F936F937F938F939F93AF93BF93EF9390
S1131CE0FF93E0913120F0913220309709F019955B
S1131CF0FF91EF91BF91AF919F918F917F916F91E0
S1131D005F914F913F912F910F900BBE0F9009BEA1
S1131D100F9008BE0F900FBE0F901F9018951F9242
S1131D200F920FB60F92112408B60F9218BE09B67F
S1131D300F9219BE0BB60F921BBE2F933F934F9376
S1131D405F936F937F938F939F93AF93BF93EF931F
S1131D50FF93E0912F20F0913020309709F01995EE
S1131D60FF91EF91BF91AF919F918F917F916F916F
S1131D705F914F913F912F910F900BBE0F9009BE31
S1131D800F9008BE0F900FBE0F901F901895FC0186
S1131D90918195FFFDCF608380E090E00895FC0180
S1131DA091819923ECF7808108954F925F926F920D
S1131DB07F928F929F92AF92BF92EF92FF920F9376
S1131DC01F93CF937C014A015B0128013901FC0177
S1131DD0848182FF16C0D901C801689412F8B695AF
S1131DE0A795979587951694D1F7B901A801032E65
S1131DF036E176956795579547953A95D1F7302D05
S1131E0015C0D901C801689413F8B695A79597959C
S1131E1087951694D1F7B901A801032E37E1769579
S1131E206795579547953A95D1F7302D88159905BB
S1131E30AA05BB0508F4A6C084169506A606B7062F
S1131E4008F4A2C0F701848182FD04C0880C991CA7
S1131E50AA1CBB1CC301B201A50194010E94411F2D
S1131E602F3F31054105510508F490C08FEF90E0F4
S1131E70A0E0B0E0C9EF05C0281739074A075B079F
S1131E8058F0880F991FAA1FBB1FCD3F0CF4816027
S1131E90CF5FC73089F74FC0CC230CF04CC0D501BD
S1131EA0C401880F991FAA1FBB1F880F991FAA1F5F
S1131EB0BB1F880F991FAA1FBB1F481A590A6A0A19
S1131EC07B0ACE3FF4F48DEF9FEF8C1B9109C7FD85
S1131ED0939504C0440C551C661C771C8A95D2F754
S1131EE0D501C401B695A79597958795BC01CD01F9
S1131EF0640D751D861D971DA50194010E94411F47
S1131F0037C083E08C0FA501940104C0220F331F56
S1131F10441F551F8A95D2F7DA01C901B695A795D2
S1131F2097958795BC01CD01640D751D861D971D80
S1131F300E94411F1DC083E08C0FA501940104C0C1
S1131F40220F331F441F551F8A95D2F7DA01C901A6
S1131F50B695A79597958795BC01CD01640D751D20
S1131F60861D971D0E94411F2150310941095109C5
S1131F70832F8F70C295C07FC82BF701C783268338
S1131F8081E018C080E016C080E014C0D501C4010F
S1131F90880F991FAA1FBB1F880F991FAA1FBB1F59
S1131FA0880F991FAA1FBB1F481A590A6A0A7B0A7D
S1131FB0C9EF89CFCF911F910F91FF90EF90BF9000
S1131FC0AF909F908F907F906F905F904F90089507
S1131FD00F931F93CF93DF93EC018B01009709F4C8
S1131FE05DC1803C910529F460E180E00E94CE034C
S1131FF055C1C03484E0D80729F468E080E00E9429
S1132000CE034CC1C115E4E0DE0729F464E080E0AE
S11320100E94CE0343C1C038F1E0DF0729F462E037
S113202080E00E94CE033AC1C11581E0D80729F4AB
S113203061E080E00E94CE0331C1C038E3E0DE07F6
S113204029F461E081E00E94CE0328C1C039F3E0A5
S1132050DF0729F461E082E00E94CE031FC1C115AD
S113206082E0D80729F462E081E00E94CE0316C121
S1132070C034E2E0DE0729F462E082E00E94CE038D
S11320800DC1C115F3E0DF0729F464E081E00E948B
S1132090CE0304C1C03283E0D80729F464E082E0AF
S11320A00E94CE03FBC0C115E8E0DE0729F461E01D
S11320B083E00E94CE03F2C0C115F9E0DF0729F4E2
S11320C061E084E00E94CE03E9C0C1158AE0D8072C
S11320D029F461E085E00E94CE03E0C0C115EBE085
S11320E0DE0729F461E086E00E94CE03D7C0C03445
S11320F0F8E0DF0729F462E083E00E94CE03CEC05B
S1132100C03489E0D80729F462E084E00E94CE0359
S1132110C5C0C034EAE0DE0729F462E085E00E942D
S1132120CE03BCC0C034FBE0DF0729F462E086E0E4
S11321300E94CE03B3C0C03988E0D80729F464E014
S113214083E00E94CE03AAC0C039E9E0DE0729F487
S113215064E084E00E94CE03A1C0C039FAE0DF0746
S113216029F464E085E00E94CE0398C0C0398BE076
S1132170D80729F464E086E00E94CE038FC0C03CF7
S1132180E8E0DE0729F468E083E00E94CE0386C01D
S1132190C03CF9E0DF0729F468E084E00E94CE0344
S11321A07DC0C03C8AE0D80729F468E085E00E943D
S11321B0CE0374C0C03CEBE0DE0729F468E086E09F
S11321C00E94CE036BC0C03AF8E0DF0729F460E157
S11321D083E00E94CE0362C0C03A89E0D80729F4A4
S11321E060E184E00E94CE0359C0C03AEAE0DE0711
S11321F029F460E185E00E94CE0350C0C03AFBE0C0
S1132200DF0729F460E186E00E94CE0347C0C03BAB
S113221088E0D80729F460E283E00E94CE033EC040
S1132220C03BE9E0DE0729F460E284E00E94CE03CB
S113223035C0C03BFAE0DF0729F460E285E00E9484
S1132240CE032CC0C03B8BE0D80729F460E286E0C3
S11322500E94CE0323C0C038E4E0DE0729F460E422
S113226083E00E94CE031AC0C039F4E0DF0729F4EA
S113227060E484E00E94CE0311C0C03A84E0D80731
S113228029F460E485E00E94CE0308C0C03BE4E08A
S1132290DE0721F460E486E00E94CE038D818F7313
S11322A08D83F80195818481892B9681911198E021
S11322B0892B8D83F801408151816281738100E013
S11322C018E428EE31E0CE0170DD9C8198609C8397
S11322D09C8190619C83DF91CF911F910F91089510
S11322E04F925F926F927F928F929F92AF92BF9222
S11322F0CF92DF92EF92FF920F931F93CF93DF93CE
S113230000D01F92CDB7DEB749015A012701380129
S11323100F2EF4E6CF2ED12CE12CF12CF02DA701B9
S113232096010E94411F29833A834B835C83C50134
S1132330B401A70196010E94411F69817A818B81B2
S11323409C810E94411FCA01B901C2D724EB39EC18
S113235042E45EE30E949E1A4B015C01C301B20198
S1132360A70196010E94411FCA01B901B1D723E315
S113237033E948E853E4AFD66B017C0120E030E058
S113238040E85FE3C501B401A5D69B01AC01C701D8
S1132390B6010E943B1A24EF3DEF44ED5BE3FFD608
S11323A02496CDBFDEBFDF91CF911F910F91FF9097
S11323B0EF90DF90CF90BF90AF909F908F907F90E1
S11323C06F905F904F90089504C061507109810926
S11323D091096115710581059105B9F70895CF93A8
S11323E0DF93C0E6D6E08881826088838C81826036
S11323F08C8366E575E885E491E0E6DF8C818D7F6A
S11324008C83DF91CF910895CF93DF93C0E6D6E01C
S11324108881826088838C8182608C8366E575E81C
S113242085E491E0D1DF8C818D7F8C83DF91CF9126
S11324300895CF93DF93C0E6D6E0888182608883D5
S11324408C8182608C8366E575E885E491E0BCDF6D
S11324508C818D7F8C83DF91CF910895E0E0F6E04D
S11324608081886080838481886084830895E0E02B
S1132470F6E08081886080838481877F84830895E7
S1132480E0E8F6E0808180648083848180648483D2
S1132490089504C06150710981099109611571059C
S11324A081059105B9F70895E0E4F6E080EB8183B6
S11324B090E49283858383E58093C0080895809394
S11324C0C308E0ECF8E082818823ECF708958FEFED
S11324D0F6DF8091C3080895FF920F931F93CF9363
S11324E0DF9300E416E06894FF24F4F8F801F68220
S11324F0E6DFEDDFC82FD0E0DC2FCC27E8DFC80F04
S1132500D11DF801F58266ED74E180E090E0C1DF51
S1132510CE01DF91CF911F910F91FF9008951F93EA
S1132520CF93DF93C0E4D6E010E11E838EE1C7DFD2
S11325301D8366E570ED80E090E0ABDF82EACCDFDE
S1132540809395209093962084EAC6DF809391200F
S11325509093922086EAC0DF8093972090939820EE
S113256088EABADF80938F20909390208AEAB4DFC0
S113257080939320909394208CEAAEDF80938D20F7
S113258090938E20DF91CF911F9108958F929F9207
S1132590AF92BF92CF92DF92EF92FF921F93CF93AD
S11325A0DF93C0E4D6E010E11E8389DF1D8361E878
S11325B07BEB80E090E06DDF1E8380E080DF87DFCF
S11325C0C82ED12CE12CF12C5601992488247FDFCC
S11325D0C82ED12CE12CF12CFE2CED2CDC2CCC249F
S11325E0C80CD91CEA1CFB1C72DF1D83A7019601D1
S11325F0280F311D411D511DCA01B901DF91CF9131
S11326001F91FF90EF90DF90CF90BF90AF909F907D
S11326108F9008952F923F924F925F926F927F9284
S11326208F929F92AF92BF92CF92DF92EF92FF92DE
S11326300F931F93CF93DF93CDB7DEB76197CDBFD1
S1132640DEBF88E4A3DF6D837E838F83988788E56C
S11326509DDF2091932030919420890120E030E087
S1132660322F212F102F00276B017C01C01AD10AB1
S1132670E20AF30AC982DA82EB82FC8220908D207E
S113268030908E20D701C601BB0F880B982FDC0138
S1132690A980BA80CB80DC80E82EF82E082F182F72
S11326A0222D332D40E050E060E070E080E090E0C7
S11326B00E94761F898BB22FF32FE42F952E862E3E
S11326C0772EA82EB92EA0E00E94102084F4215069
S11326D0310940485F4F6F4F7F4F8F4F9F4FB22F4D
S11326E0F32FE42F952E862E772EA82EB92E2B2F7E
S11326F03F2F4E2F592D682D772D8A2D9B2D07E1C5
S11327000E94E01F822E932E00E3801A08EF900AA5
S1132710092C000CAA08BB088092892090928A2078
S1132720A0928B20B0928C20A0919720B0919820F9
S113273029813A814B815C810E946C1F4B015C01B1
S113274099232CF41FE7810E911CA11CB11C2401B8
S11327503501689416F875946794579447941694C1
S1132760D1F7BB0C8808982C540180919520909146
S113277096206C01E12CF12C00E010E0980189878F
S1132780DA86EB86FC860D871E872F87388B282FE9
S11327903D2D40E050E060E070E080E090E000E13A
S11327A00E94C71FF22FE32FC42ED52EE62EF72E3C
S11327B0082F192F242D352D462D572D682D782DB2
S11327C0882D982DAF2EBE2E0E94FE1FED80FE8018
S11327D00F81188517012801AE2CB32CC42CD52CDD
S11327E0E12CF12C00E010E00E94761F122F3987B3
S11327F04D83B52FF62FE72F782E892EA0E00E9467
S1132800102084F421503109404E5F4F6F4F7F4FA9
S11328108F4F9F4F122F39874D83B52FF62FE72FF8
S1132820782E892E212F39854D815B2F6F2F7E2F96
S1132830872D982D05E10E94E01F522E632E742EE1
S1132840598B6987F72FE82F492EA0918F20B091DB
S1132850902029813A814B815C810E946C1F4B013D
S11328605C0199232CF40FE3800E911CA11CB11C74
S113287075016401689415F8F594E794D794C794A6
S11328801694D1F7BB0C8808982C54012091912000
S113289030919220A901352F40E050E060E070E0D3
S11328A080E090E001E10E94C71F222E332E49836D
S11328B05D83B62FA72F082F192F2C2D3D2D4E2DBC
S11328C05F2D682D782D882D982DA22CB32CC980CE
S11328D0DD80EB2EFA2E0E94FE1FA22EB32EC42EF4
S11328E0D52EE62EF72E082F192F252D362D472D00
S11328F0598969857F2F8E2F942D0E940720122FCE
S11329003D834983B52FF62FE72F782E892EA0E03B
S11329100E94102084F4215030484F4F5F4F6F4F76
S11329207F4F8F4F9F4F122F3D834983B52FF62F33
S1132930E72F782E892E212F3D8149815B2F6F2F20
S11329407E2F872D982D0FE00E94E01F622F732F9A
S1132950842F952F6196CDBFDEBFDF91CF911F915C
S11329600F91FF90EF90DF90CF90BF90AF909F902A
S11329708F907F906F905F904F903F902F9008952D
S1132980FF920F931F93CF93DF93E0E0F6E0FF24D1
S1132990F394F2828EEF8083C0E0D2E0F882198251
S11329A080E18A8385E08C8361E270E082E00E94AA
S11329B0FD05082F10E0102F002760E270E082E090
S11329C00E94FD05082B0C871D87F8A219A2DF9130
S11329D0CF911F910F91FF900895E0E0F2E080A164
S11329E0806880A383A18823E9F360912402709115
S11329F0250280E090E06CD422EA3CE640E05AE311
S1132A003AD525E230E64FEA5DE364C308958F9238
S1132A109F92AF92BF92CF92DF92EF92FF92DDDF4F
S1132A206B017C0120E030E44CE156E424D54B01F9
S1132A305C0123E333E343E550E4C701B6014AD321
S1132A409B01AC01C501B401AAD32BE530EF43E8E7
S1132A505CE3A5D3D0D49B01AC0160E070E988E7C6
S1132A6095E49DD309D434D4FF90EF90DF90CF90B8
S1132A70BF90AF909F908F900895CF93DF93EB0119
S1132A808ED98883DF91CF91089581C90895CF931A
S1132A90DF93CDB7DEB72797CDBFDEBFE0E4F6E026
S1132AA088E081838583E0E6F6E08183858380EA9C
S1132AB098E0809383209093842085E495E180932B
S1132AC08120909382208DE395E180937F209093E1
S1132AD08020EDE0F0E284818D8385818E83868180
S1132AE08F8380819181A281B38189839A83AB830F
S1132AF0BC8360E183E00E94CE03BE016F5F7F4F21
S1132B0080EA98E065DA64EE73E08DEF93E00E946A
S1132B101921E6E0F0E284818D8385818E838681AC
S1132B208F8380819181A281B38189839A83AB83CE
S1132B30BC8360E184E00E94CE03BE016F5F7F4FDF
S1132B4080EA99E045DA2796CDBFDEBFDF91CF91C9
S1132B5008951F920F920FB60F92112408B60F9288
S1132B6018BE09B60F9219BE0BB60F921BBE2F9357
S1132B703F934F935F936F937F938F939F93AF9301
S1132B80BF93EF93FF9380EA98E009D9809399204B
S1132B90E09199208E2FEE0F990BAA0BBB0BFC0131
S1132BA0B197EF33F105A0F48827E250FF4F8F4F20
S1132BB00C94631F0E9485030BC011DC09C024DC44
S1132BC007C037DC05C04ADC03C051DC01C058DC57
S1132BD0FF91EF91BF91AF919F918F917F916F91F1
S1132BE05F914F913F912F910F900BBE0F9009BEB3
S1132BF00F9008BE0F900FBE0F901F90189504C041
S1132C006150710981099109611571058105910569
S1132C10B9F70895009709F45CC1803C910529F443
S1132C2060E180E00C94CE030895803424E09207A0
S1132C3029F468E080E00C94CE030895811524E023
S1132C40920729F464E080E00C94CE030895803860
S1132C5021E0920729F462E080E00C94CE03089509
S1132C60811521E0920729F461E080E00C94CE0301
S1132C700895803823E0920729F461E081E00C9400
S1132C80CE030895803923E0920729F461E082E0BD
S1132C900C94CE030895811522E0920729F462E092
S1132CA081E00C94CE030895803422E0920729F445
S1132CB062E082E00C94CE030895811523E092072C
S1132CC029F464E081E00C94CE030895803223E07B
S1132CD0920729F464E082E00C94CE0308958115F0
S1132CE028E0920729F461E083E00C94CE03089570
S1132CF0811529E0920729F461E084E00C94CE0365
S1132D00089581152AE0920729F461E085E00C9486
S1132D10CE03089581152BE0920729F461E086E043
S1132D200C94CE030895803428E0920729F462E0DD
S1132D3083E00C94CE030895803429E0920729F4AB
S1132D4062E084E00C94CE03089580342AE0920774
S1132D5029F462E085E00C94CE03089580342BE0DE
S1132D60920729F462E086E00C94CE03089580393A
S1132D7028E0920729F464E083E00C94CE030895DC
S1132D80803929E0920729F464E084E00C94CE03AE
S1132D90089580392AE0920729F464E085E00C94D0
S1132DA0CE03089580392BE0920729F464E086E08D
S1132DB00C94CE030895803C28E0920729F468E03F
S1132DC083E00C94CE030895803C29E0920729F413
S1132DD068E084E00C94CE030895803C2AE09207D6
S1132DE029F468E085E00C94CE030895803C2BE040
S1132DF0920729F468E086E00C94CE030895803AA3
S1132E0028E0920729F460E183E00C94CE0308954E
S1132E10803A29E0920729F460E184E00C94CE031F
S1132E200895803A2AE0920729F460E185E00C9441
S1132E30CE030895803A2BE0920729F460E186E0FE
S1132E400C94CE030895803B28E0920729F460E2B5
S1132E5083E00C94CE030895803B29E0920729F483
S1132E6060E284E00C94CE030895803B2AE092074C
S1132E7029F460E285E00C94CE030895803B2BE0B6
S1132E80920729F460E286E00C94CE03089580381A
S1132E9024E0920729F460E483E00C94CE030895BF
S1132EA0803924E0920729F460E484E00C94CE0392
S1132EB00895803A24E0920729F460E485E00C94B4
S1132EC0CE030895803B944021F460E486E00C94A2
S1132ED0CE030895CF93DF93CDB7DEB7C850D1406A
S1132EE0CDBFDEBF0E94990380E09BE093DE80E0CB
S1132EF099E090DE64E086E00E94CE0364E084E022
S1132F000E94CE0368E083E00E94CE0380EA98E04A
S1132F1081DEBDDD80EC98E07DDEC6DA00DB80E09A
S1132F2092E078DE2DDD76DBCB5FDE4F688379833C
S1132F308A839B83C550D1406DDB312C812C912C2D
S1132F4054016894442445F8512CCE0101963C0167
S1132F500F2EF2E42F2EF02DE4E1F0E240825182B4
S1132F6059DBCF5FDE4F688379838A839B83C150AB
S1132F70D1404DDD81D17B018C01CF5FDE4F2881B3
S1132F8039814A815B81C150D140CB5FDE4F68817A
S1132F9079818A819B81C550D140A2D968D16B01C6
S1132FA07C0198D126E636E646E65FE364D2CF5F3D
S1132FB0DE4F688379838A839B83C150D140C501E6
S1132FC0B40188D120ED3CEC4CEC5DE354D29B0180
S1132FD0AC01CF5FDE4F688179818A819B81C150CA
S1132FE0D14079D044D14B015C01F30180E091E000
S1132FF011920197E9F729822A827F926F920E94A7
S11330009F2166E571E681E590E0F9DD0F900F9070
S1133010311022C095E59093810690938506E8E0EF
S1133020E0930406D501C4018C199D09AE09BF09BA
S11330300AF092CFD501C40189559240A109B10982
S1133040873C9105A105B10508F086CF81E0809306
S113305081068093850603C0F1E03F1212C08CE222
S1133060881681E09806A104B1044CF582E08093AF
S113307081068093850690E8909301069093050657
S113308003C0E2E03E1268CFD501C4018C199D094A
S1133090AE09BF09181619061A061B069CF0F4E6B9
S11330A0CF16D104E104F1048CF488E08093010686
S11330B0809305060F2EF3E03F2EF02D4DCF3324E1
S11330C033944ACF6894332431F846CF6894332438
S11330D031F842CF5058BB27AA270ED04DC13ED15C
S11330E030F043D120F031F49F3F11F41EF433C18A
S11330F00EF4E095E7FB29C1E92F4FD180F3BA170D
S1133100620773078407950718F071F49EF567C189
S11331100EF4E0950B2EBA2FA02D0B01B9019001EE
S11331200C01CA01A0011124FF27591B99F0593F32
S113313050F4503E68F11A16F040A22F232F342F7A
S11331404427585FF3CF469537952795A795F040C8
S11331505395C9F77EF41F16BA0B620B730B840BDD
S1133160BAF09150A1F0FF0FBB1F661F771F881F95
S1133170C2F70EC0BA0F621F731F841F48F48795ED
S113318077956795B795F7959E3F08F0B3CF9395DC
S1133190880F08F09927EE0F9795879508950CD01E
S11331A0EBC0E3D040F0DAD030F021F45F3F19F007
S11331B0CCC0511115C1CFC0F0D098F39923C9F3F5
S11331C05523B1F3951B550BBB27AA276217730729
S11331D0840738F09F5F5F4F220F331F441FAA1FDD
S11331E0A9F333D00E2E3AF0E0E830D0915050409D
S11331F0E695001CCAF729D0FE2F27D0660F771F4B
S1133200881FBB1F261737074807AB07B0E809F02C
S1133210BB0B802DBF01FF2793585F4F2AF09E3FC1
S1133220510568F092C0DCC05F3FECF3983EDCF3DC
S1133230869577956795B795F7959F5FC9F7880F3A
S1133240911D9695879597F90895E1E0660F771F8C
S1133250881FBB1F621773078407BA0720F0621B1D
S1133260730B840BBA0BEE1F88F7E095089504D016
S11332706894B111B5C0089598D088F09F5790F024
S1133280B92F9927B751A0F0D1F0660F771F881F87
S1133290991F1AF0BA95C9F712C0B13081F09FD0C6
S11332A0B1E008959CC0672F782F8827B85F39F064
S11332B0B93FCCF3869577956795B395D9F73EF4E6
S11332C090958095709561957F4F8F4F9F4F08958E
S11332D0E89409C097FB3EF49095809570956195AC
S11332E07F4F8F4F9F4F9923A9F0F92F96E9BB2762
S11332F09395F695879577956795B795F111F8CFDE
S1133300FAF4BB0F11F460FF1BC06F5F7F4F8F4F48
S11333109F4F16C0882311F096E911C0772321F03E
S11333209EE8872F762F05C0662371F096E8862FD6
S113333070E060E02AF09A95660F771F881FDAF72D
S1133340880F9695879597F9089597F99F6780E870
S113335070E060E008959FEF80EC089500240A94E3
S11333601616170618060906089500240A9412165C
S11333701306140605060895092E0394000C11F48F
S1133380882352F0BB0F40F4BF2B11F460FF04C03C
S11333906F5F7F4F8F4F9F4F089557FD9058440F95
S11333A0551F59F05F3F71F04795880F97FB991FA0
S11333B061F09F3F79F0879508951216130614065D
S11333C0551FF2CF4695F1DF08C0161617061806EA
S11333D0991FF1CF86957105610508940895E894C5
S11333E0BB2766277727CB0197F908950EF023C1F1
S11333F0B2CF6894AACFD9DFC8F39923D1F3C6F327
S1133400DF93CF931F930F93FF92C92FDD27882358
S11334102AF02197660F771F881FDAF720E030E043
S113342040E85FEB9FE3883920F0803E30F021963E
S11334308F7751DEEAE7F2E003C04DDEE7EAF2E01F
S113344008D18B01BE01EC01FB2E6F5771097595F4
S1133450771F880B990B3EDF28E132E741E35FE3F6
S113346016D0AF2D9801AE01FF900F911F91CF910F
S1133470DF9142DE81CF0BD07FCF70DF28F075DF84
S113348018F0952309F061CF66CF1124A9CF85DF09
S1133490A0F3959FD1F3950F50E0551F629FF00163
S11334A0729FBB27F00DB11D639FAA27F00DB11DBC
S11334B0AA1F649F6627B00DA11D661F829F222745
S11334C0B00DA11D621F739FB00DA11D621F839FCC
S11334D0A00D611D221F749F3327A00D611D231FA2
S11334E0849F600D211D822F762F6A2F11249F57F0
S11334F050408AF0E1F088234AF0EE0FFF1FBB1F13
S1133500661F771F881F91505040A9F79E3F5105B1
S113351070F01BCF65CF5F3FECF3983EDCF38695EC
S113352077956795B795F795E7959F5FC1F7FE2B5C
S1133530880F911D9695879597F90895FA01EE0FD6
S1133540FF1F30962105310599F16115710561F46C
S11335508038BFE39B0749F168949038810561F096
S11335608038BFEF9B0741F0992342F5FF3FE10507
S11335703105210511F1E8940894E795D901AA23AE
S113358029F4AB2FBE2FF85FD0F310C0FF5F70F4A7
S1133590A695E0F7F73950F019F0FF3A38F49F7721
S11335A09F930CD00F9007FC905808953EF0D3CE13
S11335B060E070E080E89FE308954FE79F775F93B2
S11335C04F933F932F9317DF2F913F914F915F912B
S11335D052DF05C019F40EF0B8CE01CFBCCEE5DE43
S11335E0C8F39638C0F707F80F92E8942BE33AEA49
S11335F048EB5FE74EDF0F920F920F924DB75EB725
S11336000F9289D0E4EDF2E024D04F915F91EF91D5
S1133610FF91E595EE1FFF1F49F0FE57E068442730
S1133620EE0F441FFA95E1F74195550B40D00F90EA
S113363007FE34C008959F3F31F0915020F48795E0
S113364077956795B795880F911D9695879597F906
S11336500895DF93CF931F930F93FF92EF92DF921E
S11336607B018C01689405C0DA2EEF0110DFFE01A6
S1133670E894A5912591359145915591AEF3EF01CB
S11336803BDDFE019701A801DA9479F7DF90EF9012
S1133690FF900F911F91CF91DF9108959B01AC0191
S11336A060E070E080E89FE37ACD4FCEC4CF7DDE4A
S11336B0E8F39923D9F3940F511DBBF39150504073
S11336C094F059F0882332F0660F771F881F9150C9
S11336D05040C1F79E3F510544F7880F911D9695C0
S11336E0879597F908955F3FACF0983E9CF0BB270F
S11336F0869577956795B79508F4B1609395C1F76A
S1133700BB0F58F711F460FFE8CF6F5F7F4F8F4F07
S11337109F4FE3CF65CEFA01DC01AA0FBB1F9B01CB
S1133720AC01BF5728F422273327442750781FC001
S1133730B75188F4AB2F0024469537952795011C83
S1133740A395D2F3002069F0220F331F441FB395D1
S1133750DAF30DD0BFCC61307105A0E88A07B94611
S113376030F49B01AC016627772788279078309640
S113377021F0208331834283538308952F923F9213
S11337804F925F926F927F928F929F92AF92BF926D
S1133790CF92DF92EF92FF920F931F93CF93DF9319
S11337A0CDB7DEB76097CDBFDEBF7C011B016A01D8
S11337B0FC0116821782838181FF2AC39E012F5F39
S11337C03F4F3901F7019381F10193FD859193FFF7
S11337D081911F01882309F417C3853239F493FDBD
S11337E0859193FF81911F01853231F4B70190E0F7
S11337F06AD556016501E6CF10E0512C912CFFE10A
S1133800F915D8F08B3279F038F4803279F08332BC
S1133810A1F4F92DF0612EC08D3261F0803369F48A
S1133820292D21602DC0392D3260932E892D84607D
S1133830982E2AC0E92DE86015C097FC2DC020ED14
S1133840280F2A3088F496FE06C03AE0139F200D14
S11338501124122F19C08AE0589E200D1124522ED3
S1133860E92DE0629E2E10C08E3231F496FCCCC25B
S1133870F92DF0649F2E08C08C3621F4292D206880
S1133880922E02C0883641F4F10193FD859193FF95
S113389081911F018111B3CF9BEB980F933020F4DA
S11338A0992D9061805E07C09BE9980F933008F0D2
S11338B059C1992D9F7E96FF16E09F73992E8536E8
S11338C019F49064992E08C0863621F4392F306893
S11338D0932E02C01111115097FE07C01C3350F4EF
S11338E044244394410E27E00BC0183038F027E0FD
S11338F017E005C027E09CE3492E02C0212F412C8C
S1133900560184E0A80EB11CF601608171818281A8
S11339109381042DA3019FD36C01F981FC87F0FFEF
S113392002C0F3FF06C091FC06C092FE06C000E28E
S113393005C00DE203C00BE201C000E08C858C7071
S113394019F0011143C280C297FE10C04C0CFC85D3
S1133950F4FF04C08A81813309F44A94141474F581
S113396028E0241578F588E0482E2CC096FC2AC05F
S1133970812F90E08C159D059CF03CEFC3163FEF22
S1133980D30674F0892D8068982E0AC0E2E0F0E036
S1133990EC0FFD1FE10FF11D8081803319F41150EC
S11339A01111F4CF97FE0EC044244394410E812F8D
S11339B090E0C816D9062CF41C1904C0442443947E
S11339C001C010E097FE06C01C141D0434F4C601A7
S11339D0019605C085E090E002C081E090E001110D
S11339E00196112331F0212F30E02F5F3F4F820FDA
S11339F0931F252D30E08217930714F4581A01C041
S1133A00512C892D897041F4552031F0B70180E2A1
S1133A1090E059D45A94F8CF002321F0B701802FB5
S1133A2090E051D493FC08C0552031F0B70180E3F5
S1133A3090E049D45A94F8CF97FE4AC04601D7FE85
S1133A4002C0812C912CC60188199909F301E80F51
S1133A50F91FED87FE879601241931092F87388BCA
S1133A60012F10E01195019511093FEF831693067C
S1133A7021F4B7018EE290E026D4C814D9044CF0A6
S1133A808F8598898815990524F4ED85FE858181B3
S1133A9001C080E3F1E08F1A91082D853E852F5FE8
S1133AA03F4F2D873E878016910624F0B70190E0A2
S1133AB00AD4DBCFC814D90441F49A81963320F494
S1133AC0953319F43C8534FF81E3B70190E048C095
S1133AD08A81813319F09C859F7E9C87B70190E091
S1133AE0F2D3111105C094FC16C085E690E015C010
S1133AF0B7018EE290E0E7D31E5F82E001E0080F99
S1133B00F301E80FF11D8081B70190E0DCD3802F31
S1133B100113F4CFE8CF85E490E0B701D4D3D7FC08
S1133B2006C0C114D10441F4EC85E4FF05C0D1946E
S1133B30C194D1088DE201C08BE2B70190E0C3D3F8
S1133B4080E32AE0C216D1042CF08F5FFAE0CF1A8A
S1133B50D108F7CFB70190E0B6D3B701C601C0963C
S1133B60B2D349C1833631F0833779F0833509F014
S1133B7052C01FC0560132E0A30EB11CF601808171
S1133B80898301E010E0630111C05601F2E0AF0E39
S1133B90B11CF601C080D18096FE03C0612F70E095
S1133BA002C06FEF7FEFC60139D38C01F92DFF7787
S1133BB013C0560122E0A20EB11CF601C080D180D0
S1133BC096FE03C0612F70E002C06FEF7FEFC60165
S1133BD01AD38C01F92DF0689F2EF3FD18C0852DA2
S1133BE090E00817190798F4B70180E290E06BD3CE
S1133BF05A94F5CFF60197FC859197FE81916F0158
S1133C00B70190E060D351105A9401501109011585
S1133C10110581F7F0C0843611F0893659F5560143
S1133C2097FE09C024E0A20EB11CF60160817181E7
S1133C30828193810AC0F2E0AF0EB11CF60160816B
S1133C407181072E000C880B990BF92DFF769F2E9E
S1133C5097FF09C090958095709561957F4F8F4F20
S1133C609F4FF0689F2E2AE030E0A3017BD3C82E3B
S1133C70C6183EC0092D853721F40F7E2AE030E0B6
S1133C801DC0097F8F3691F018F4883559F0BCC0F7
S1133C90803719F0883711F0B7C0006104FF09C0FC
S1133CA0046007C094FE08C0066006C028E030E047
S1133CB005C020E130E002C020E132E0560107FFF8
S1133CC009C084E0A80EB11CF60160817181828173
S1133CD0938108C0F2E0AF0EB11CF60160817181DE
S1133CE080E090E0A3013ED3C82EC6180F77902E33
S1133CF096FE0BC0092D0E7FC11650F494FE0AC027
S1133D0092FC08C0092D0E7E05C0DC2C092D03C0D1
S1133D10DC2C01C0D12E04FF0DC0FE01EC0DF11D01
S1133D208081803311F4097E09C002FF06C0D39458
S1133D30D39404C0802F867809F0D39403FD10C077
S1133D4000FF06C01C2DD51478F4150D1D190CC0E8
S1133D50D51450F4B70180E290E0B5D2D394F8CFF3
S1133D60D51410F45D1801C0512C04FF0FC0B70125
S1133D7080E390E0A8D202FF16C001FD03C088E7EB
S1133D8090E002C088E590E0B7010CC0802F8678EF
S1133D9051F001FF02C08BE201C080E207FD8DE219
S1133DA0B70190E090D2C11630F4B70180E390E0FF
S1133DB08AD21150F8CFCA94F301EC0DF11D808121
S1133DC0B70190E080D2C110F6CF15C0F4E0F5152C
S1133DD050F584E0581A93FE1EC0011125C02C85AD
S1133DE023FF27C00CEF12E0392D3071932EF80118
S1133DF08491811121C0552009F4FCCCB70180E2E3
S1133E0090E061D25A94F7CFF7018681978123C05D
S1133E108FEF9FEF20C0B70180E290E054D25A9414
S1133E205110F9CFDACF512CB701802F90E04BD24B
S1133E30D6CF00E013E0D8CF91108052B70190E0C4
S1133E4042D20F5F1F4FD3CF23E0251510F483E038
S1133E50C1CF512CC4CF6096CDBFDEBFDF91CF91CF
S1133E601F910F91FF90EF90DF90CF90BF90AF9094
S1133E709F908F907F906F905F904F903F902F9086
S1133E800895A1E21A2EAA1BBB1BFD010DC0AA1F97
S1133E90BB1FEE1FFF1FA217B307E407F50720F0AF
S1133EA0A21BB30BE40BF50B661F771F881F991F2A
S1133EB01A9469F760957095809590959B01AC0173
S1133EC0BD01CF010895EE0FFF1F881F8BBF079020
S1133ED0F691E02D1BBE1994AFD0A59F900DB49F11
S1133EE0900DA49F800D911D11240895DF93CF930D
S1133EF01F930F939A9DF02D219FF00D8B9DF00D34
S1133F008A9DE02DF10D039FF00D029FE00DF11D40
S1133F104E9DE00DF11D5E9DF00D4F9DF00D7F93C4
S1133F206F93BF92AF925F934F93D50185D08B016E
S1133F30AC01D70181D0EB01E80FF91FD6011FD0E6
S1133F402F913F91D60178D0C60FD71FE81FF91FD4
S1133F50AF91BF9114D02F913F916ED0C60FD71F50
S1133F60E81FF91FD60168D0E60FF71F9801BE01BC
S1133F70CF0111240F911F91CF91DF9108955CD04F
S1133F80460F571FC81FD91F08F4319608950F9381
S1133F90083090F0982F872F762F652F542F432FBA
S1133FA0322F22270850F4CF220F331F441F551FEE
S1133FB0661F771F881F991F0A95B2F70F910895FE
S1133FC097FB10F8169400080F93083098F00850E7
S1133FD0232F342F452F562F672F782F892F902D7D
S1133FE0F4CF059497958795779567955795479559
S1133FF0379527950A95AAF70F9108952A0D3B1D29
S11340004C1D5D1D6E1D7F1D801F911F08952A1973
S11340103B094C095D096E097F09800B910B0895DA
S11340200024A7FD00942A173005400550056005BB
S11340307005800590050895A29FB001B39FC0014B
S1134040A39F700D811D1124911DB29F700D811DC0
S11340501124911D0895283008F027E03327DA0150
S1134060990F311D87FD916000966105710539F442
S113407032602E5F3D9330E32A95E1F708959F3F28
S113408030F080387105610509F03C5F3C5F3D9379
S1134090913008F08068911DDF93CF931F930F93A5
S11340A0FF92EF92192F987F9695E92F9695969502
S11340B0E90FFF27E25AFC4F99273327EE24FF2408
S11340C0A701E70105900894079428F4360FE71E2A
S11340D0F81E491F511D660F771F881F991F0694EC
S11340E0A1F70590079428F4E70EF81E491F561F00
S11340F0C11D770F881F991F661F0694A1F70590AD
S1134100079428F4F80E491F561FC71FD11D880FA6
S1134110991F661F771F0694A1F70590079420F452
S1134120490F561FC71FD81F990F661F771F881F77
S11341300694A9F784911095177041F0D695C79508
S113414057954795F794E7941A95C1F7E4E0F3E09F
S113415068941590159135916591959105907FE23C
S11341607395E118F10A430B560BC90BD009C0F73C
S1134170E10CF11E431F561FC91FD01D7EF470337E
S113418011F48A95E6CFE894015030F0080F0AF450
S11341900027021708F4202F2395022F7A3328F0E2
S11341A079E37D932A95E9F710C07D932A9589F6E2
S11341B0069497956795379517951794E118F10A22
S11341C0430B560BC90BD00998F023957E91739538
S11341D07A3308F070E37C932013B8F77E91706112
S11341E07D9330F0839571E37D9370E32A95E1F735
S11341F01124EF90FF900F911F91CF91DF91992798
S113420087FD90950895FC01059061507040011060
S1134210D8F7809590958E0F9F1F0895FC016150EB
S1134220704001900110D8F7809590958E0F9F1FD4
S113423008950F931F93CF93DF93009731F4611583
S1134240710519F480E090E039C08B01EC016EE057
S113425070E081E090E0E4D0FC01892B99F380E8E0
S113426083830115110571F00287138781E8838325
S113427080919A2090919B20892B21F4E0939A209D
S1134280F0939B202097C9F0C087D18783818260F7
S1134290838380919C2090919D20892B71F4E093DD
S11342A09C20F0939D2080919E2090919F20892BAB
S11342B021F4E0939E20F0939F20CF01DF91CF91D2
S11342C01F910F9108950F931F93CF93DF93FB01D9
S11342D0238121FD03C08FEF9FEF2CC022FF16C066
S11342E046815781248135814217530744F4A081C4
S11342F0B1819D012F5F3F4F208331838C932681B1
S113430037812F5F3F4F2683378314C08B01EC0125
S1134310FB010084F185E02D1995892BE1F6D80184
S113432016968D919C911797019616968D939C9352
S11343301797CE01DF91CF911F910F910895CF93DD
S1134340DF93CDB7DEB7AE014A5F5F4FFA016191EB
S11343507191AF0180919C2090919D200FDADF91A3
S1134360CF910895FA01AA27283051F1203181F123
S1134370E8946F936E7F6E5F7F4F8F4F9F4FAF4F69
S1134380B1E03ED0B4E03CD0670F781F891F9A1F7C
S1134390A11D680F791F8A1F911DA11D6A0F711D30
S11343A0811D911DA11D20D009F468943F912AE03C
S11343B0269F11243019305D3193DEF6CF01089524
S11343C0462F4770405D4193B3E00FD0C9F7F6CF55
S11343D0462F4F70405D4A3318F0495D31FD40521D
S11343E0419302D0A9F7EACFB4E0A69597958795B3
S11343F077956795BA95C9F7009761057105089592
S11344009B01AC010A2E069457954795379527953D
S1134410BA95C9F7620F731F841F951FA01D0895D5
S11344200F931F93CF93DF93869F8001879F100D77
S1134430969F100D1124C8010DD0EC01009721F0B6
S1134440A80160E070E027D1CE01DF91CF911F91E8
S11344500F9108950F931F93CF93DF9382309105AB
S113446010F482E090E0E091A220F091A32020E0FB
S113447030E0A0E0B0E0309719F140815181028131
S1134480138148175907C8F08417950769F41097E2
S113449031F012960C93129713961C9327C0009335
S11344A0A2201093A32022C02115310519F0421730
S11344B0530718F49A01BD01EF01DF01F801DBCFC6
S11344C021153105F9F0281B390B2430310580F40E
S11344D08A819B816115710521F0FB01828393839D
S11344E004C08093A2209093A320FE01329644C07E
S11344F0FE01E20FF31F8193919322503109288327
S113450039833AC02091A0203091A120232B41F47B
S113451020910220309103202093A0203093A120E9
S113452020910020309101202115310541F42DB74F
S11345303EB74091042050910520241B350BE09197
S1134540A020F091A120E217F307A0F42E1B3F0B4B
S11345502817390778F0AC014E5F5F4F24173507F1
S113456048F04E0F5F1F4093A0205093A1208193E9
S1134570919302C0E0E0F0E0CF01DF91CF911F9171
S11345800F910895CF93DF93009709F481C0FC0144
S1134590329712821382A091A220B091A320109787
S11345A081F420813181820F931F2091A0203091CA
S11345B0A1202817390751F5E093A020F093A120FA
S11345C067C0ED0120E030E0CE17DF0740F44A81F8
S11345D05B819E0141155105F1F0EA01F5CFC283DB
S11345E0D38340815181840F951FC817D90759F48B
S11345F088819981840F951F0296808391838A8193
S11346009B81828393832115310529F4E093A220B1
S1134610F093A3203DC0E901EA83FB8349915991BA
S1134620C40FD51FEC17FD0761F480819181840FBD
S1134630951F0296E90188839983828193818A83F5
S11346409B83E0E0F0E012968D919C911397009784
S113465019F0FD01DC01F7CF8D919C9111979D011B
S11346602E5F3F4F820F931F2091A0203091A120F5
S11346702817390769F4309729F41092A220109270
S1134680A32002C012821382A093A020B093A12081
S1134690DF91CF910895DC0101C06D9341505040EA
S10B46A0E0F70895F894FFCF40
S11346A80000A420200080250000030001802500CC
S11346B80003000148656C6C6F20576F726C6421AD
S10746C8200A0000C0
S9030000FC
