S019000043616E5361742050726F626520436F64652E737265631E
S1130000BFC10000E3C10000E1C10000DFC1000086
S1130010DDC10000DBC10000D9C10000D7C1000070
S1130020D5C10000D3C10000D1C10000CFC1000080
S1130030CDC10000CBC1000038C400006EC4000074
S1130040A4C40000DAC4000010C5000046C50000C6
S11300507CC50000B2C50000E8C500001EC6000053
S1130060B5C10000B3C10000B1C10000AFC10000C0
S1130070ADC10000ABC10000A9C10000A7C10000D0
S1130080A5C10000A3C10000A1C100009FC10000E0
S11300909DC100009BC1000099C1000002C3000083
S11300A03DC3000078C30000B3C300008FC100004B
S11300B08DC100008BC1000089C100000C94B508FB
S11300C00C94ED080C9425090C945D090C94950985
S11300D00C94CD090C94050A0C943D0A0C94750AF1
S11300E00C94AD0A73C1000071C100006FC100001F
S11300F06DC100006BC1000069C1000067C1000050
S113010065C1000063C1000061C100005FC100005F
S11301105DC100005BC1000059C10000CEC10000F8
S113012009C2000044C200007FC200004FC10000A9
S11301304DC10000EAC5000020C6000056C60000FC
S11301408CC60000C2C60000F8C600002EC700001E
S113015064C700009AC70000D0C7000037C1000080
S113016035C1000033C1000031C100002FC10000BF
S11301702DC100002BC1000029C1000027C10000CF
S113018025C1000023C1000021C100001FC10000DF
S11301901DC100001BC1000019C1000017C10000EF
S11301A015C1000013C1000011C100000FC10000FF
S11301B00C94E50A0C941D0B0C94550B0C948D0BAC
S11301C00C94C50B0C94FD0B0C94350C0C946D0C19
S11301D00C94A50C0C94DD0CF9C00000F7C00000D1
S11301E0F5C00000F3C00000F1C00000EFC0000043
S11301F0EDC00000EBC00000E9C0000008000000F2
S1130200BE922449123EABAAAA2ABECDCCCC4C3E07
S113021000000080BEABAAAAAA3E00000000BF00F6
S11302200000803F0000000000084178D3BB4387F2
S1130230D1133D190E3CC3BD4282AD2B3E68EC8206
S113024076BED98FE1A93E4C80EFFFBE01C4FF7F8B
S11302503F000000000007634236B79BD8A71A3955
S1130260685618AEBAAB558C1D3CB7CC5763BD6D00
S1130270EDFD753EF6177231BF000000803F6E61E0
S11302806E00696E660000407A10F35A00A0724E48
S113029018090010A5D4E80000E87648170000E427
S11302A00B54020000CA9A3B000000E1F50500006F
S11302B080969800000040420F000000A0860100D4
S11302C00000102700000000E803000000006400A4
S11302D0000000000A00000000000100000000000F
S11302E02C76D888DC674F0823DFC1DFAE59E1B133
S11302F0B796E5E3E453C63AE651997696E8E6C242
S11303008426EB898C9B62ED407C6FFCEFBC9C9F48
S113031040F2BAA56FA5F490055A2AF75C936B6C6A
S1130320F9676DC11BFCE0E40D47FEF520E6B5005E
S1130330D0ED902E0300943577050080841E0800CC
S113034000204E0A000000C80C333333330F986E7C
S113035012831141EF8D2114893BE65516CFFEE639
S1130360DB18D1844B381BF77C1D901DA4BBE424FF
S1130370203284725E228100C9F124ECA1E53D277C
S113038011241FBECFEFCDBFDFE3DEBF00E00CBF03
S113039018BE19BE1ABE1BBE10E2A0E0B0E2EEEE1B
S11303A0F1E400E00BBF02C007900D92A036B10744
S11303B0D9F71BBE20E2A0E6B0E201C01D92A43D25
S11303C0B207E1F70E94EB140C94F52019CECF93F9
S11303D0DF931F921F92CDB7DEB78FEF809370002B
S11303E080937100809372008093730080937400F3
S11303F080937500809376008FB78A83F8949A81EE
S1130400E0E5F0E08081826080839FBF818181FF8D
S1130410FDCF61E080E490E038D28FB78983F8940F
S11304209981E0E5F0E080818E7F80839FBF0F900B
S11304300F90DF91CF910895CF93DF931F92CDB7A3
S1130440DEB79FB79983F8949981E82FF0E0E059DB
S1130450FF4F60958081682360839FBF0F90DF9179
S1130460CF910895CF93DF931F92CDB7DEB78091DC
S1130470B4209091B520E091B020F091B120BE015C
S11304806F5F7F4F19958981082E000C990B0F908F
S1130490DF91CF910895682F8091B4209091B52079
S11304A0E091B220F091B320199599231CF081E0DA
S11304B090E008958FEF9FEF08951F920F920FB66B
S11304C00F92112408B60F9218BE09B60F9219BEE6
S11304D00BB60F921BBE2F933F934F935F936F9373
S11304E07F938F939F93AF93BF93EF93FF93409129
S11304F0240250912502E091B820F091B92061E0E6
S113050080E092E01995FF91EF91BF91AF919F9197
S11305108F917F916F915F914F913F912F910F90A8
S11305200BBE0F9009BE0F9008BE0F900FBE0F9028
S11305301F9018951F920F920FB60F92112408B6B0
S11305400F9218BE09B60F9219BE0BB60F921BBEBE
S11305502F933F934F935F936F937F938F939F93C7
S1130560AF93BF93EF93FF9340912C0250912D02D0
S1130570E091B820F091B92062E080E092E0199512
S1130580FF91EF91BF91AF919F918F917F916F9167
S11305905F914F913F912F910F900BBE0F9009BE29
S11305A00F9008BE0F900FBE0F901F9018951F92CA
S11305B00F920FB60F92112408B60F9218BE09B607
S11305C00F9219BE0BB60F921BBE2F933F934F93FE
S11305D05F936F937F938F939F93AF93BF93EF93A7
S11305E0FF934091340250913502E091B820F0918C
S11305F0B92064E080E092E01995FF91EF91BF91FA
S1130600AF919F918F917F916F915F914F913F91A6
S11306102F910F900BBE0F9009BE0F9008BE0F9044
S11306200FBE0F901F9018951F920F920FB60F9246
S1130630112408B60F9218BE09B60F9219BE0BB654
S11306400F921BBE2F933F934F935F936F937F93B0
S11306508F939F93AF93BF93EF93FF9340913C028B
S113066050913D02E091B820F091B92068E080E01B
S113067092E01995FF91EF91BF91AF919F918F9166
S11306807F916F915F914F913F912F910F900BBE8E
S11306900F9009BE0F9008BE0F900FBE0F901F90D1
S11306A018951F920F920FB60F92112408B60F924D
S11306B018BE09B60F9219BE0BB60F921BBE2F932C
S11306C03F934F935F936F937F938F939F93AF93D6
S11306D0BF93EF93FF934091640250916502E091C0
S11306E0B620F091B72061E080E492E01995FF9183
S11306F0EF91BF91AF919F918F917F916F915F9196
S11307004F913F912F910F900BBE0F9009BE0F9008
S113071008BE0F900FBE0F901F9018951F920F9256
S11307200FB60F92112408B60F9218BE09B60F9295
S113073019BE0BB60F921BBE2F933F934F935F933B
S11307406F937F938F939F93AF93BF93EF93FF9395
S113075040916C0250916D02E091B620F091B72067
S113076062E080E492E01995FF91EF91BF91AF911F
S11307709F918F917F916F915F914F913F912F91B5
S11307800F900BBE0F9009BE0F9008BE0F900FBEC6
S11307900F901F9018951F920F920FB60F9211246D
S11307A008B60F9218BE09B60F9219BE0BB60F9277
S11307B01BBE2F933F934F935F936F937F938F93BE
S11307C09F93AF93BF93EF93FF9340917402509123
S11307D07502E091B620F091B72064E080E492E0E5
S11307E01995FF91EF91BF91AF919F918F917F9157
S11307F06F915F914F913F912F910F900BBE0F908E
S113080009BE0F9008BE0F900FBE0F901F90189551
S11308101F920F920FB60F92112408B60F9218BEB2
S113082009B60F9219BE0BB60F921BBE2F933F93BE
S11308304F935F936F937F938F939F93AF93BF93E4
S1130840EF93FF9340917C0250917D02E091B6209A
S1130850F091B72068E080E492E01995FF91EF9160
S1130860BF91AF919F918F917F916F915F914F91C4
S11308703F912F910F900BBE0F9009BE0F9008BEB1
S11308800F900FBE0F901F9018951BBEFC0128ED12
S113089024BF608308954091CA01E62FF72F809307
S11308A0CA0184914093CA0108951F920F920FB612
S11308B00F92112408B60F9218BE09B60F9219BEF2
S11308C00BB60F921BBE2F933F934F935F936F937F
S11308D07F938F939F93AF93BF93EF93FF93E09195
S11308E0AE20F091AF20309709F01995FF91EF9168
S11308F0BF91AF919F918F917F916F915F914F9134
S11309003F912F910F900BBE0F9009BE0F9008BE20
S11309100F900FBE0F901F9018951F920F920FB655
S11309200F92112408B60F9218BE09B60F9219BE81
S11309300BB60F921BBE2F933F934F935F936F930E
S11309407F938F939F93AF93BF93EF93FF93E09124
S1130950AC20F091AD20309709F01995FF91EF91FB
S1130960BF91AF919F918F917F916F915F914F91C3
S11309703F912F910F900BBE0F9009BE0F9008BEB0
S11309800F900FBE0F901F9018951F920F920FB6E5
S11309900F92112408B60F9218BE09B60F9219BE11
S11309A00BB60F921BBE2F933F934F935F936F939E
S11309B07F938F939F93AF93BF93EF93FF93E091B4
S11309C0AA20F091AB20309709F01995FF91EF918F
S11309D0BF91AF919F918F917F916F915F914F9153
S11309E03F912F910F900BBE0F9009BE0F9008BE40
S11309F00F900FBE0F901F9018951F920F920FB675
S1130A000F92112408B60F9218BE09B60F9219BEA0
S1130A100BB60F921BBE2F933F934F935F936F932D
S1130A207F938F939F93AF93BF93EF93FF93E09143
S1130A30A820F091A920309709F01995FF91EF9122
S1130A40BF91AF919F918F917F916F915F914F91E2
S1130A503F912F910F900BBE0F9009BE0F9008BECF
S1130A600F900FBE0F901F9018951F920F920FB604
S1130A700F92112408B60F9218BE09B60F9219BE30
S1130A800BB60F921BBE2F933F934F935F936F93BD
S1130A907F938F939F93AF93BF93EF93FF93E091D3
S1130AA0A620F091A720309709F01995FF91EF91B6
S1130AB0BF91AF919F918F917F916F915F914F9172
S1130AC03F912F910F900BBE0F9009BE0F9008BE5F
S1130AD00F900FBE0F901F9018951F920F920FB694
S1130AE00F92112408B60F9218BE09B60F9219BEC0
S1130AF00BB60F921BBE2F933F934F935F936F934D
S1130B007F938F939F93AF93BF93EF93FF93E09162
S1130B10A420F091A520309709F01995FF91EF9149
S1130B20BF91AF919F918F917F916F915F914F9101
S1130B303F912F910F900BBE0F9009BE0F9008BEEE
S1130B400F900FBE0F901F9018951F920F920FB623
S1130B500F92112408B60F9218BE09B60F9219BE4F
S1130B600BB60F921BBE2F933F934F935F936F93DC
S1130B707F938F939F93AF93BF93EF93FF93E091F2
S1130B80A220F091A320309709F01995FF91EF91DD
S1130B90BF91AF919F918F917F916F915F914F9191
S1130BA03F912F910F900BBE0F9009BE0F9008BE7E
S1130BB00F900FBE0F901F9018951F920F920FB6B3
S1130BC00F92112408B60F9218BE09B60F9219BEDF
S1130BD00BB60F921BBE2F933F934F935F936F936C
S1130BE07F938F939F93AF93BF93EF93FF93E09182
S1130BF0A020F091A120309709F01995FF91EF9171
S1130C00BF91AF919F918F917F916F915F914F9120
S1130C103F912F910F900BBE0F9009BE0F9008BE0D
S1130C200F900FBE0F901F9018951F920F920FB642
S1130C300F92112408B60F9218BE09B60F9219BE6E
S1130C400BB60F921BBE2F933F934F935F936F93FB
S1130C507F938F939F93AF93BF93EF93FF93E09111
S1130C609E20F0919F20309709F01995FF91EF9104
S1130C70BF91AF919F918F917F916F915F914F91B0
S1130C803F912F910F900BBE0F9009BE0F9008BE9D
S1130C900F900FBE0F901F9018951F920F920FB6D2
S1130CA00F92112408B60F9218BE09B60F9219BEFE
S1130CB00BB60F921BBE2F933F934F935F936F938B
S1130CC07F938F939F93AF93BF93EF93FF93E091A1
S1130CD09C20F0919D20309709F01995FF91EF9198
S1130CE0BF91AF919F918F917F916F915F914F9140
S1130CF03F912F910F900BBE0F9009BE0F9008BE2D
S1130D000F900FBE0F901F9018951F920F920FB661
S1130D100F92112408B60F9218BE09B60F9219BE8D
S1130D200BB60F921BBE2F933F934F935F936F931A
S1130D307F938F939F93AF93BF93EF93FF93E09130
S1130D409A20F0919B20309709F01995FF91EF912B
S1130D50BF91AF919F918F917F916F915F914F91CF
S1130D603F912F910F900BBE0F9009BE0F9008BEBC
S1130D700F900FBE0F901F9018951F920F920FB6F1
S1130D800F92112408B60F9218BE09B60F9219BE1D
S1130D900BB60F921BBE2F933F934F935F936F93AA
S1130DA07F938F939F93AF93BF93EF93FF93E091C0
S1130DB09820F0919920309709F01995FF91EF91BF
S1130DC0BF91AF919F918F917F916F915F914F915F
S1130DD03F912F910F900BBE0F9009BE0F9008BE4C
S1130DE00F900FBE0F901F9018951F920F920FB681
S1130DF00F92112408B60F9218BE09B60F9219BEAD
S1130E000BB60F921BBE2F933F934F935F936F9339
S1130E107F938F939F93AF93BF93EF93FF93E0914F
S1130E209620F0919720309709F01995FF91EF9152
S1130E30BF91AF919F918F917F916F915F914F91EE
S1130E403F912F910F900BBE0F9009BE0F9008BEDB
S1130E500F900FBE0F901F9018951F920F920FB610
S1130E600F92112408B60F9218BE09B60F9219BE3C
S1130E700BB60F921BBE2F933F934F935F936F93C9
S1130E807F938F939F93AF93BF93EF93FF93E091DF
S1130E909420F0919520309709F01995FF91EF91E6
S1130EA0BF91AF919F918F917F916F915F914F917E
S1130EB03F912F910F900BBE0F9009BE0F9008BE6B
S1130EC00F900FBE0F901F9018951F920F920FB6A0
S1130ED00F92112408B60F9218BE09B60F9219BECC
S1130EE00BB60F921BBE2F933F934F935F936F9359
S1130EF07F938F939F93AF93BF93EF93FF93E0916F
S1130F009220F0919320309709F01995FF91EF9179
S1130F10BF91AF919F918F917F916F915F914F910D
S1130F203F912F910F900BBE0F9009BE0F9008BEFA
S1130F300F900FBE0F901F9018951F920F920FB62F
S1130F400F92112408B60F9218BE09B60F9219BE5B
S1130F500BB60F921BBE2F933F934F935F936F93E8
S1130F607F938F939F93AF93BF93EF93FF93E091FE
S1130F709020F0919120309709F01995FF91EF910D
S1130F80BF91AF919F918F917F916F915F914F919D
S1130F903F912F910F900BBE0F9009BE0F9008BE8A
S1130FA00F900FBE0F901F9018951F920F920FB6BF
S1130FB00F92112408B60F9218BE09B60F9219BEEB
S1130FC00BB60F921BBE2F933F934F935F936F9378
S1130FD07F938F939F93AF93BF93EF93FF93E0918E
S1130FE08E20F0918F20309709F01995FF91EF91A1
S1130FF0BF91AF919F918F917F916F915F914F912D
S11310003F912F910F900BBE0F9009BE0F9008BE19
S11310100F900FBE0F901F9018951F920F920FB64E
S11310200F92112408B60F9218BE09B60F9219BE7A
S11310300BB60F921BBE2F933F934F935F936F9307
S11310407F938F939F93AF93BF93EF93FF93E0911D
S11310508C20F0918D20309709F01995FF91EF9134
S1131060BF91AF919F918F917F916F915F914F91BC
S11310703F912F910F900BBE0F9009BE0F9008BEA9
S11310800F900FBE0F901F9018951F920F920FB6DE
S11310900F92112408B60F9218BE09B60F9219BE0A
S11310A00BB60F921BBE2F933F934F935F936F9397
S11310B07F938F939F93AF93BF93EF93FF93E091AD
S11310C08A20F0918B20309709F01995FF91EF91C8
S11310D0BF91AF919F918F917F916F915F914F914C
S11310E03F912F910F900BBE0F9009BE0F9008BE39
S11310F00F900FBE0F901F9018951F920F920FB66E
S11311000F92112408B60F9218BE09B60F9219BE99
S11311100BB60F921BBE2F933F934F935F936F9326
S11311207F938F939F93AF93BF93EF93FF93E0913C
S11311308820F0918920309709F01995FF91EF915B
S1131140BF91AF919F918F917F916F915F914F91DB
S11311503F912F910F900BBE0F9009BE0F9008BEC8
S11311600F900FBE0F901F9018951F920F920FB6FD
S11311700F92112408B60F9218BE09B60F9219BE29
S11311800BB60F921BBE2F933F934F935F936F93B6
S11311907F938F939F93AF93BF93EF93FF93E091CC
S11311A08620F0918720309709F01995FF91EF91EF
S11311B0BF91AF919F918F917F916F915F914F916B
S11311C03F912F910F900BBE0F9009BE0F9008BE58
S11311D00F900FBE0F901F9018951F920F920FB68D
S11311E00F92112408B60F9218BE09B60F9219BEB9
S11311F00BB60F921BBE2F933F934F935F936F9346
S11312007F938F939F93AF93BF93EF93FF93E0915B
S11312108420F0918520309709F01995FF91EF9182
S1131220BF91AF919F918F917F916F915F914F91FA
S11312303F912F910F900BBE0F9009BE0F9008BEE7
S11312400F900FBE0F901F9018951F920F920FB61C
S11312500F92112408B60F9218BE09B60F9219BE48
S11312600BB60F921BBE2F933F934F935F936F93D5
S11312707F938F939F93AF93BF93EF93FF93E091EB
S11312808220F0918320309709F01995FF91EF9116
S1131290BF91AF919F918F917F916F915F914F918A
S11312A03F912F910F900BBE0F9009BE0F9008BE77
S11312B00F900FBE0F901F9018951F920F920FB6AC
S11312C00F92112408B60F9218BE09B60F9219BED8
S11312D00BB60F921BBE2F933F934F935F936F9365
S11312E07F938F939F93AF93BF93EF93FF93E0917B
S11312F08020F0918120309709F01995FF91EF91AA
S1131300BF91AF919F918F917F916F915F914F9119
S11313103F912F910F900BBE0F9009BE0F9008BE06
S11313200F900FBE0F901F9018951F920F920FB63B
S11313300F92112408B60F9218BE09B60F9219BE67
S11313400BB60F921BBE2F933F934F935F936F93F4
S11313507F938F939F93AF93BF93EF93FF93E0910A
S11313607E20F0917F20309709F01995FF91EF913D
S1131370BF91AF919F918F917F916F915F914F91A9
S11313803F912F910F900BBE0F9009BE0F9008BE96
S11313900F900FBE0F901F9018951F920F920FB6CB
S11313A00F92112408B60F9218BE09B60F9219BEF7
S11313B00BB60F921BBE2F933F934F935F936F9384
S11313C07F938F939F93AF93BF93EF93FF93E0919A
S11313D07C20F0917D20309709F01995FF91EF91D1
S11313E0BF91AF919F918F917F916F915F914F9139
S11313F03F912F910F900BBE0F9009BE0F9008BE26
S11314000F900FBE0F901F9018951F920F920FB65A
S11314100F92112408B60F9218BE09B60F9219BE86
S11314200BB60F921BBE2F933F934F935F936F9313
S11314307F938F939F93AF93BF93EF93FF93E09129
S11314407A20F0917B20309709F01995FF91EF9164
S1131450BF91AF919F918F917F916F915F914F91C8
S11314603F912F910F900BBE0F9009BE0F9008BEB5
S11314700F900FBE0F901F9018951F920F920FB6EA
S11314800F92112408B60F9218BE09B60F9219BE16
S11314900BB60F921BBE2F933F934F935F936F93A3
S11314A07F938F939F93AF93BF93EF93FF93E091B9
S11314B07820F0917920309709F01995FF91EF91F8
S11314C0BF91AF919F918F917F916F915F914F9158
S11314D03F912F910F900BBE0F9009BE0F9008BE45
S11314E00F900FBE0F901F9018951F920F920FB67A
S11314F00F92112408B60F9218BE09B60F9219BEA6
S11315000BB60F921BBE2F933F934F935F936F9332
S11315107F938F939F93AF93BF93EF93FF93E09148
S11315207620F0917720309709F01995FF91EF918B
S1131530BF91AF919F918F917F916F915F914F91E7
S11315403F912F910F900BBE0F9009BE0F9008BED4
S11315500F900FBE0F901F9018951F920F920FB609
S11315600F92112408B60F9218BE09B60F9219BE35
S11315700BB60F921BBE2F933F934F935F936F93C2
S11315807F938F939F93AF93BF93EF93FF93E091D8
S11315907420F0917520309709F01995FF91EF911F
S11315A0BF91AF919F918F917F916F915F914F9177
S11315B03F912F910F900BBE0F9009BE0F9008BE64
S11315C00F900FBE0F901F9018951F920F920FB699
S11315D00F92112408B60F9218BE09B60F9219BEC5
S11315E00BB60F921BBE2F933F934F935F936F9352
S11315F07F938F939F93AF93BF93EF93FF93E09168
S11316007220F0917320309709F01995FF91EF91B2
S1131610BF91AF919F918F917F916F915F914F9106
S11316203F912F910F900BBE0F9009BE0F9008BEF3
S11316300F900FBE0F901F9018951F920F920FB628
S11316400F92112408B60F9218BE09B60F9219BE54
S11316500BB60F921BBE2F933F934F935F936F93E1
S11316607F938F939F93AF93BF93EF93FF93E091F7
S11316707020F0917120309709F01995FF91EF9146
S1131680BF91AF919F918F917F916F915F914F9196
S11316903F912F910F900BBE0F9009BE0F9008BE83
S11316A00F900FBE0F901F9018951F920F920FB6B8
S11316B00F92112408B60F9218BE09B60F9219BEE4
S11316C00BB60F921BBE2F933F934F935F936F9371
S11316D07F938F939F93AF93BF93EF93FF93E09187
S11316E06E20F0916F20309709F01995FF91EF91DA
S11316F0BF91AF919F918F917F916F915F914F9126
S11317003F912F910F900BBE0F9009BE0F9008BE12
S11317100F900FBE0F901F9018951F920F920FB647
S11317200F92112408B60F9218BE09B60F9219BE73
S11317300BB60F921BBE2F933F934F935F936F9300
S11317407F938F939F93AF93BF93EF93FF93E09116
S11317506C20F0916D20309709F01995FF91EF916D
S1131760BF91AF919F918F917F916F915F914F91B5
S11317703F912F910F900BBE0F9009BE0F9008BEA2
S11317800F900FBE0F901F9018951F920F920FB6D7
S11317900F92112408B60F9218BE09B60F9219BE03
S11317A00BB60F921BBE2F933F934F935F936F9390
S11317B07F938F939F93AF93BF93EF93FF93E091A6
S11317C06A20F0916B20309709F01995FF91EF9101
S11317D0BF91AF919F918F917F916F915F914F9145
S11317E03F912F910F900BBE0F9009BE0F9008BE32
S11317F00F900FBE0F901F9018951F920F920FB667
S11318000F92112408B60F9218BE09B60F9219BE92
S11318100BB60F921BBE2F933F934F935F936F931F
S11318207F938F939F93AF93BF93EF93FF93E09135
S11318306820F0916920309709F01995FF91EF9194
S1131840BF91AF919F918F917F916F915F914F91D4
S11318503F912F910F900BBE0F9009BE0F9008BEC1
S11318600F900FBE0F901F9018951F920F920FB6F6
S11318700F92112408B60F9218BE09B60F9219BE22
S11318800BB60F921BBE2F933F934F935F936F93AF
S11318907F938F939F93AF93BF93EF93FF93E091C5
S11318A06620F0916720309709F01995FF91EF9128
S11318B0BF91AF919F918F917F916F915F914F9164
S11318C03F912F910F900BBE0F9009BE0F9008BE51
S11318D00F900FBE0F901F9018951F920F920FB686
S11318E00F92112408B60F9218BE09B60F9219BEB2
S11318F00BB60F921BBE2F933F934F935F936F933F
S11319007F938F939F93AF93BF93EF93FF93E09154
S11319106420F0916520309709F01995FF91EF91BB
S1131920BF91AF919F918F917F916F915F914F91F3
S11319303F912F910F900BBE0F9009BE0F9008BEE0
S11319400F900FBE0F901F9018951F920F920FB615
S11319500F92112408B60F9218BE09B60F9219BE41
S11319600BB60F921BBE2F933F934F935F936F93CE
S11319707F938F939F93AF93BF93EF93FF93E091E4
S11319806220F0916320309709F01995FF91EF914F
S1131990BF91AF919F918F917F916F915F914F9183
S11319A03F912F910F900BBE0F9009BE0F9008BE70
S11319B00F900FBE0F901F9018951F920F920FB6A5
S11319C00F92112408B60F9218BE09B60F9219BED1
S11319D00BB60F921BBE2F933F934F935F936F935E
S11319E07F938F939F93AF93BF93EF93FF93E09174
S11319F06020F0916120309709F01995FF91EF91E3
S1131A00BF91AF919F918F917F916F915F914F9112
S1131A103F912F910F900BBE0F9009BE0F9008BEFF
S1131A200F900FBE0F901F901895FC01918195FFA8
S1131A30FDCF608380E090E00895FC0191819923BB
S1131A40ECF7808108954F925F926F927F928F920C
S1131A509F92AF92BF92EF92FF920F931F93CF93F7
S1131A607C014A015B0128013901FC01848182FF68
S1131A7016C0D901C801689412F8B695A795979530
S1131A8087951694D1F7B901A801032E36E176950E
S1131A906795579547953A95D1F7302D15C0D901DB
S1131AA0C801689413F8B695A795979587951694E9
S1131AB0D1F7B901A801032E37E1769567955795BB
S1131AC047953A95D1F7302D88159905AA05BB0598
S1131AD008F4A6C084169506A606B70608F4A2C0A4
S1131AE0F701848182FD04C0880C991CAA1CBB1CCC
S1131AF0C301B201A50194010E94A11C2F3F31052D
S1131B004105510508F490C08FEF90E0A0E0B0E0EB
S1131B10C9EF05C0281739074A075B0758F0880F33
S1131B20991FAA1FBB1FCD3F0CF48160CF5FC73044
S1131B3089F74FC0CC230CF04CC0D501C401880FE9
S1131B40991FAA1FBB1F880F991FAA1FBB1F880FAD
S1131B50991FAA1FBB1F481A590A6A0A7B0ACE3F5B
S1131B60F4F48DEF9FEF8C1B9109C7FD939504C08E
S1131B70440C551C661C771C8A95D2F7D501C40108
S1131B80B695A79597958795BC01CD01640D751DF4
S1131B90861D971DA50194010E94A11C37C083E0F6
S1131BA08C0FA501940104C0220F331F441F551F3D
S1131BB08A95D2F7DA01C901B695A79597958795C5
S1131BC0BC01CD01640D751D861D971D0E94A11CCD
S1131BD01DC083E08C0FA501940104C0220F331FA4
S1131BE0441F551F8A95D2F7DA01C901B695A79506
S1131BF097958795BC01CD01640D751D861D971DB4
S1131C000E94A11C2150310941095109832F8F7071
S1131C10C295C07FC82BF701C783268381E018C013
S1131C2080E016C080E014C0D501C401880F991F5C
S1131C30AA1FBB1F880F991FAA1FBB1F880F991FBC
S1131C40AA1FBB1F481A590A6A0A7B0AC9EF89CF1F
S1131C50CF911F910F91FF90EF90BF90AF909F9005
S1131C608F907F906F905F904F9008950F931F9384
S1131C70CF93DF93EC018B01009709F45DC1803CA5
S1131C80910529F460E180E00E941C0255C1C03432
S1131C9084E0D80729F468E080E00E941C024CC16B
S1131CA0C115E4E0DE0729F464E080E00E941C0230
S1131CB043C1C038F1E0DF0729F462E080E00E940C
S1131CC01C023AC1C11581E0D80729F461E080E023
S1131CD00E941C0231C1C038E3E0DE0729F461E050
S1131CE081E00E941C0228C1C039F3E0DF0729F417
S1131CF061E082E00E941C021FC1C11582E0D80786
S1131D0029F462E081E00E941C0216C1C034E2E0C2
S1131D10DE0729F462E082E00E941C020DC1C115B5
S1131D20F3E0DF0729F464E081E00E941C0204C1AF
S1131D30C03283E0D80729F464E082E00E941C02E8
S1131D40FBC0C115E8E0DE0729F461E083E00E94EE
S1131D501C02F2C0C115F9E0DF0729F461E084E058
S1131D600E941C02E9C0C1158AE0D80729F461E089
S1131D7085E00E941C02E0C0C115EBE0DE0729F4F7
S1131D8061E086E00E941C02D7C0C034F8E0DF079F
S1131D9029F462E083E00E941C02CEC0C03489E0D2
S1131DA0D80729F462E084E00E941C02C5C0C03454
S1131DB0EAE0DE0729F462E085E00E941C02BCC070
S1131DC0C034FBE0DF0729F462E086E00E941C02D5
S1131DD0B3C0C03988E0D80729F464E083E00E94E6
S1131DE01C02AAC0C039E9E0DE0729F464E084E0FB
S1131DF00E941C02A1C0C039FAE0DF0729F464E0A4
S1131E0085E00E941C0298C0C0398BE0D80729F4F1
S1131E1064E086E00E941C028FC0C03CE8E0DE075C
S1131E2029F468E083E00E941C0286C0C03CF9E00B
S1131E30DF0729F468E084E00E941C027DC0C03CF6
S1131E408AE0D80729F468E085E00E941C0274C087
S1131E50C03CEBE0DE0729F468E086E00E941C0247
S1131E606BC0C03AF8E0DF0729F460E183E00E9428
S1131E701C0262C0C03A89E0D80729F460E184E01A
S1131E800E941C0259C0C03AEAE0DE0729F460E16E
S1131E9085E00E941C0250C0C03AFBE0DF0729F431
S1131EA060E186E00E941C0247C0C03B88E0D8077E
S1131EB029F460E283E00E941C023EC0C03BE9E0DA
S1131EC0DE0729F460E284E00E941C0235C0C03BB6
S1131ED0FAE0DF0729F460E285E00E941C022CC0CE
S1131EE0C03B8BE0D80729F460E286E00E941C0224
S1131EF023C0C038E4E0DE0729F460E483E00E94F4
S1131F001C021AC0C039F4E0DF0729F460E484E05D
S1131F100E941C0211C0C03A84E0D80729F460E48E
S1131F2085E00E941C0208C0C03BE4E0DE0721F407
S1131F3060E486E00E941C028D818F738D83F8011A
S1131F4095818481892B9681911198E0892B8D83C9
S1131F50F801408151816281738100E018E428EE28
S1131F6031E0CE0170DD9C8198609C839C819061FE
S1131F709C83DF91CF911F910F9108954F925F92AF
S1131F806F927F928F929F92AF92BF92CF92DF9285
S1131F90EF92FF9229013A010F2EF4E6CF2ED12CB5
S1131FA0E12CF12CF02DA70196010E94A11C4901FE
S1131FB05A01C301B201A70196010E94A11CC501E7
S1131FC0B4010E94A11CCA01B901E2D624EB39EC88
S1131FD042E45EE30E94FE174B015C016091BA206B
S1131FE07091BB208091BC209091BD20A7019601E7
S1131FF00E94C31CCA01B901CDD623E333E948E8E2
S113200053E4C9D56B017C0120E030E040E85FE394
S1132010C501B401BFD59B01AC01C701B6018BD783
S113202024EF3DEF44ED5BE31AD6FF90EF90DF9091
S1132030CF90BF90AF909F908F907F906F905F9064
S11320404F90089504C06150710981099109611587
S1132050710581059105B9F70895E0E4F6E080EB98
S1132060818390E49283858383E58093C0080895F7
S11320708093C308E0ECF8E082818823ECF70895AC
S11320808FEFF6DF8091C3080895FF920F931F939B
S1132090CF93DF9300E416E06894FF24F4F8F8018A
S11320A0F682E6DFEDDFC82FD0E0DC2FCC27E8DFB7
S11320B0C80FD11DF801F58266ED74E180E090E06F
S11320C0C1DFCE01DF91CF911F910F91FF90089551
S11320D01F93CF93DF93C0E4D6E010E11E838EE11B
S11320E0C7DF1D8366E570ED80E090E0ABDF82EA38
S11320F0CCDF8093C6209093C72084EAC6DF809308
S1132100C2209093C32086EAC0DF8093C8209093B6
S1132110C92088EABADF8093C0209093C1208AEA5C
S1132120B4DF8093C4209093C5208CEAAEDF809303
S1132130BE209093BF20DF91CF911F9108958F927D
S11321409F92AF92BF92CF92DF92EF92FF921F9332
S1132150CF93DF93C0E4D6E010E11E8389DF1D83B3
S113216061E87BEB80E090E06DDF1E8380E080DF40
S113217087DFC82ED12CE12CF12C56019924882418
S11321807FDFC82ED12CE12CF12CFE2CED2CDC2C85
S1132190CC24C80CD91CEA1CFB1C72DF1D83A701CC
S11321A09601280F311D411D511DCA01B901DF914E
S11321B0CF911F91FF90EF90DF90CF90BF90AF90A1
S11321C09F908F9008952F923F924F925F926F92BB
S11321D07F928F929F92AF92BF92CF92DF92EF92B3
S11321E0FF920F931F93CF93DF93CDB7DEB7619721
S11321F0CDBFDEBF88E4A3DF6D837E838F839887A2
S113220088E59DDF2091C4203091C520890120E01C
S113221030E0322F212F102F00276B017C01C01AD0
S1132220D10AE20AF30AC982DA82EB82FC822090A4
S1132230BE203090BF20D701C601BB0F880B982F5A
S1132240DC01A980BA80CB80DC80E82EF82E082F30
S1132250182F222D332D40E050E060E070E080E044
S113226090E00E94E91C898BB22FF32FE42F952E66
S1132270862E772EA82EB92EA0E00E94831D84F40A
S11322802150310940485F4F6F4F7F4F8F4F9F4F11
S1132290B22FF32FE42F952E862E772EA82EB92E4B
S11322A02B2F3F2F4E2F592D682D772D8A2D9B2DA7
S11322B007E10E94531D822E932E00E3801A08EF3B
S11322C0900A092C000CAA08BB088092BA209092AC
S11322D0BB20A092BC20B092BD20A091C820B09198
S11322E0C92029813A814B815C810E94DF1C4B010A
S11322F05C0199232CF41FE7810E911CA11CB11CD5
S113230024013501689416F875946794579447949A
S11323101694D1F7BB0C8808982C54018091C620E0
S11323209091C7206C01E12CF12C00E010E09801A1
S11323308987DA86EB86FC860D871E872F87388B84
S1132340282F3D2D40E050E060E070E080E090E018
S113235000E10E943A1DF22FE32FC42ED52EE62E63
S1132360F72E082F192F242D352D462D572D682D86
S1132370782D882D982DAF2EBE2E0E94711DED80D4
S1132380FE800F81188517012801AE2CB32CC42CB4
S1132390D52CE12CF12C00E010E00E94E91C122F56
S11323A039874D83B52FF62FE72F782E892EA0E09D
S11323B00E94831D84F421503109404E5F4F6F4FBA
S11323C07F4F8F4F9F4F122F39874D83B52FF62F95
S11323D0E72F782E892E212F39854D815B2F6F2F82
S11323E07E2F872D982D05E10E94531D522E632EBA
S11323F0742E598B6987F72FE82F492EA091C0209E
S1132400B091C12029813A814B815C810E94DF1CFB
S11324104B015C0199232CF40FE3800E911CA11C49
S1132420B11C75016401689415F8F594E794D79488
S1132430C7941694D1F7BB0C8808982C54012091AA
S1132440C2203091C320A901352F40E050E060E064
S113245070E080E090E001E10E943A1D222E332ECC
S113246049835D83B62FA72F082F192F2C2D3D2DBF
S11324704E2D5F2D682D782D882D982DA22CB32CF0
S1132480C980DD80EB2EFA2E0E94711DA22EB32E80
S1132490C42ED52EE62EF72E082F192F252D362DD6
S11324A0472D598969857F2F8E2F942D0E947A1D7F
S11324B0122F3D834983B52FF62FE72F782E892ECF
S11324C0A0E00E94831D84F4215030484F4F5F4F99
S11324D06F4F7F4F8F4F9F4F122F3D834983B52FEF
S11324E0F62FE72F782E892E212F3D8149815B2FEE
S11324F06F2F7E2F872D982D0FE00E94531D622F82
S1132500732F842F952F6196CDBFDEBFDF91CF91BE
S11325101F910F91FF90EF90DF90CF90BF90AF90FD
S11325209F908F907F906F905F904F903F902F90EF
S11325300895FF920F931F93CF93DF93E0E0F6E0AB
S11325406894FF24F6F8F2828FEB8083C0E0D2E037
S1132550F882198280E18A8385E08C8361E270E0ED
S113256082E00E944B04082F10E0102F002760E245
S113257070E082E00E944B04082B0C871D87F8A2B0
S113258019A2DF91CF911F910F91FF900895E0E080
S1132590F2E080A1806880A313A264A175A180E009
S11325A090E0F6D322EA3CE640E05AE3C4D425E2C4
S11325B030E64FEA5DE3EEC28F929F92AF92BF92F4
S11325C0CF92DF92EF92FF920F931F93CF93DF93FB
S11325D0DEDF6B017C0120E030E44CE156E4ABD457
S11325E04B015C0123E333E343E550E4C701B60147
S11325F0D1D29B01AC01C501B40131D3062F172FF1
S1132600D82FC92F9F938F937F936F938DE090E280
S11326109F938F930E94121F2BE530EF43E85CE3F6
S1132620602F712F8D2F9C2F1AD345D49B01AC01A1
S113263060E070E988E795E412D37ED3A9D30F90C4
S11326400F900F900F900F900F90DF91CF911F91EB
S11326500F91FF90EF90DF90CF90BF90AF909F903D
S11326608F900895CF93DF93EB01E7D98883DF91AF
S1132670CF910895DAC90895CF93DF93CDB7DEB72C
S11326802797CDBFDEBFE0E4F6E088E08183858351
S113269080EA98E08093B4209093B5208AE393E194
S11326A08093B2209093B32082E393E18093B0208F
S11326B09093B120E6E0F0E284818D8385818E835E
S11326C086818F8380819181A281B38189839A835A
S11326D0AB83BC8360E183E00E941C02BE016F5F98
S11326E07F4F80EA98E0C2DA62E372E08BE492E022
S11326F00E948C1E2796CDBFDEBFDF91CF91089537
S113270004C0615071098109910961157105810540
S11327109105B9F70895009709F45CC1803C9105CF
S113272029F460E180E00C941C020895803424E0D4
S1132730920729F468E080E00C941C020895811546
S113274024E0920729F464E080E00C941C020895CC
S1132750803821E0920729F462E080E00C941C02A6
S11327600895811521E0920729F461E080E00C943A
S11327701C020895803823E0920729F461E081E087
S11327800C941C020895803923E0920729F461E037
S113279082E00C941C020895811522E0920729F42A
S11327A062E081E00C941C020895803422E09207D8
S11327B029F462E082E00C941C020895811523E060
S11327C0920729F464E081E00C941C02089580329D
S11327D023E0920729F464E082E00C941C0208953B
S11327E0811528E0920729F461E083E00C941C022F
S11327F00895811529E0920729F461E084E00C949E
S11328001C02089581152AE0920729F461E085E00D
S11328100C941C02089581152BE0920729F461E0C1
S113282086E00C941C020895803428E0920729F471
S113283062E083E00C941C020895803429E092073E
S113284029F462E084E00C941C02089580342AE0A8
S1132850920729F462E085E00C941C020895803408
S11328602BE0920729F462E086E00C941C020895A0
S1132870803928E0920729F464E083E00C941C0278
S11328800895803929E0920729F464E084E00C94E7
S11328901C02089580392AE0920729F464E085E057
S11328A00C941C02089580392BE0920729F464E00B
S11328B086E00C941C020895803C28E0920729F4D9
S11328C068E083E00C941C020895803C29E09207A0
S11328D029F468E084E00C941C020895803C2AE00A
S11328E0920729F468E085E00C941C020895803C6A
S11328F02BE0920729F468E086E00C941C0208950A
S1132900803A28E0920729F460E183E00C941C02E9
S11329100895803A29E0920729F460E184E00C9458
S11329201C020895803A2AE0920729F460E185E0C8
S11329300C941C020895803A2BE0920729F460E17C
S113294086E00C941C020895803B28E0920729F449
S113295060E283E00C941C020895803B29E0920716
S113296029F460E284E00C941C020895803B2AE080
S1132970920729F460E285E00C941C020895803BE0
S11329802BE0920729F460E286E00C941C0208957F
S1132990803824E0920729F460E483E00C941C025C
S11329A00895803924E0920729F460E484E00C94CB
S11329B01C020895803A24E0920729F460E485E03B
S11329C00C941C020895803B944021F460E486E05A
S11329D00C941C020895CF93DF93CDB7DEB72897EC
S11329E0CDBFDEBF0E94E70180E09BE094DE80E083
S11329F099E091DE64E086E00E941C0264E084E0D9
S1132A000E941C0268E083E00E941C0280EA98E0B5
S1132A1082DE32DE80EC98E07EDE1FDB59DB80E074
S1132A2092E079DE86DDCFDB6D837E838F839887AA
S1132A308FE190E20E94251F81E390E20E94251F0E
S1132A40212CC12CD12C76010F2EF5E53F2EF02D33
S1132A5000E016E06894772473F80AC022242394D3
S1132A6007C06894222421F803C06894222421F822
S1132A70AADB4B015C01A0DDA50194016D817E817F
S1132A808F8198857BDA53D14B015C0183D126E693
S1132A9036E646E65FE34FD269837A838B839C8371
S1132AA0C701B60177D120ED3CEC4CEC5DE343D299
S1132AB09B01AC0169817A818B819C816CD037D177
S1132AC06B017C0161E878E381E090E019DE3092EB
S1132AD0810630928506211022C030928106309200
S1132AE08506F801718275827482D701C60188193E
S1132AF09909AA09BB090AF0BBCFD701C6018955B8
S1132B009240A109B109873C9105A105B10508F0DE
S1132B10AFCF81E0809381068093850603C0F1E006
S1132B202F1216C08FE390E20E94251F8CE2C81674
S1132B3081E0D806E104F1040CF090CF82E08093A8
S1132B4081068093850680E8F8018183858303C02C
S1132B50E2E02E128DCF8FE490E20E94251FD70170
S1132B60C60188199909AA09BB09181619061A0673
S1132B701B060CF476CFF4E68F169104A104B1047D
S1132B800CF073CFF801718275820F2EF3E02F2EB3
S1132B90F02D6ECF5058BB27AA270ED04DC13ED181
S1132BA030F043D120F031F49F3F11F41EF433C1CF
S1132BB00EF4E095E7FB29C1E92F4FD180F3BA1752
S1132BC0620773078407950718F071F49EF567C1CF
S1132BD00EF4E0950B2EBA2FA02D0B01B901900134
S1132BE00C01CA01A0011124FF27591B99F0593F78
S1132BF050F4503E68F11A16F040A22F232F342FC0
S1132C004427585FF3CF469537952795A795F0400D
S1132C105395C9F77EF41F16BA0B620B730B840B22
S1132C20BAF09150A1F0FF0FBB1F661F771F881FDA
S1132C30C2F70EC0BA0F621F731F841F48F4879532
S1132C4077956795B795F7959E3F08F0B3CF939521
S1132C50880F08F09927EE0F9795879508950CD063
S1132C60EBC0E3D040F0DAD030F021F45F3F19F04C
S1132C70CCC0511115C1CFC0F0D098F39923C9F33A
S1132C805523B1F3951B550BBB27AA27621773076E
S1132C90840738F09F5F5F4F220F331F441FAA1F22
S1132CA0A9F333D00E2E3AF0E0E830D091505040E2
S1132CB0E695001CCAF729D0FE2F27D0660F771F90
S1132CC0881FBB1F261737074807AB07B0E809F072
S1132CD0BB0B802DBF01FF2793585F4F2AF09E3F07
S1132CE0510568F092C0DCC05F3FECF3983EDCF322
S1132CF0869577956795B795F7959F5FC9F7880F80
S1132D00911D9695879597F90895E1E0660F771FD1
S1132D10881FBB1F621773078407BA0720F0621B62
S1132D20730B840BBA0BEE1F88F7E095089504D05B
S1132D306894B111B5C0089598D088F09F5790F069
S1132D40B92F9927B751A0F0D1F0660F771F881FCC
S1132D50991F1AF0BA95C9F712C0B13081F09FD00B
S1132D60B1E008959CC0672F782F8827B85F39F0A9
S1132D70B93FCCF3869577956795B395D9F73EF42B
S1132D8090958095709561957F4F8F4F9F4F0895D3
S1132D90E89409C097FB3EF49095809570956195F1
S1132DA07F4F8F4F9F4F9923A9F0F92F96E9BB27A7
S1132DB09395F695879577956795B795F111F8CF23
S1132DC0FAF4BB0F11F460FF1BC06F5F7F4F8F4F8E
S1132DD09F4F16C0882311F096E911C0772321F084
S1132DE09EE8872F762F05C0662371F096E8862F1C
S1132DF070E060E02AF09A95660F771F881FDAF773
S1132E00880F9695879597F9089597F99F6780E8B5
S1132E1070E060E008959FEF80EC089500240A9428
S1132E201616170618060906089500240A941216A1
S1132E301306140605060895092E0394000C11F4D4
S1132E40882352F0BB0F40F4BF2B11F460FF04C081
S1132E506F5F7F4F8F4F9F4F089557FD9058440FDA
S1132E60551F59F05F3F71F04795880F97FB991FE5
S1132E7061F09F3F79F087950895121613061406A2
S1132E80551FF2CF4695F1DF08C01616170618062F
S1132E90991FF1CF86957105610508940895E8940A
S1132EA0BB2766277727CB0197F908950EF023C136
S1132EB0B2CF6894AACFD9DFC8F39923D1F3C6F36C
S1132EC0DF93CF931F930F93FF92C92FDD2788239E
S1132ED02AF02197660F771F881FDAF720E030E089
S1132EE040E85FEB9FE3883920F0803E30F0219684
S1132EF08F7751DEECEFF1E003C04DDEE9E2F2E062
S1132F0008D18B01BE01EC01FB2E6F577109759539
S1132F10771F880B990B3EDF28E132E741E35FE33B
S1132F2016D0AF2D9801AE01FF900F911F91CF9154
S1132F30DF9142DE81CF0BD07FCF70DF28F075DFC9
S1132F4018F0952309F061CF66CF1124A9CF85DF4E
S1132F50A0F3959FD1F3950F50E0551F629FF001A8
S1132F60729FBB27F00DB11D639FAA27F00DB11D01
S1132F70AA1F649F6627B00DA11D661F829F22278A
S1132F80B00DA11D621F739FB00DA11D621F839F11
S1132F90A00D611D221F749F3327A00D611D231FE7
S1132FA0849F600D211D822F762F6A2F11249F5735
S1132FB050408AF0E1F088234AF0EE0FFF1FBB1F58
S1132FC0661F771F881F91505040A9F79E3F5105F7
S1132FD070F01BCF65CF5F3FECF3983EDCF3869532
S1132FE077956795B795F795E7959F5FC1F7FE2BA2
S1132FF0880F911D9695879597F90895FA01EE0F1C
S1133000FF1F30962105310599F16115710561F4B1
S11330108038BFE39B0749F168949038810561F0DB
S11330208038BFEF9B0741F0992342F5FF3FE1054C
S11330303105210511F1E8940894E795D901AA23F3
S113304029F4AB2FBE2FF85FD0F310C0FF5F70F4EC
S1133050A695E0F7F73950F019F0FF3A38F49F7766
S11330609F930CD00F9007FC905808953EF0D3CE58
S113307060E070E080E89FE308954FE79F775F93F7
S11330804F933F932F9317DF2F913F914F915F9170
S113309052DF05C019F40EF0B8CE01CFBCCEE5DE88
S11330A0C8F39638C0F707F80F92E8942BE33AEA8E
S11330B048EB5FE74EDF0F920F920F924DB75EB76A
S11330C00F9289D0E6E5F2E024D04F915F91EF9121
S11330D0FF91E595EE1FFF1F49F0FE57E068442776
S11330E0EE0F441FFA95E1F74195550B40D00F9030
S11330F007FE34C008959F3F31F0915020F4879526
S113310077956795B795880F911D9695879597F94B
S11331100895DF93CF931F930F93FF92EF92DF9263
S11331207B018C01689405C0DA2EEF0110DFFE01EB
S1133130E894A5912591359145915591AEF3EF0110
S11331403BDDFE019701A801DA9479F7DF90EF9057
S1133150FF900F911F91CF91DF9108959B01AC01D6
S113316060E070E080E89FE37ACD4FCEC4CF7DDE8F
S1133170E8F39923D9F3940F511DBBF391505040B8
S113318094F059F0882332F0660F771F881F91500E
S11331905040C1F79E3F510544F7880F911D969505
S11331A0879597F908955F3FACF0983E9CF0BB2754
S11331B0869577956795B79508F4B1609395C1F7AF
S11331C0BB0F58F711F460FFE8CF6F5F7F4F8F4F4D
S11331D09F4FE3CF65CEFA01DC01AA0FBB1F9B0111
S11331E0AC01BF5728F422273327442750781FC047
S11331F0B75188F4AB2F0024469537952795011CC9
S1133200A395D2F3002069F0220F331F441FB39516
S1133210DAF30DD0BFCC61307105A0E88A07B94656
S113322030F49B01AC016627772788279078309685
S113323021F0208331834283538308952F923F9258
S11332404F925F926F927F928F929F92AF92BF92B2
S1133250CF92DF92EF92FF920F931F93CF93DF935E
S1133260CDB7DEB76097CDBFDEBF7C011B016A011D
S1133270FC0116821782838181FF2AC39E012F5F7E
S11332803F4F3901F7019381F10193FD859193FF3C
S113329081911F01882309F417C3853239F493FD02
S11332A0859193FF81911F01853231F4B70190E03C
S11332B07DD556016501E6CF10E0512C912CFFE13C
S11332C0F915D8F08B3279F038F4803279F0833202
S11332D0A1F4F92DF0612EC08D3261F0803369F4D0
S11332E0292D21602DC0392D3260932E892D8460C3
S11332F0982E2AC0E92DE86015C097FC2DC020ED5A
S1133300280F2A3088F496FE06C03AE0139F200D59
S11333101124122F19C08AE0589E200D1124522E18
S1133320E92DE0629E2E10C08E3231F496FCCCC2A0
S1133330F92DF0649F2E08C08C3621F4292D2068C5
S1133340922E02C0883641F4F10193FD859193FFDA
S113335081911F018111B3CF9BEB980F933020F41F
S1133360992D9061805E07C09BE9980F933008F017
S113337059C1992D9F7E96FF16E09F73992E85362D
S113338019F49064992E08C0863621F4392F3068D8
S1133390932E02C01111115097FE07C01C3350F434
S11333A044244394410E27E00BC0183038F027E042
S11333B017E005C027E09CE3492E02C0212F412CD1
S11333C0560184E0A80EB11CF601608171818281EE
S11333D09381042DA301B2D36C01F981FC87F0FF22
S11333E002C0F3FF06C091FC06C092FE06C000E2D4
S11333F005C00DE203C00BE201C000E08C858C70B7
S113340019F0011143C280C297FE10C04C0CFC8518
S1133410F4FF04C08A81813309F44A94141474F5C6
S113342028E0241578F588E0482E2CC096FC2AC0A4
S1133430812F90E08C159D059CF03CEFC3163FEF67
S1133440D30674F0892D8068982E0AC0E2E0F0E07B
S1133450EC0FFD1FE10FF11D8081803319F4115031
S11334601111F4CF97FE0EC044244394410E812FD2
S113347090E0C816D9062CF41C1904C044244394C3
S113348001C010E097FE06C01C141D0434F4C601EC
S1133490019605C085E090E002C081E090E0011152
S11334A00196112331F0212F30E02F5F3F4F820F1F
S11334B0931F252D30E08217930714F4581A01C086
S11334C0512C892D897041F4552031F0B70180E2E7
S11334D090E06CD45A94F8CF002321F0B701802FE8
S11334E090E064D493FC08C0552031F0B70180E328
S11334F090E05CD45A94F8CF97FE4AC04601D7FEB8
S113350002C0812C912CC60188199909F301E80F96
S1133510F91FED87FE879601241931092F87388B0F
S1133520012F10E01195019511093FEF83169306C1
S113353021F4B7018EE290E039D4C814D9044CF0D8
S11335408F8598898815990524F4ED85FE858181F8
S113355001C080E3F1E08F1A91082D853E852F5F2D
S11335603F4F2D873E878016910624F0B70190E0E7
S11335701DD4DBCFC814D90441F49A81963320F4C6
S1133580953319F43C8534FF81E3B70190E048C0DA
S11335908A81813319F09C859F7E9C87B70190E0D6
S11335A005D4111105C094FC16C085E690E015C041
S11335B0B7018EE290E0FAD31E5F82E001E0080FCB
S11335C0F301E80FF11D8081B70190E0EFD3802F64
S11335D00113F4CFE8CF85E490E0B701E7D3D7FC3B
S11335E006C0C114D10441F4EC85E4FF05C0D194B4
S11335F0C194D1088DE201C08BE2B70190E0D6D32B
S113360080E32AE0C216D1042CF08F5FFAE0CF1ACF
S1133610D108F7CFB70190E0C9D3B701C601C0966E
S1133620C5D349C1833631F0833779F0833509F046
S113363052C01FC0560132E0A30EB11CF6018081B6
S1133640898301E010E0630111C05601F2E0AF0E7E
S1133650B11CF601C080D18096FE03C0612F70E0DA
S113366002C06FEF7FEFC6014CD38C01F92DFF77B9
S113367013C0560122E0A20EB11CF601C080D18015
S113368096FE03C0612F70E002C06FEF7FEFC601AA
S11336902DD38C01F92DF0689F2EF3FD18C0852DD4
S11336A090E00817190798F4B70180E290E07ED300
S11336B05A94F5CFF60197FC859197FE81916F019D
S11336C0B70190E073D351105A94015011090115B8
S11336D0110581F7F0C0843611F0893659F5560189
S11336E097FE09C024E0A20EB11CF601608171812D
S11336F0828193810AC0F2E0AF0EB11CF6016081B1
S11337007181072E000C880B990BF92DFF769F2EE3
S113371097FF09C090958095709561957F4F8F4F65
S11337209F4FF0689F2E2AE030E0A301BED3C82E3D
S1133730C6183EC0092D853721F40F7E2AE030E0FB
S11337401DC0097F8F3691F018F4883559F0BCC03C
S1133750803719F0883711F0B7C0006104FF09C041
S1133760046007C094FE08C0066006C028E030E08C
S113377005C020E130E002C020E132E0560107FF3D
S113378009C084E0A80EB11CF601608171818281B8
S1133790938108C0F2E0AF0EB11CF6016081718123
S11337A080E090E0A30181D3C82EC6180F77902E35
S11337B096FE0BC0092D0E7FC11650F494FE0AC06C
S11337C092FC08C0092D0E7E05C0DC2C092D03C017
S11337D0DC2C01C0D12E04FF0DC0FE01EC0DF11D47
S11337E08081803311F4097E09C002FF06C0D3949E
S11337F0D39404C0802F867809F0D39403FD10C0BD
S113380000FF06C01C2DD51478F4150D1D190CC02D
S1133810D51450F4B70180E290E0C8D2D394F8CF25
S1133820D51410F45D1801C0512C04FF0FC0B7016A
S113383080E390E0BBD202FF16C001FD03C088E71D
S113384090E002C088E590E0B7010CC0802F867834
S113385051F001FF02C08BE201C080E207FD8DE25E
S1133860B70190E0A3D2C11630F4B70180E390E031
S11338709DD21150F8CFCA94F301EC0DF11D808153
S1133880B70190E093D2C110F6CF15C0F4E0F5155E
S113389050F584E0581A93FE1EC0011125C02C85F2
S11338A023FF27C00EE712E0392D3071932EF80163
S11338B08491811121C0552009F4FCCCB70180E228
S11338C090E074D25A94F7CFF7018681978123C090
S11338D08FEF9FEF20C0B70180E290E067D25A9447
S11338E05110F9CFDACF512CB701802F90E05ED27E
S11338F0D6CF02E812E0D8CF91108052B70190E001
S113390055D20F5F1F4FD3CF23E0251510F483E06A
S1133910C1CF512CC4CF6096CDBFDEBFDF91CF9114
S11339201F910F91FF90EF90DF90CF90BF90AF90D9
S11339309F908F907F906F905F904F903F902F90CB
S11339400895A1E21A2EAA1BBB1BFD010DC0AA1FDC
S1133950BB1FEE1FFF1FA217B307E407F50720F0F4
S1133960A21BB30BE40BF50B661F771F881F991F6F
S11339701A9469F760957095809590959B01AC01B8
S1133980BD01CF010895052E97FB16F400940FD0C6
S113399057FD05D0D6DF07FC02D046F408C0509589
S11339A04095309521953F4F4F4F5F4F0895909527
S11339B08095709561957F4F8F4F9F4F0895AFD03D
S11339C0A59F900DB49F900DA49F800D911D11246F
S11339D00895DF93CF931F930F939A9DF02D219F0A
S11339E0F00D8B9DF00D8A9DE02DF10D039FF00DE0
S11339F0029FE00DF11D4E9DE00DF11D5E9DF00D49
S1133A004F9DF00D7F936F93BF92AF925F934F934F
S1133A10D50185D08B01AC01D70181D0EB01E80F32
S1133A20F91FD6011FD02F913F91D60178D0C60F30
S1133A30D71FE81FF91FAF91BF9114D02F913F9169
S1133A406ED0C60FD71FE81FF91FD60168D0E60F46
S1133A50F71F9801BE01CF0111240F911F91CF913F
S1133A60DF9108955CD0460F571FC81FD91F08F473
S1133A70319608950F93083090F0982F872F762F62
S1133A80652F542F432F322F22270850F4CF220FB3
S1133A90331F441F551F661F771F881F991F0A95E0
S1133AA0B2F70F91089597FB10F8169400080F933E
S1133AB0083098F00850232F342F452F562F672FA6
S1133AC0782F892F902DF4CF059497958795779526
S1133AD0679557954795379527950A95AAF70F91B6
S1133AE008952A0D3B1D4C1D5D1D6E1D7F1D801FFD
S1133AF0911F08952A193B094C095D096E097F0934
S1133B00800B910B08950024A7FD00942A1730051B
S1133B104005500560057005800590050895A29F35
S1133B20B001B39FC001A39F700D811D1124911D8D
S1133B30B29F700D811D1124911D0895283008F045
S1133B4027E03327DA01990F311D87FD9160009634
S1133B506105710539F432602E5F3D9330E32A9597
S1133B60E1F708959F3F30F080387105610509F051
S1133B703C5F3C5F3D93913008F08068911DDF937A
S1133B80CF931F930F93FF92EF92192F987F9695DF
S1133B90E92F96959695E90FFF27E052FD4F992757
S1133BA03327EE24FF24A701E70105900894079426
S1133BB028F4360FE71EF81E491F511D660F771FA4
S1133BC0881F991F0694A1F70590079428F4E70E1F
S1133BD0F81E491F561FC11D770F881F991F661FA6
S1133BE00694A1F70590079428F4F80E491F561F70
S1133BF0C71FD11D880F991F661F771F0694A1F751
S1133C000590079420F4490F561FC71FD81F990F1A
S1133C10661F771F881F0694A9F784911095177063
S1133C2041F0D695C79557954795F794E7941A951B
S1133C30C1F7E6E8F2E06894159015913591659125
S1133C40959105907FE27395E118F10A430B560BA9
S1133C50C90BD009C0F7E10CF11E431F561FC91F41
S1133C60D01D7EF4703311F48A95E6CFE8940150A8
S1133C7030F0080F0AF40027021708F4202F2395C8
S1133C80022F7A3328F079E37D932A95E9F710C05F
S1133C907D932A9589F60694979567953795179598
S1133CA01794E118F10A430B560BC90BD00998F08D
S1133CB023957E9173957A3308F070E37C932013F7
S1133CC0B8F77E9170617D9330F0839571E37D93B5
S1133CD070E32A95E1F71124EF90FF900F911F9163
S1133CE0CF91DF91992787FD90950895FC01059068
S1133CF0615070400110D8F7809590958E0F9F1FEA
S1133D000895FC016150704001900110D8F780952E
S1133D1090958E0F9F1F08950F931F93CF93DF935A
S1133D20009731F46115710519F480E090E039C011
S1133D308B01EC016EE070E081E090E014D1FC01B5
S1133D40892B99F380E883830115110571F00287AB
S1133D50138781E883838091CA209091CB20892B9B
S1133D6021F4E093CA20F093CB202097C9F0C087B8
S1133D70D1878381826083838091CC209091CD20F0
S1133D80892B71F4E093CC20F093CD208091CE2048
S1133D909091CF20892B21F4E093CE20F093CF2073
S1133DA0CF01DF91CF911F910F9108950F931F932E
S1133DB0CF93DF93FB01238121FD03C08FEF9FEF9E
S1133DC02CC022FF16C046815781248135814217B9
S1133DD0530744F4A081B1819D012F5F3F4F20839D
S1133DE031838C93268137812F5F3F4F268337831E
S1133DF014C08B01EC01FB010084F185E02D1995C1
S1133E00892BE1F6D80116968D919C91179701960E
S1133E1016968D939C931797CE01DF91CF911F91A6
S1133E200F910895CF93DF93CDB7DEB7AE014A5F0C
S1133E305F4FFA0161917191AF018091CC20909113
S1133E40CD20FCD9DF91CF9108950F931F93CF9389
S1133E50DF93E091CC20F091CD20238121FF1BC082
S1133E608C01D0E0C0E0F80181918F016091CC20F9
S1133E707091CD20DB011896ED91FC911997882360
S1133E8031F01995892B79F3DFEFCFEFECCF8AE08E
S1133E901995892B19F08FEF9FEF02C08D2F9C2F5E
S1133EA0DF91CF911F910F910895FA01AA2728302D
S1133EB051F1203181F1E8946F936E7F6E5F7F4FF3
S1133EC08F4F9F4FAF4FB1E03ED0B4E03CD0670F6F
S1133ED0781F891F9A1FA11D680F791F8A1F911DC2
S1133EE0A11D6A0F711D811D911DA11D20D009F412
S1133EF068943F912AE0269F11243019305D319354
S1133F00DEF6CF010895462F4770405D4193B3E03C
S1133F100FD0C9F7F6CF462F4F70405D4A3318F0E3
S1133F20495D31FD4052419302D0A9F7EACFB4E094
S1133F30A6959795879577956795BA95C9F700974C
S1133F406105710508959B01AC010A2E06945795ED
S1133F50479537952795BA95C9F7620F731F841F44
S1133F60951FA01D08950F931F93CF93DF93869FF2
S1133F708001879F100D969F100D1124C8010DD04C
S1133F80EC01009721F0A80160E070E027D1CE0198
S1133F90DF91CF911F910F9108950F931F93CF93AA
S1133FA0DF938230910510F482E090E0E091D2201A
S1133FB0F091D32020E030E0A0E0B0E0309719F198
S1133FC0408151810281138148175907C8F0841731
S1133FD0950769F4109731F012960C931297139683
S1133FE01C9327C00093D2201093D32022C0211504
S1133FF0310519F04217530718F49A01BD01EF0176
S1134000DF01F801DBCF21153105F9F0281B390B4D
S11340102430310580F48A819B816115710521F07A
S1134020FB018283938304C08093D2209093D32096
S1134030FE01329644C0FE01E20FF31F8193919377
S113404022503109288339833AC02091D0203091FD
S1134050D120232B41F4209102203091032020937E
S1134060D0203093D12020910020309101202115BF
S1134070310541F42DB73EB74091042050910520FD
S1134080241B350BE091D020F091D120E217F307E7
S1134090A0F42E1B3F0B2817390778F0AC014E5FB4
S11340A05F4F2417350748F04E0F5F1F4093D02011
S11340B05093D1208193919302C0E0E0F0E0CF01CE
S11340C0DF91CF911F910F910895CF93DF930097C4
S11340D009F481C0FC01329712821382A091D2208C
S11340E0B091D320109781F420813181820F931FE6
S11340F02091D0203091D1202817390751F5E09331
S1134100D020F093D12067C0ED0120E030E0CE173D
S1134110DF0740F44A815B819E0141155105F1F0AE
S1134120EA01F5CFC283D38340815181840F951F67
S1134130C817D90759F488819981840F951F02966D
S1134140808391838A819B818283938321153105A6
S113415029F4E093D220F093D3203DC0E901EA830F
S1134160FB8349915991C40FD51FEC17FD0761F4E6
S113417080819181840F951F0296E9018883998338
S1134180828193818A839B83E0E0F0E012968D9193
S11341909C911397009719F0FD01DC01F7CF8D91E5
S11341A09C9111979D012E5F3F4F820F931F209189
S11341B0D0203091D1202817390769F4309729F499
S11341C01092D2201092D32002C012821382A093A4
S11341D0D020B093D120DF91CF910895DC0101C0AC
S11141E06D9341505040E0F70895F894FFCFDE
S11341EE0000D420200080250000030001726573B6
S11341FE697374616E6365203D202566200A00494B
S113420E732074686973207468696E67206F6E3FDB
S113421E0048656C6C6F20576F726C6421200046E9
S113422E6C6967687420537461746520312000468C
S113423E6C696768742053746174652032200000C1
S9030000FC
